{
  "_format": "hh-sol-artifact-1",
  "contractName": "AgentRegistry",
  "sourceName": "contracts/core/AgentRegistry.sol",
  "abi": [
    {
      "inputs": [
        {
          "internalType": "address",
          "name": "_franchiseRegistry",
          "type": "address"
        }
      ],
      "stateMutability": "nonpayable",
      "type": "constructor"
    },
    {
      "inputs": [
        {
          "internalType": "uint256",
          "name": "agentId",
          "type": "uint256"
        }
      ],
      "name": "AgentAlreadyActive",
      "type": "error"
    },
    {
      "inputs": [
        {
          "internalType": "uint256",
          "name": "agentId",
          "type": "uint256"
        }
      ],
      "name": "AgentAlreadyInactive",
      "type": "error"
    },
    {
      "inputs": [],
      "name": "EmptyString",
      "type": "error"
    },
    {
      "inputs": [
        {
          "internalType": "uint256",
          "name": "franchiseId",
          "type": "uint256"
        }
      ],
      "name": "FranchiseNotActive",
      "type": "error"
    },
    {
      "inputs": [],
      "name": "InvalidAddress",
      "type": "error"
    },
    {
      "inputs": [
        {
          "internalType": "uint256",
          "name": "agentId",
          "type": "uint256"
        },
        {
          "internalType": "uint256",
          "name": "maxAgentId",
          "type": "uint256"
        }
      ],
      "name": "InvalidAgentId",
      "type": "error"
    },
    {
      "inputs": [
        {
          "internalType": "address",
          "name": "caller",
          "type": "address"
        },
        {
          "internalType": "address",
          "name": "owner",
          "type": "address"
        }
      ],
      "name": "NotAgentOwner",
      "type": "error"
    },
    {
      "inputs": [
        {
          "internalType": "address",
          "name": "owner",
          "type": "address"
        }
      ],
      "name": "OwnableInvalidOwner",
      "type": "error"
    },
    {
      "inputs": [
        {
          "internalType": "address",
          "name": "account",
          "type": "address"
        }
      ],
      "name": "OwnableUnauthorizedAccount",
      "type": "error"
    },
    {
      "anonymous": false,
      "inputs": [
        {
          "indexed": true,
          "internalType": "uint256",
          "name": "agentId",
          "type": "uint256"
        },
        {
          "indexed": true,
          "internalType": "address",
          "name": "owner",
          "type": "address"
        },
        {
          "indexed": false,
          "internalType": "string",
          "name": "name",
          "type": "string"
        },
        {
          "indexed": false,
          "internalType": "string",
          "name": "botType",
          "type": "string"
        },
        {
          "indexed": true,
          "internalType": "uint256",
          "name": "franchiseId",
          "type": "uint256"
        },
        {
          "indexed": false,
          "internalType": "uint256",
          "name": "timestamp",
          "type": "uint256"
        }
      ],
      "name": "AgentCreated",
      "type": "event"
    },
    {
      "anonymous": false,
      "inputs": [
        {
          "indexed": true,
          "internalType": "uint256",
          "name": "agentId",
          "type": "uint256"
        }
      ],
      "name": "AgentDeactivated",
      "type": "event"
    },
    {
      "anonymous": false,
      "inputs": [
        {
          "indexed": true,
          "internalType": "uint256",
          "name": "agentId",
          "type": "uint256"
        }
      ],
      "name": "AgentReactivated",
      "type": "event"
    },
    {
      "anonymous": false,
      "inputs": [
        {
          "indexed": true,
          "internalType": "address",
          "name": "previousOwner",
          "type": "address"
        },
        {
          "indexed": true,
          "internalType": "address",
          "name": "newOwner",
          "type": "address"
        }
      ],
      "name": "OwnershipTransferred",
      "type": "event"
    },
    {
      "inputs": [],
      "name": "agentCount",
      "outputs": [
        {
          "internalType": "uint256",
          "name": "",
          "type": "uint256"
        }
      ],
      "stateMutability": "view",
      "type": "function"
    },
    {
      "inputs": [
        {
          "internalType": "string",
          "name": "name",
          "type": "string"
        },
        {
          "internalType": "string",
          "name": "botType",
          "type": "string"
        },
        {
          "internalType": "uint256",
          "name": "franchiseId",
          "type": "uint256"
        }
      ],
      "name": "createAgent",
      "outputs": [
        {
          "internalType": "uint256",
          "name": "agentId",
          "type": "uint256"
        }
      ],
      "stateMutability": "nonpayable",
      "type": "function"
    },
    {
      "inputs": [
        {
          "internalType": "uint256",
          "name": "agentId",
          "type": "uint256"
        }
      ],
      "name": "deactivateAgent",
      "outputs": [],
      "stateMutability": "nonpayable",
      "type": "function"
    },
    {
      "inputs": [],
      "name": "franchiseRegistry",
      "outputs": [
        {
          "internalType": "contract IFranchiseRegistry",
          "name": "",
          "type": "address"
        }
      ],
      "stateMutability": "view",
      "type": "function"
    },
    {
      "inputs": [
        {
          "internalType": "uint256",
          "name": "agentId",
          "type": "uint256"
        }
      ],
      "name": "getAgent",
      "outputs": [
        {
          "components": [
            {
              "internalType": "address",
              "name": "owner",
              "type": "address"
            },
            {
              "internalType": "string",
              "name": "name",
              "type": "string"
            },
            {
              "internalType": "string",
              "name": "botType",
              "type": "string"
            },
            {
              "internalType": "uint256",
              "name": "franchiseId",
              "type": "uint256"
            },
            {
              "internalType": "uint256",
              "name": "createdAt",
              "type": "uint256"
            },
            {
              "internalType": "bool",
              "name": "active",
              "type": "bool"
            }
          ],
          "internalType": "struct IAgentRegistry.Agent",
          "name": "agent",
          "type": "tuple"
        }
      ],
      "stateMutability": "view",
      "type": "function"
    },
    {
      "inputs": [
        {
          "internalType": "uint256",
          "name": "agentId",
          "type": "uint256"
        }
      ],
      "name": "getAgentOwnerAndStatus",
      "outputs": [
        {
          "internalType": "address",
          "name": "owner",
          "type": "address"
        },
        {
          "internalType": "bool",
          "name": "active",
          "type": "bool"
        }
      ],
      "stateMutability": "view",
      "type": "function"
    },
    {
      "inputs": [
        {
          "internalType": "address",
          "name": "addr",
          "type": "address"
        }
      ],
      "name": "getAgentsByOwner",
      "outputs": [
        {
          "internalType": "uint256[]",
          "name": "agentIds",
          "type": "uint256[]"
        }
      ],
      "stateMutability": "view",
      "type": "function"
    },
    {
      "inputs": [
        {
          "internalType": "uint256",
          "name": "agentId",
          "type": "uint256"
        }
      ],
      "name": "isActiveAgent",
      "outputs": [
        {
          "internalType": "bool",
          "name": "active",
          "type": "bool"
        }
      ],
      "stateMutability": "view",
      "type": "function"
    },
    {
      "inputs": [],
      "name": "owner",
      "outputs": [
        {
          "internalType": "address",
          "name": "",
          "type": "address"
        }
      ],
      "stateMutability": "view",
      "type": "function"
    },
    {
      "inputs": [
        {
          "internalType": "uint256",
          "name": "agentId",
          "type": "uint256"
        }
      ],
      "name": "reactivateAgent",
      "outputs": [],
      "stateMutability": "nonpayable",
      "type": "function"
    },
    {
      "inputs": [],
      "name": "renounceOwnership",
      "outputs": [],
      "stateMutability": "nonpayable",
      "type": "function"
    },
    {
      "inputs": [
        {
          "internalType": "address",
          "name": "newOwner",
          "type": "address"
        }
      ],
      "name": "transferOwnership",
      "outputs": [],
      "stateMutability": "nonpayable",
      "type": "function"
    }
  ],
  "bytecode": "0x60a0346100ed57601f610f7a38819003918201601f19168301916001600160401b038311848410176100f1578084926020946040528339810103126100ed57516001600160a01b038116908190036100ed5733156100da575f8054336001600160a01b0319821681178355604051939290916001600160a01b0316907f8be0079c531659141344cd1fd0a4f28419497f9722a3daafe3b4186f6b6457e09080a380156100cb57608052610e74908161010682396080518181816101090152818161028501526106140152f35b63e6c4247b60e01b5f5260045ffd5b631e4fbdf760e01b5f525f60045260245ffd5b5f80fd5b634e487b7160e01b5f52604160045260245ffdfe60806040526004361015610011575f80fd5b5f3560e01c806311ba6b4a14610a1e5780631325f3b5146105965780631ab6f888146104de5780632de5aaf7146103c0578063715018a6146103695780638da5cb5b14610342578063907a7a601461031a578063aa172725146102d1578063b7dc1284146102b4578063e82e143714610270578063f2fde38b146101e75763fd6103171461009d575f80fd5b346101e35760203660031901126101e3576004356100ba81610de4565b5f81815260016020526040902080546001600160a01b03163381036101cd5750600581019081549060ff82166101ba5760030154604051630f93afeb60e11b8152600481018290525f816024817f00000000000000000000000000000000000000000000000000000000000000006001600160a01b03165afa80156101af5760a0915f9161018d575b5001511561017b575060ff191660011790557f7cce21c1f4552995dccace889e9ad45febf59c654d3fd1d7ab0457fa1439aa2c5f80a2005b631c61fb7160e01b5f5260045260245ffd5b6101a991503d805f833e6101a18183610b16565b810190610bae565b5f610143565b6040513d5f823e3d90fd5b836327b4421f60e21b5f5260045260245ffd5b631c31ad3b60e21b5f523360045260245260445ffd5b5f80fd5b346101e35760203660031901126101e3576004356001600160a01b038116908190036101e357610215610e18565b801561025d575f80546001600160a01b03198116831782556001600160a01b0316907f8be0079c531659141344cd1fd0a4f28419497f9722a3daafe3b4186f6b6457e09080a3005b631e4fbdf760e01b5f525f60045260245ffd5b346101e3575f3660031901126101e3576040517f00000000000000000000000000000000000000000000000000000000000000006001600160a01b03168152602090f35b346101e3575f3660031901126101e3576020600354604051908152f35b346101e35760203660031901126101e3576004356102ee81610de4565b5f5260016020526040805f2060ff600560018060a01b0383541692015416825191825215156020820152f35b346101e35760203660031901126101e3576020610338600435610db2565b6040519015158152f35b346101e3575f3660031901126101e3575f546040516001600160a01b039091168152602090f35b346101e3575f3660031901126101e357610381610e18565b5f80546001600160a01b0319811682556001600160a01b03167f8be0079c531659141344cd1fd0a4f28419497f9722a3daafe3b4186f6b6457e08280a3005b346101e35760203660031901126101e3576004355f60a06040516103e381610afa565b8281526060602082015260606040820152826060820152826080820152015261040b81610de4565b5f52600160205260405f2060405161042281610afa565b81546001600160a01b0316815261043b60018301610d12565b916020820192835261044f60028201610d12565b60408301908152600382015491606084019283526104c560ff6005600484015493608088019485520154169260a0860193151584526104b26040519788976020895260018060a01b0390511660208901525160c0604089015260e0880190610ad6565b9051868203601f19016060880152610ad6565b925160808501525160a084015251151560c08301520390f35b346101e35760203660031901126101e3576004356001600160a01b038116908190036101e3575f52600260205260405f20604051806020835491828152019081935f5260205f20905f5b818110610580575050508161053e910382610b16565b604051918291602083019060208452518091526040830191905f5b818110610567575050500390f35b8251845285945060209384019390920191600101610559565b8254845260209093019260019283019201610528565b346101e35760603660031901126101e35760043567ffffffffffffffff81116101e3576105c7903690600401610aa8565b9060243567ffffffffffffffff81116101e3576105e8903690600401610aa8565b92604435918115610a0f578415610a0f57604051630f93afeb60e11b8152600481018490525f816024817f00000000000000000000000000000000000000000000000000000000000000006001600160a01b03165afa80156101af5760a0915f916109f5575b500151156109e257600160035401938460035560405161066d81610afa565b33815261067b368584610c84565b906020810191825261068e368986610c84565b6040820190815260608201878152608083019142835260a0840194600186528a5f52600160205260405f209460018060a01b039051166bffffffffffffffffffffffff60a01b86541617855560018501905180519067ffffffffffffffff82116108575781906106fe8454610cba565b601f8111610992575b50602090601f831160011461092f575f92610924575b50508160011b915f199060031b1c19161790555b518051600285019167ffffffffffffffff8211610857576107528354610cba565b601f81116108df575b50602090601f83116001146108765760059695949392915f918361086b575b50508160011b915f199060031b1c19161790555b516003830155516004820155019051151560ff80198354169116179055335f52600260205260405f20805492680100000000000000008410156108575760018401808355841015610843576020976108217febf9e9c0ff42b9253a627db9cc75775e398aef1f2f0a86b97bde03ab14dcb6e09489809761082e965f528c5f20015560405197606089526060890191610cf2565b918683038a880152610cf2565b924260408201528033940390a4604051908152f35b634e487b7160e01b5f52603260045260245ffd5b634e487b7160e01b5f52604160045260245ffd5b015190508e8061077a565b90601f19831691845f52815f20925f5b8181106108c7575091600193918560059a9998979694106108af575b505050811b01905561078e565b01515f1960f88460031b161c191690558e80806108a2565b92936020600181928786015181550195019301610886565b835f5260205f20601f840160051c8101916020851061091a575b601f0160051c01905b81811061090f575061075b565b5f8155600101610902565b90915081906108f9565b015190508e8061071d565b5f8581528281209350601f198516905b81811061097a5750908460019594939210610962575b505050811b019055610731565b01515f1960f88460031b161c191690558e8080610955565b9293602060018192878601518155019501930161093f565b909150835f5260205f20601f840160051c810191602085106109d8575b90601f859493920160051c01905b8181106109ca5750610707565b5f81558493506001016109bd565b90915081906109af565b82631c61fb7160e01b5f5260045260245ffd5b610a0991503d805f833e6101a18183610b16565b8761064e565b63ecd7b0d160e01b5f5260045ffd5b346101e35760203660031901126101e357600435610a3b81610de4565b5f81815260016020526040902080546001600160a01b03163381036101cd5750600501805460ff811615610a955760ff191690557fc2fb7f8575ac3990e70361684edfc4d283931ea9a03dfa28766bf376a3934aa25f80a2005b8263f539a74360e01b5f5260045260245ffd5b9181601f840112156101e35782359167ffffffffffffffff83116101e357602083818601950101116101e357565b805180835260209291819084018484015e5f828201840152601f01601f1916010190565b60c0810190811067ffffffffffffffff82111761085757604052565b90601f8019910116810190811067ffffffffffffffff82111761085757604052565b67ffffffffffffffff811161085757601f01601f191660200190565b81601f820112156101e357805190610b6b82610b38565b92610b796040519485610b16565b828452602083830101116101e357815f9260208093018386015e8301015290565b51906001600160a01b03821682036101e357565b6020818303126101e35780519067ffffffffffffffff82116101e3570160e0818303126101e3576040519160e0830183811067ffffffffffffffff8211176108575760405281518352602082015167ffffffffffffffff81116101e35781610c17918401610b54565b602084015260408201519067ffffffffffffffff82116101e357610c3c918301610b54565b6040830152610c4d60608201610b9a565b6060830152610c5e60808201610b9a565b608083015260a08101519081151582036101e35760c09160a0840152015160c082015290565b929192610c9082610b38565b91610c9e6040519384610b16565b8294818452818301116101e3578281602093845f960137010152565b90600182811c92168015610ce8575b6020831014610cd457565b634e487b7160e01b5f52602260045260245ffd5b91607f1691610cc9565b908060209392818452848401375f828201840152601f01601f1916010190565b9060405191825f825492610d2584610cba565b8084529360018116908115610d905750600114610d4c575b50610d4a92500383610b16565b565b90505f9291925260205f20905f915b818310610d74575050906020610d4a928201015f610d3d565b6020919350806001915483858901015201910190918492610d5b565b905060209250610d4a94915060ff191682840152151560051b8201015f610d3d565b80158015610dd9575b610dd4575f52600160205260ff600560405f2001541690565b505f90565b506003548111610dbb565b80158015610e0d575b610df45750565b6003549063a15cd6ab60e01b5f5260045260245260445ffd5b506003548111610ded565b5f546001600160a01b03163303610e2b57565b63118cdaa760e01b5f523360045260245ffdfea2646970667358221220f636d5e5204969ab6d7d11e454235060dce6f2a539e80a9a85e73571c20bc5af64736f6c634300081b0033",
  "linkReferences": {},
  "deployedLinkReferences": {}
}