{
  "_format": "hh-sol-artifact-1",
  "contractName": "ExecutionGateway",
  "sourceName": "contracts/core/ExecutionGateway.sol",
  "abi": [
    {
      "inputs": [
        {
          "internalType": "address",
          "name": "_registry",
          "type": "address"
        },
        {
          "internalType": "address",
          "name": "_policyEngine",
          "type": "address"
        },
        {
          "internalType": "address",
          "name": "_reputationStore",
          "type": "address"
        },
        {
          "internalType": "address",
          "name": "_protocolTreasury",
          "type": "address"
        }
      ],
      "stateMutability": "nonpayable",
      "type": "constructor"
    },
    {
      "inputs": [],
      "name": "AgentNotActive",
      "type": "error"
    },
    {
      "inputs": [],
      "name": "FeeTransferFailed",
      "type": "error"
    },
    {
      "inputs": [
        {
          "internalType": "address",
          "name": "target",
          "type": "address"
        }
      ],
      "name": "ForbiddenTarget",
      "type": "error"
    },
    {
      "inputs": [],
      "name": "InvalidAddress",
      "type": "error"
    },
    {
      "inputs": [],
      "name": "NoBalance",
      "type": "error"
    },
    {
      "inputs": [
        {
          "internalType": "bytes32",
          "name": "nonce",
          "type": "bytes32"
        }
      ],
      "name": "NonceAlreadyUsed",
      "type": "error"
    },
    {
      "inputs": [],
      "name": "NotAgentOwner",
      "type": "error"
    },
    {
      "inputs": [
        {
          "internalType": "address",
          "name": "owner",
          "type": "address"
        }
      ],
      "name": "OwnableInvalidOwner",
      "type": "error"
    },
    {
      "inputs": [
        {
          "internalType": "address",
          "name": "account",
          "type": "address"
        }
      ],
      "name": "OwnableUnauthorizedAccount",
      "type": "error"
    },
    {
      "inputs": [],
      "name": "ReentrancyGuardReentrantCall",
      "type": "error"
    },
    {
      "inputs": [],
      "name": "ValueMismatch",
      "type": "error"
    },
    {
      "anonymous": false,
      "inputs": [
        {
          "indexed": true,
          "internalType": "uint256",
          "name": "agentId",
          "type": "uint256"
        },
        {
          "indexed": false,
          "internalType": "bytes32",
          "name": "action",
          "type": "bytes32"
        },
        {
          "indexed": false,
          "internalType": "bool",
          "name": "success",
          "type": "bool"
        },
        {
          "indexed": false,
          "internalType": "uint256",
          "name": "gasUsed",
          "type": "uint256"
        },
        {
          "indexed": false,
          "internalType": "uint256",
          "name": "timestamp",
          "type": "uint256"
        }
      ],
      "name": "AgentExecuted",
      "type": "event"
    },
    {
      "anonymous": false,
      "inputs": [
        {
          "indexed": true,
          "internalType": "uint256",
          "name": "agentId",
          "type": "uint256"
        },
        {
          "indexed": false,
          "internalType": "address",
          "name": "target",
          "type": "address"
        },
        {
          "indexed": false,
          "internalType": "bytes32",
          "name": "action",
          "type": "bytes32"
        },
        {
          "indexed": false,
          "internalType": "string",
          "name": "reason",
          "type": "string"
        },
        {
          "indexed": false,
          "internalType": "uint256",
          "name": "timestamp",
          "type": "uint256"
        }
      ],
      "name": "AgentViolation",
      "type": "event"
    },
    {
      "anonymous": false,
      "inputs": [
        {
          "indexed": true,
          "internalType": "address",
          "name": "to",
          "type": "address"
        },
        {
          "indexed": false,
          "internalType": "uint256",
          "name": "amount",
          "type": "uint256"
        }
      ],
      "name": "ETHSwept",
      "type": "event"
    },
    {
      "anonymous": false,
      "inputs": [
        {
          "indexed": true,
          "internalType": "address",
          "name": "target",
          "type": "address"
        },
        {
          "indexed": false,
          "internalType": "bool",
          "name": "forbidden",
          "type": "bool"
        }
      ],
      "name": "ForbiddenTargetUpdated",
      "type": "event"
    },
    {
      "anonymous": false,
      "inputs": [
        {
          "indexed": true,
          "internalType": "address",
          "name": "previousOwner",
          "type": "address"
        },
        {
          "indexed": true,
          "internalType": "address",
          "name": "newOwner",
          "type": "address"
        }
      ],
      "name": "OwnershipTransferred",
      "type": "event"
    },
    {
      "anonymous": false,
      "inputs": [
        {
          "indexed": true,
          "internalType": "address",
          "name": "treasury",
          "type": "address"
        }
      ],
      "name": "ProtocolTreasuryUpdated",
      "type": "event"
    },
    {
      "inputs": [],
      "name": "BPS_DENOMINATOR",
      "outputs": [
        {
          "internalType": "uint256",
          "name": "",
          "type": "uint256"
        }
      ],
      "stateMutability": "view",
      "type": "function"
    },
    {
      "inputs": [],
      "name": "PROTOCOL_FEE_BPS",
      "outputs": [
        {
          "internalType": "uint256",
          "name": "",
          "type": "uint256"
        }
      ],
      "stateMutability": "view",
      "type": "function"
    },
    {
      "inputs": [],
      "name": "agentRegistry",
      "outputs": [
        {
          "internalType": "contract IAgentRegistry",
          "name": "",
          "type": "address"
        }
      ],
      "stateMutability": "view",
      "type": "function"
    },
    {
      "inputs": [
        {
          "internalType": "uint256",
          "name": "agentId",
          "type": "uint256"
        }
      ],
      "name": "closeAgentPosition",
      "outputs": [],
      "stateMutability": "nonpayable",
      "type": "function"
    },
    {
      "inputs": [
        {
          "internalType": "uint256",
          "name": "agentId",
          "type": "uint256"
        },
        {
          "internalType": "address",
          "name": "target",
          "type": "address"
        },
        {
          "internalType": "bytes32",
          "name": "action",
          "type": "bytes32"
        },
        {
          "internalType": "bytes",
          "name": "data",
          "type": "bytes"
        },
        {
          "internalType": "uint256",
          "name": "amount",
          "type": "uint256"
        },
        {
          "internalType": "bytes32",
          "name": "nonce",
          "type": "bytes32"
        }
      ],
      "name": "execute",
      "outputs": [
        {
          "internalType": "bool",
          "name": "",
          "type": "bool"
        }
      ],
      "stateMutability": "payable",
      "type": "function"
    },
    {
      "inputs": [
        {
          "internalType": "bytes32",
          "name": "",
          "type": "bytes32"
        }
      ],
      "name": "executedHashes",
      "outputs": [
        {
          "internalType": "bool",
          "name": "",
          "type": "bool"
        }
      ],
      "stateMutability": "view",
      "type": "function"
    },
    {
      "inputs": [
        {
          "internalType": "address",
          "name": "",
          "type": "address"
        }
      ],
      "name": "forbiddenTargets",
      "outputs": [
        {
          "internalType": "bool",
          "name": "",
          "type": "bool"
        }
      ],
      "stateMutability": "view",
      "type": "function"
    },
    {
      "inputs": [],
      "name": "owner",
      "outputs": [
        {
          "internalType": "address",
          "name": "",
          "type": "address"
        }
      ],
      "stateMutability": "view",
      "type": "function"
    },
    {
      "inputs": [],
      "name": "policyEngine",
      "outputs": [
        {
          "internalType": "contract IPolicyEngine",
          "name": "",
          "type": "address"
        }
      ],
      "stateMutability": "view",
      "type": "function"
    },
    {
      "inputs": [],
      "name": "protocolTreasury",
      "outputs": [
        {
          "internalType": "address",
          "name": "",
          "type": "address"
        }
      ],
      "stateMutability": "view",
      "type": "function"
    },
    {
      "inputs": [],
      "name": "renounceOwnership",
      "outputs": [],
      "stateMutability": "nonpayable",
      "type": "function"
    },
    {
      "inputs": [],
      "name": "reputationStore",
      "outputs": [
        {
          "internalType": "contract IReputationStore",
          "name": "",
          "type": "address"
        }
      ],
      "stateMutability": "view",
      "type": "function"
    },
    {
      "inputs": [
        {
          "internalType": "address",
          "name": "target",
          "type": "address"
        },
        {
          "internalType": "bool",
          "name": "forbidden",
          "type": "bool"
        }
      ],
      "name": "setForbiddenTarget",
      "outputs": [],
      "stateMutability": "nonpayable",
      "type": "function"
    },
    {
      "inputs": [
        {
          "internalType": "address",
          "name": "_treasury",
          "type": "address"
        }
      ],
      "name": "setProtocolTreasury",
      "outputs": [],
      "stateMutability": "nonpayable",
      "type": "function"
    },
    {
      "inputs": [
        {
          "internalType": "address",
          "name": "to",
          "type": "address"
        }
      ],
      "name": "sweepETH",
      "outputs": [],
      "stateMutability": "nonpayable",
      "type": "function"
    },
    {
      "inputs": [
        {
          "internalType": "address",
          "name": "newOwner",
          "type": "address"
        }
      ],
      "name": "transferOwnership",
      "outputs": [],
      "stateMutability": "nonpayable",
      "type": "function"
    },
    {
      "stateMutability": "payable",
      "type": "receive"
    }
  ],
  "bytecode": "0x60e03461020357601f61116438819003918201601f19168301916001600160401b0383118484101761020757808492608094604052833981010312610203576100478161021b565b906100546020820161021b565b9061006d60606100666040840161021b565b920161021b565b9133156101f0575f8054336001600160a01b0319821681178355604051969290916001600160a01b0316907f8be0079c531659141344cd1fd0a4f28419497f9722a3daafe3b4186f6b6457e09080a360017f9b779b17422d0df92223018b32b4d1fa46e071723d6817e2486d003becc55f00556001600160a01b03169081156101e1576001600160a01b03169182156101e1576001600160a01b03169283156101e1576001600160a01b031680156101e157608082905260a083905260c0849052600180546001600160a01b0319169190911781555f91825260036020526040808320805460ff1990811684179091559383528083208054851683179055938252838220805484168217905530825292902080549091169091179055610f3490816102308239608051818181610151015281816102f901526109a4015260a051818181610195015281816105820152610a6c015260c0518181816103dc01528181610b4c01528181610c200152610d2e0152f35b63e6c4247b60e01b5f5260045ffd5b631e4fbdf760e01b5f525f60045260245ffd5b5f80fd5b634e487b7160e01b5f52604160045260245ffd5b51906001600160a01b03821682036102035756fe6080604052600436101561001a575b3615610018575f80fd5b005b5f3560e01c806308507bf1146101195780630c5a61f8146101145780630d1cfcae1461010f5780631163b2b01461010a578063228c53c614610105578063260d711e1461010057806364e14bef146100fb578063715018a6146100f6578063803db96d146100f15780638da5cb5b146100ec578063927399a5146100e7578063ae711528146100e2578063be378228146100dd578063dadde436146100d8578063e1a45218146100d35763f2fde38b0361000e576106b4565b610698565b610658565b61063d565b6105b1565b61056d565b610546565b61051e565b6104c7565b610444565b61040b565b6103c7565b610328565b6102e4565b61025f565b3461020b57602036600319011261020b576040805163aa17272560e01b81526004803590820181905291816024816001600160a01b037f0000000000000000000000000000000000000000000000000000000000000000165afa908115610206575f9161021e575b50336001600160a01b039091160361020f577f00000000000000000000000000000000000000000000000000000000000000006001600160a01b0316803b1561020b5760405163a126d60160e01b815260048101839052905f908290602490829084905af18015610206576101f257005b806102005f61001893610751565b806102da565b6107a0565b5f80fd5b630e41dcbf60e21b5f5260045ffd5b610240915060403d604011610247575b6102388183610751565b810190610778565b505f610181565b503d61022e565b6001600160a01b0381160361020b57565b3461020b57602036600319011261020b5760043561027c8161024e565b610284610ea2565b6001600160a01b031680156102cb57600180546001600160a01b031916821790557fb141872ee67913e1bc546464f29b6b07a65159d45c6af64fdecf8b4129157faf5f80a2005b63e6c4247b60e01b5f5260045ffd5b5f91031261020b57565b3461020b575f36600319011261020b576040517f00000000000000000000000000000000000000000000000000000000000000006001600160a01b03168152602090f35b3461020b57602036600319011261020b576004356103458161024e565b61034d610ea2565b6001600160a01b0381169081156102cb57479081156103b8575f80808481945af16103766107c7565b50156103a95760207fab31ddb82a9ca2de51c9befe9da7c6e815e12eac49ae58b8d9cb6b7a181cbc7191604051908152a2005b634033e4e360e01b5f5260045ffd5b636165515360e11b5f5260045ffd5b3461020b575f36600319011261020b576040517f00000000000000000000000000000000000000000000000000000000000000006001600160a01b03168152602090f35b3461020b57602036600319011261020b576004355f526002602052602060ff60405f2054166040519015158152f35b8015150361020b57565b3461020b57604036600319011261020b576004356104618161024e565b7f7958183a357c8ca890c06cfb33934efa4543050b98e2f08c61c9104a299a8c186020602435926104918461043a565b610499610ea2565b60018060a01b031692835f526003825260405f209015159060ff1981541660ff8316179055604051908152a2005b3461020b575f36600319011261020b576104df610ea2565b5f80546001600160a01b0319811682556001600160a01b03167f8be0079c531659141344cd1fd0a4f28419497f9722a3daafe3b4186f6b6457e08280a3005b3461020b575f36600319011261020b576001546040516001600160a01b039091168152602090f35b3461020b575f36600319011261020b575f546040516001600160a01b039091168152602090f35b3461020b575f36600319011261020b576040517f00000000000000000000000000000000000000000000000000000000000000006001600160a01b03168152602090f35b60c036600319011261020b576004356024356105cc8161024e565b604435906064359067ffffffffffffffff821161020b573660238301121561020b57816004013567ffffffffffffffff811161020b57366024828501011161020b57610639946106279460843593602460a4359601926107f6565b60405190151581529081906020820190565b0390f35b3461020b575f36600319011261020b57602060405160648152f35b3461020b57602036600319011261020b576004356106758161024e565b60018060a01b03165f526003602052602060ff60405f2054166040519015158152f35b3461020b575f36600319011261020b5760206040516127108152f35b3461020b57602036600319011261020b576004356106d18161024e565b6106d9610ea2565b6001600160a01b0316801561072a575f80546001600160a01b03198116831782556001600160a01b0316907f8be0079c531659141344cd1fd0a4f28419497f9722a3daafe3b4186f6b6457e09080a3005b631e4fbdf760e01b5f525f60045260245ffd5b634e487b7160e01b5f52604160045260245ffd5b90601f8019910116810190811067ffffffffffffffff82111761077357604052565b61073d565b919082604091031261020b57602082516107918161024e565b92015161079d8161043a565b90565b6040513d5f823e3d90fd5b67ffffffffffffffff811161077357601f01601f191660200190565b3d156107f1573d906107d8826107ab565b916107e66040519384610751565b82523d5f602084013e565b606090565b95949392919060027f9b779b17422d0df92223018b32b4d1fa46e071723d6817e2486d003becc55f005414610879576108529660027f9b779b17422d0df92223018b32b4d1fa46e071723d6817e2486d003becc55f0055610970565b9060017f9b779b17422d0df92223018b32b4d1fa46e071723d6817e2486d003becc55f0055565b633ee5aeb560e01b5f5260045ffd5b919060408382031261020b57825161089f8161043a565b9260208101519067ffffffffffffffff821161020b570181601f8201121561020b578051906108cd826107ab565b926108db6040519485610751565b8284526020838301011161020b57815f9260208093018386015e8301015290565b9190820391821161090957565b634e487b7160e01b5f52601160045260245ffd5b94939260209060609360a093600180861b03168852828801526080604088015280519182918260808a0152018388015e5f828288010152601f8019910116850101930152565b908092918237015f815290565b959492909391935a95843403610e93576040805163aa17272560e01b8152600481018a905290816024816001600160a01b037f0000000000000000000000000000000000000000000000000000000000000000165afa908115610206575f905f92610e71575b50336001600160a01b039091160361020f5715610e62576001600160a01b0382165f908152600360205260409020610a10905b5460ff1690565b610e4657875f5260205260405f2092610a34610a09855f52600260205260405f2090565b610e325760405163362e322560e21b8152600481018990526001600160a01b03838116602483015260448201889052606482018790527f00000000000000000000000000000000000000000000000000000000000000001694905f81608481895afa918215610206575f915f93610e01575b50610abc610ac9915f52600260205260405f2090565b805460ff19166001179055565b15610d185750849285610cfa575b610b04925f92858493610aef60405180948193610963565b03925af195610afc6107c7565b505a906108fc565b9415610c1c5750803b1561020b57604051600162332f0160e21b031981526004810186905260248101929092525f908290604490829084905af1801561020657610c08575b507f00000000000000000000000000000000000000000000000000000000000000006001600160a01b031691823b1561020b5760405163aa086b9160e01b81526004810185905260248101829052925f908490604490829084905af1928315610206577f65dcc306339b0c9bf9865b8d2053e9f76161acad090b166df7bb5511a077205193610bf4575b506040805192835260016020840152820152426060820152608090a2600190565b806102005f610c0293610751565b5f610bd3565b806102005f610c1693610751565b5f610b49565b94937f00000000000000000000000000000000000000000000000000000000000000006001600160a01b03169392509050823b1561020b57604051633513aff760e11b81526004810185905260248101829052925f908490604490829084905af1928315610206577f65dcc306339b0c9bf9865b8d2053e9f76161acad090b166df7bb5511a077205193610ce6575b50604080519283525f6020840152820152426060820152608090a280610cd057505f90565b5f80808093335af150610ce16107c7565b505f90565b806102005f610cf493610751565b5f610cab565b92505f610b04928192610d0c88610ec8565b95925092509250610ad7565b95945050949050610d2b91505a906108fc565b927f00000000000000000000000000000000000000000000000000000000000000006001600160a01b0316803b1561020b57604051630da5187d60e31b81526004810187905260248101959095525f908590604490829084905af1908115610206577fb3db632de22c05a698d847be9101ce61e114dfa73897f73dd49d6efcdcb68beb94610dc792610ded575b5060405193849342928561091d565b0390a234610dd3575f90565b5f80808034335af1610de36107c7565b50156103a9575f90565b806102005f610dfb93610751565b5f610db8565b610ac9919350610abc9250610e27903d805f833e610e1f8183610751565b810190610888565b929092939150610aa6565b638c24228560e01b5f52600484905260245ffd5b636cb0d57f60e11b5f526001600160a01b03821660045260245ffd5b632437e77160e11b5f5260045ffd5b9050610e8c915060403d604011610247576102388183610751565b905f6109d6565b63dd8e4af760e01b5f5260045ffd5b5f546001600160a01b03163303610eb557565b63118cdaa760e01b5f523360045260245ffd5b61271060648202049081610eda570390565b5f8080808560018060a01b03600154165af1610ef46107c7565b50156103a957039056fea26469706673582212207cfc34e3bd11bb910315129fcd57349bb9dd08c95b6915505b169887077aa70864736f6c634300081b0033",
  "linkReferences": {},
  "deployedLinkReferences": {}
}