{
  "_format": "hh-sol-artifact-1",
  "contractName": "ExecutionGateway",
  "sourceName": "contracts/core/ExecutionGateway.sol",
  "abi": [
    {
      "inputs": [
        {
          "internalType": "address",
          "name": "_registry",
          "type": "address"
        },
        {
          "internalType": "address",
          "name": "_policyEngine",
          "type": "address"
        },
        {
          "internalType": "address",
          "name": "_reputationStore",
          "type": "address"
        },
        {
          "internalType": "address",
          "name": "_protocolTreasury",
          "type": "address"
        }
      ],
      "stateMutability": "nonpayable",
      "type": "constructor"
    },
    {
      "inputs": [],
      "name": "AgentNotActive",
      "type": "error"
    },
    {
      "inputs": [],
      "name": "EnforcedPause",
      "type": "error"
    },
    {
      "inputs": [],
      "name": "ExpectedPause",
      "type": "error"
    },
    {
      "inputs": [],
      "name": "FeeTransferFailed",
      "type": "error"
    },
    {
      "inputs": [
        {
          "internalType": "address",
          "name": "target",
          "type": "address"
        }
      ],
      "name": "ForbiddenTarget",
      "type": "error"
    },
    {
      "inputs": [],
      "name": "InvalidAddress",
      "type": "error"
    },
    {
      "inputs": [],
      "name": "NoBalance",
      "type": "error"
    },
    {
      "inputs": [
        {
          "internalType": "bytes32",
          "name": "nonce",
          "type": "bytes32"
        }
      ],
      "name": "NonceAlreadyUsed",
      "type": "error"
    },
    {
      "inputs": [],
      "name": "NotAgentOwner",
      "type": "error"
    },
    {
      "inputs": [
        {
          "internalType": "address",
          "name": "owner",
          "type": "address"
        }
      ],
      "name": "OwnableInvalidOwner",
      "type": "error"
    },
    {
      "inputs": [
        {
          "internalType": "address",
          "name": "account",
          "type": "address"
        }
      ],
      "name": "OwnableUnauthorizedAccount",
      "type": "error"
    },
    {
      "inputs": [],
      "name": "ReentrancyGuardReentrantCall",
      "type": "error"
    },
    {
      "inputs": [],
      "name": "ValueMismatch",
      "type": "error"
    },
    {
      "anonymous": false,
      "inputs": [
        {
          "indexed": true,
          "internalType": "uint256",
          "name": "agentId",
          "type": "uint256"
        },
        {
          "indexed": false,
          "internalType": "bytes32",
          "name": "action",
          "type": "bytes32"
        },
        {
          "indexed": false,
          "internalType": "bool",
          "name": "success",
          "type": "bool"
        },
        {
          "indexed": false,
          "internalType": "uint256",
          "name": "gasUsed",
          "type": "uint256"
        },
        {
          "indexed": false,
          "internalType": "uint256",
          "name": "timestamp",
          "type": "uint256"
        }
      ],
      "name": "AgentExecuted",
      "type": "event"
    },
    {
      "anonymous": false,
      "inputs": [
        {
          "indexed": true,
          "internalType": "uint256",
          "name": "agentId",
          "type": "uint256"
        },
        {
          "indexed": false,
          "internalType": "address",
          "name": "target",
          "type": "address"
        },
        {
          "indexed": false,
          "internalType": "bytes32",
          "name": "action",
          "type": "bytes32"
        },
        {
          "indexed": false,
          "internalType": "string",
          "name": "reason",
          "type": "string"
        },
        {
          "indexed": false,
          "internalType": "uint256",
          "name": "timestamp",
          "type": "uint256"
        }
      ],
      "name": "AgentViolation",
      "type": "event"
    },
    {
      "anonymous": false,
      "inputs": [
        {
          "indexed": true,
          "internalType": "address",
          "name": "to",
          "type": "address"
        },
        {
          "indexed": false,
          "internalType": "uint256",
          "name": "amount",
          "type": "uint256"
        }
      ],
      "name": "ETHSwept",
      "type": "event"
    },
    {
      "anonymous": false,
      "inputs": [
        {
          "indexed": true,
          "internalType": "address",
          "name": "target",
          "type": "address"
        },
        {
          "indexed": false,
          "internalType": "bool",
          "name": "forbidden",
          "type": "bool"
        }
      ],
      "name": "ForbiddenTargetUpdated",
      "type": "event"
    },
    {
      "anonymous": false,
      "inputs": [
        {
          "indexed": true,
          "internalType": "address",
          "name": "previousOwner",
          "type": "address"
        },
        {
          "indexed": true,
          "internalType": "address",
          "name": "newOwner",
          "type": "address"
        }
      ],
      "name": "OwnershipTransferred",
      "type": "event"
    },
    {
      "anonymous": false,
      "inputs": [
        {
          "indexed": false,
          "internalType": "address",
          "name": "account",
          "type": "address"
        }
      ],
      "name": "Paused",
      "type": "event"
    },
    {
      "anonymous": false,
      "inputs": [
        {
          "indexed": true,
          "internalType": "address",
          "name": "treasury",
          "type": "address"
        }
      ],
      "name": "ProtocolTreasuryUpdated",
      "type": "event"
    },
    {
      "anonymous": false,
      "inputs": [
        {
          "indexed": false,
          "internalType": "address",
          "name": "account",
          "type": "address"
        }
      ],
      "name": "Unpaused",
      "type": "event"
    },
    {
      "inputs": [],
      "name": "BPS_DENOMINATOR",
      "outputs": [
        {
          "internalType": "uint256",
          "name": "",
          "type": "uint256"
        }
      ],
      "stateMutability": "view",
      "type": "function"
    },
    {
      "inputs": [],
      "name": "PROTOCOL_FEE_BPS",
      "outputs": [
        {
          "internalType": "uint256",
          "name": "",
          "type": "uint256"
        }
      ],
      "stateMutability": "view",
      "type": "function"
    },
    {
      "inputs": [],
      "name": "agentRegistry",
      "outputs": [
        {
          "internalType": "contract IAgentRegistry",
          "name": "",
          "type": "address"
        }
      ],
      "stateMutability": "view",
      "type": "function"
    },
    {
      "inputs": [
        {
          "internalType": "uint256",
          "name": "agentId",
          "type": "uint256"
        }
      ],
      "name": "closeAgentPosition",
      "outputs": [],
      "stateMutability": "nonpayable",
      "type": "function"
    },
    {
      "inputs": [
        {
          "internalType": "uint256",
          "name": "agentId",
          "type": "uint256"
        },
        {
          "internalType": "address",
          "name": "target",
          "type": "address"
        },
        {
          "internalType": "bytes32",
          "name": "action",
          "type": "bytes32"
        },
        {
          "internalType": "bytes",
          "name": "data",
          "type": "bytes"
        },
        {
          "internalType": "uint256",
          "name": "amount",
          "type": "uint256"
        },
        {
          "internalType": "bytes32",
          "name": "nonce",
          "type": "bytes32"
        }
      ],
      "name": "execute",
      "outputs": [
        {
          "internalType": "bool",
          "name": "",
          "type": "bool"
        }
      ],
      "stateMutability": "payable",
      "type": "function"
    },
    {
      "inputs": [
        {
          "internalType": "bytes32",
          "name": "",
          "type": "bytes32"
        }
      ],
      "name": "executedHashes",
      "outputs": [
        {
          "internalType": "bool",
          "name": "",
          "type": "bool"
        }
      ],
      "stateMutability": "view",
      "type": "function"
    },
    {
      "inputs": [
        {
          "internalType": "address",
          "name": "",
          "type": "address"
        }
      ],
      "name": "forbiddenTargets",
      "outputs": [
        {
          "internalType": "bool",
          "name": "",
          "type": "bool"
        }
      ],
      "stateMutability": "view",
      "type": "function"
    },
    {
      "inputs": [],
      "name": "owner",
      "outputs": [
        {
          "internalType": "address",
          "name": "",
          "type": "address"
        }
      ],
      "stateMutability": "view",
      "type": "function"
    },
    {
      "inputs": [],
      "name": "pause",
      "outputs": [],
      "stateMutability": "nonpayable",
      "type": "function"
    },
    {
      "inputs": [],
      "name": "paused",
      "outputs": [
        {
          "internalType": "bool",
          "name": "",
          "type": "bool"
        }
      ],
      "stateMutability": "view",
      "type": "function"
    },
    {
      "inputs": [],
      "name": "policyEngine",
      "outputs": [
        {
          "internalType": "contract IPolicyEngine",
          "name": "",
          "type": "address"
        }
      ],
      "stateMutability": "view",
      "type": "function"
    },
    {
      "inputs": [],
      "name": "protocolTreasury",
      "outputs": [
        {
          "internalType": "address",
          "name": "",
          "type": "address"
        }
      ],
      "stateMutability": "view",
      "type": "function"
    },
    {
      "inputs": [],
      "name": "renounceOwnership",
      "outputs": [],
      "stateMutability": "nonpayable",
      "type": "function"
    },
    {
      "inputs": [],
      "name": "reputationStore",
      "outputs": [
        {
          "internalType": "contract IReputationStore",
          "name": "",
          "type": "address"
        }
      ],
      "stateMutability": "view",
      "type": "function"
    },
    {
      "inputs": [
        {
          "internalType": "address",
          "name": "target",
          "type": "address"
        },
        {
          "internalType": "bool",
          "name": "forbidden",
          "type": "bool"
        }
      ],
      "name": "setForbiddenTarget",
      "outputs": [],
      "stateMutability": "nonpayable",
      "type": "function"
    },
    {
      "inputs": [
        {
          "internalType": "address",
          "name": "_treasury",
          "type": "address"
        }
      ],
      "name": "setProtocolTreasury",
      "outputs": [],
      "stateMutability": "nonpayable",
      "type": "function"
    },
    {
      "inputs": [
        {
          "internalType": "address",
          "name": "to",
          "type": "address"
        }
      ],
      "name": "sweepETH",
      "outputs": [],
      "stateMutability": "nonpayable",
      "type": "function"
    },
    {
      "inputs": [
        {
          "internalType": "address",
          "name": "newOwner",
          "type": "address"
        }
      ],
      "name": "transferOwnership",
      "outputs": [],
      "stateMutability": "nonpayable",
      "type": "function"
    },
    {
      "inputs": [],
      "name": "unpause",
      "outputs": [],
      "stateMutability": "nonpayable",
      "type": "function"
    },
    {
      "stateMutability": "payable",
      "type": "receive"
    }
  ],
  "bytecode": "0x60e03461020357601f61129838819003918201601f19168301916001600160401b0383118484101761020757808492608094604052833981010312610203576100478161021b565b906100546020820161021b565b9061006d60606100666040840161021b565b920161021b565b9133156101f0575f8054336001600160a01b0319821681178355604051969290916001600160a01b0316907f8be0079c531659141344cd1fd0a4f28419497f9722a3daafe3b4186f6b6457e09080a360017f9b779b17422d0df92223018b32b4d1fa46e071723d6817e2486d003becc55f00556001600160a01b03169081156101e1576001600160a01b03169182156101e1576001600160a01b03169283156101e1576001600160a01b031680156101e157608082905260a083905260c0849052600180546001600160a01b0319169190911781555f91825260036020526040808320805460ff199081168417909155938352808320805485168317905593825283822080548416821790553082529290208054909116909117905561106890816102308239608051818181610181015281816103290152610acc015260a0518181816101c5015281816106a20152610b94015260c05181818161040c01528181610c8001528181610d8a0152610e850152f35b63e6c4247b60e01b5f5260045ffd5b631e4fbdf760e01b5f525f60045260245ffd5b5f80fd5b634e487b7160e01b5f52604160045260245ffd5b51906001600160a01b03821682036102035756fe6080604052600436101561001a575b3615610018575f80fd5b005b5f3560e01c806308507bf1146101495780630c5a61f8146101445780630d1cfcae1461013f5780631163b2b01461013a578063228c53c614610135578063260d711e146101305780633f4ba83a1461012b5780635c975abb1461012657806364e14bef14610121578063715018a61461011c578063803db96d146101175780638456cb59146101125780638da5cb5b1461010d578063927399a514610108578063ae71152814610103578063be378228146100fe578063dadde436146100f9578063e1a45218146100f45763f2fde38b0361000e576107d4565b6107b8565b610778565b61075d565b6106d1565b61068d565b610666565b610606565b6105de565b610587565b610504565b6104d6565b61046a565b61043b565b6103f7565b610358565b610314565b61028f565b3461023b57602036600319011261023b576040805163aa17272560e01b81526004803590820181905291816024816001600160a01b037f0000000000000000000000000000000000000000000000000000000000000000165afa908115610236575f9161024e575b50336001600160a01b039091160361023f577f00000000000000000000000000000000000000000000000000000000000000006001600160a01b0316803b1561023b5760405163a126d60160e01b815260048101839052905f908290602490829084905af180156102365761022257005b806102305f61001893610871565b8061030a565b6108c0565b5f80fd5b630e41dcbf60e21b5f5260045ffd5b610270915060403d604011610277575b6102688183610871565b810190610898565b505f6101b1565b503d61025e565b6001600160a01b0381160361023b57565b3461023b57602036600319011261023b576004356102ac8161027e565b6102b4610fef565b6001600160a01b031680156102fb57600180546001600160a01b031916821790557fb141872ee67913e1bc546464f29b6b07a65159d45c6af64fdecf8b4129157faf5f80a2005b63e6c4247b60e01b5f5260045ffd5b5f91031261023b57565b3461023b575f36600319011261023b576040517f00000000000000000000000000000000000000000000000000000000000000006001600160a01b03168152602090f35b3461023b57602036600319011261023b576004356103758161027e565b61037d610fef565b6001600160a01b0381169081156102fb57479081156103e8575f80808481945af16103a66108e7565b50156103d95760207fab31ddb82a9ca2de51c9befe9da7c6e815e12eac49ae58b8d9cb6b7a181cbc7191604051908152a2005b634033e4e360e01b5f5260045ffd5b636165515360e11b5f5260045ffd5b3461023b575f36600319011261023b576040517f00000000000000000000000000000000000000000000000000000000000000006001600160a01b03168152602090f35b3461023b57602036600319011261023b576004355f526002602052602060ff60405f2054166040519015158152f35b3461023b575f36600319011261023b57610482610fef565b5f5460ff8160a01c16156104c75760ff60a01b19165f556040513381527f5db9ee0a495bf2e6ff9c91a7834c1ba4fdd244a5e8aa4e537bd38aeae4b073aa90602090a1005b638dfc202b60e01b5f5260045ffd5b3461023b575f36600319011261023b57602060ff5f5460a01c166040519015158152f35b8015150361023b57565b3461023b57604036600319011261023b576004356105218161027e565b7f7958183a357c8ca890c06cfb33934efa4543050b98e2f08c61c9104a299a8c18602060243592610551846104fa565b610559610fef565b60018060a01b031692835f526003825260405f209015159060ff1981541660ff8316179055604051908152a2005b3461023b575f36600319011261023b5761059f610fef565b5f80546001600160a01b0319811682556001600160a01b03167f8be0079c531659141344cd1fd0a4f28419497f9722a3daafe3b4186f6b6457e08280a3005b3461023b575f36600319011261023b576001546040516001600160a01b039091168152602090f35b3461023b575f36600319011261023b5761061e610fef565b610626611015565b5f805460ff60a01b1916600160a01b1790556040513381527f62e78cea01bee320cd4e420270b5ea74000d11b0c9f74754ebdbfc544b05a25890602090a1005b3461023b575f36600319011261023b575f546040516001600160a01b039091168152602090f35b3461023b575f36600319011261023b576040517f00000000000000000000000000000000000000000000000000000000000000006001600160a01b03168152602090f35b60c036600319011261023b576004356024356106ec8161027e565b604435906064359067ffffffffffffffff821161023b573660238301121561023b57816004013567ffffffffffffffff811161023b57366024828501011161023b57610759946107479460843593602460a435960192610916565b60405190151581529081906020820190565b0390f35b3461023b575f36600319011261023b57602060405160648152f35b3461023b57602036600319011261023b576004356107958161027e565b60018060a01b03165f526003602052602060ff60405f2054166040519015158152f35b3461023b575f36600319011261023b5760206040516127108152f35b3461023b57602036600319011261023b576004356107f18161027e565b6107f9610fef565b6001600160a01b0316801561084a575f80546001600160a01b03198116831782556001600160a01b0316907f8be0079c531659141344cd1fd0a4f28419497f9722a3daafe3b4186f6b6457e09080a3005b631e4fbdf760e01b5f525f60045260245ffd5b634e487b7160e01b5f52604160045260245ffd5b90601f8019910116810190811067ffffffffffffffff82111761089357604052565b61085d565b919082604091031261023b57602082516108b18161027e565b9201516108bd816104fa565b90565b6040513d5f823e3d90fd5b67ffffffffffffffff811161089357601f01601f191660200190565b3d15610911573d906108f8826108cb565b916109066040519384610871565b82523d5f602084013e565b606090565b95949392919060027f9b779b17422d0df92223018b32b4d1fa46e071723d6817e2486d003becc55f0054146109a15761097a9660027f9b779b17422d0df92223018b32b4d1fa46e071723d6817e2486d003becc55f0055610975611015565b610a98565b9060017f9b779b17422d0df92223018b32b4d1fa46e071723d6817e2486d003becc55f0055565b633ee5aeb560e01b5f5260045ffd5b919060408382031261023b5782516109c7816104fa565b9260208101519067ffffffffffffffff821161023b570181601f8201121561023b578051906109f5826108cb565b92610a036040519485610871565b8284526020838301011161023b57815f9260208093018386015e8301015290565b91908203918211610a3157565b634e487b7160e01b5f52601160045260245ffd5b94939260209060609360a093600180861b03168852828801526080604088015280519182918260808a0152018388015e5f828288010152601f8019910116850101930152565b908092918237015f815290565b959492939091935a95843403610fe0576040805163aa17272560e01b8152600481018a905290816024816001600160a01b037f0000000000000000000000000000000000000000000000000000000000000000165afa908115610236575f905f92610fbe575b50336001600160a01b039091160361023f5715610faf576001600160a01b0384165f908152600360205260409020610b38905b5460ff1690565b610f9357875f5260205260405f2092610b5c610b31855f52600260205260405f2090565b610f7f5760405163362e322560e21b8152600481018990526001600160a01b03828116602483015260448201889052606482018790527f00000000000000000000000000000000000000000000000000000000000000001694905f81608481895afa918215610236575f915f93610f4e575b50610be4610bf1915f52600260205260405f2090565b805460ff19166001179055565b15610e6f57505f92858615159384610e5b575b925f928392610c3195610c1c60405180948193610a8b565b03925af196610c296108e7565b505a90610a24565b9515610d7a575080610d50575b50803b1561023b57604051600162332f0160e21b031981526004810186905260248101929092525f908290604490829084905af1801561023657610d3c575b507f00000000000000000000000000000000000000000000000000000000000000006001600160a01b031691823b1561023b5760405163aa086b9160e01b81526004810185905260248101829052925f908490604490829084905af1928315610236577f65dcc306339b0c9bf9865b8d2053e9f76161acad090b166df7bb5511a077205193610d28575b506040805192835260016020840152820152426060820152608090a2600190565b806102305f610d3693610871565b5f610d07565b806102305f610d4a93610871565b5f610c7d565b6001545f918291829182916001600160a01b03165af1610d6e6108e7565b50156103d9575f610c3e565b9492959391505060018060a01b037f00000000000000000000000000000000000000000000000000000000000000001691823b1561023b57604051633513aff760e11b81526004810185905260248101829052925f908490604490829084905af1928315610236577f65dcc306339b0c9bf9865b8d2053e9f76161acad090b166df7bb5511a077205193610e47575b50604080519283525f6020840152820152426060820152608090a2610e2d57505f90565b5f80808093335af1610e3d6108e7565b50156103d9575f90565b806102305f610e5593610871565b5f610e09565b612710606489020495508588039150610c04565b95945095915050610e8291505a90610a24565b927f00000000000000000000000000000000000000000000000000000000000000006001600160a01b0316803b1561023b57604051630da5187d60e31b81526004810187905260248101959095525f908590604490829084905af1908115610236577fb3db632de22c05a698d847be9101ce61e114dfa73897f73dd49d6efcdcb68beb94610f1e92610f3a575b50604051938493429285610a45565b0390a234610f2a575f90565b5f80808034335af1610e3d6108e7565b806102305f610f4893610871565b5f610f0f565b610bf1919350610be49250610f74903d805f833e610f6c8183610871565b8101906109b0565b929092939150610bce565b638c24228560e01b5f52600484905260245ffd5b636cb0d57f60e11b5f526001600160a01b03841660045260245ffd5b632437e77160e11b5f5260045ffd5b9050610fd9915060403d604011610277576102688183610871565b905f610afe565b63dd8e4af760e01b5f5260045ffd5b5f546001600160a01b0316330361100257565b63118cdaa760e01b5f523360045260245ffd5b60ff5f5460a01c1661102357565b63d93c066560e01b5f5260045ffdfea2646970667358221220f5ae7f352b4778d0bbb4d6a3d359e325828b4175845851013ec8a1dbe245ce2964736f6c634300081b0033",
  "linkReferences": {},
  "deployedLinkReferences": {}
}