{
  "_format": "hh-sol-artifact-1",
  "contractName": "FantasyModule",
  "sourceName": "contracts/modules/FantasyModule.sol",
  "abi": [
    {
      "inputs": [
        {
          "internalType": "address",
          "name": "_oracle",
          "type": "address"
        },
        {
          "internalType": "address",
          "name": "_franchiseRegistry",
          "type": "address"
        },
        {
          "internalType": "address",
          "name": "_protocolTreasury",
          "type": "address"
        }
      ],
      "stateMutability": "nonpayable",
      "type": "constructor"
    },
    {
      "inputs": [],
      "name": "AlreadyJoined",
      "type": "error"
    },
    {
      "inputs": [],
      "name": "CaptainNotInSquad",
      "type": "error"
    },
    {
      "inputs": [],
      "name": "ContestAlreadyLocked",
      "type": "error"
    },
    {
      "inputs": [
        {
          "internalType": "uint256",
          "name": "max",
          "type": "uint256"
        }
      ],
      "name": "ContestFull",
      "type": "error"
    },
    {
      "inputs": [],
      "name": "ContestNotActive",
      "type": "error"
    },
    {
      "inputs": [],
      "name": "ContestNotLocked",
      "type": "error"
    },
    {
      "inputs": [],
      "name": "DuplicatePlayer",
      "type": "error"
    },
    {
      "inputs": [],
      "name": "InsufficientParticipants",
      "type": "error"
    },
    {
      "inputs": [],
      "name": "NoParticipants",
      "type": "error"
    },
    {
      "inputs": [],
      "name": "NoPrizeToClaim",
      "type": "error"
    },
    {
      "inputs": [],
      "name": "NoSponsorPool",
      "type": "error"
    },
    {
      "inputs": [],
      "name": "NotContestWinner",
      "type": "error"
    },
    {
      "inputs": [],
      "name": "NotFranchiseAdmin",
      "type": "error"
    },
    {
      "inputs": [
        {
          "internalType": "uint256",
          "name": "provided",
          "type": "uint256"
        },
        {
          "internalType": "uint256",
          "name": "max",
          "type": "uint256"
        }
      ],
      "name": "OverCreditBudget",
      "type": "error"
    },
    {
      "inputs": [
        {
          "internalType": "address",
          "name": "owner",
          "type": "address"
        }
      ],
      "name": "OwnableInvalidOwner",
      "type": "error"
    },
    {
      "inputs": [
        {
          "internalType": "address",
          "name": "account",
          "type": "address"
        }
      ],
      "name": "OwnableUnauthorizedAccount",
      "type": "error"
    },
    {
      "inputs": [],
      "name": "ReentrancyGuardReentrantCall",
      "type": "error"
    },
    {
      "inputs": [],
      "name": "TransferFailed",
      "type": "error"
    },
    {
      "inputs": [],
      "name": "ViceCaptainNotInSquad",
      "type": "error"
    },
    {
      "inputs": [],
      "name": "ZeroAddress",
      "type": "error"
    },
    {
      "anonymous": false,
      "inputs": [
        {
          "indexed": true,
          "internalType": "uint256",
          "name": "contestId",
          "type": "uint256"
        },
        {
          "indexed": false,
          "internalType": "uint256",
          "name": "refundedPool",
          "type": "uint256"
        }
      ],
      "name": "ContestCancelled",
      "type": "event"
    },
    {
      "anonymous": false,
      "inputs": [
        {
          "indexed": true,
          "internalType": "uint256",
          "name": "contestId",
          "type": "uint256"
        },
        {
          "indexed": true,
          "internalType": "uint256",
          "name": "franchiseId",
          "type": "uint256"
        },
        {
          "indexed": false,
          "internalType": "uint256",
          "name": "matchId",
          "type": "uint256"
        },
        {
          "indexed": false,
          "internalType": "uint256",
          "name": "maxParticipants",
          "type": "uint256"
        }
      ],
      "name": "ContestCreated",
      "type": "event"
    },
    {
      "anonymous": false,
      "inputs": [
        {
          "indexed": true,
          "internalType": "uint256",
          "name": "contestId",
          "type": "uint256"
        },
        {
          "indexed": false,
          "internalType": "address",
          "name": "winner",
          "type": "address"
        },
        {
          "indexed": false,
          "internalType": "uint256",
          "name": "prize",
          "type": "uint256"
        }
      ],
      "name": "ContestFinalized",
      "type": "event"
    },
    {
      "anonymous": false,
      "inputs": [
        {
          "indexed": true,
          "internalType": "uint256",
          "name": "contestId",
          "type": "uint256"
        },
        {
          "indexed": true,
          "internalType": "address",
          "name": "sponsor",
          "type": "address"
        },
        {
          "indexed": false,
          "internalType": "uint256",
          "name": "amount",
          "type": "uint256"
        },
        {
          "indexed": false,
          "internalType": "uint256",
          "name": "totalPool",
          "type": "uint256"
        }
      ],
      "name": "ContestFunded",
      "type": "event"
    },
    {
      "anonymous": false,
      "inputs": [
        {
          "indexed": true,
          "internalType": "uint256",
          "name": "contestId",
          "type": "uint256"
        }
      ],
      "name": "ContestLocked",
      "type": "event"
    },
    {
      "anonymous": false,
      "inputs": [
        {
          "indexed": true,
          "internalType": "address",
          "name": "previousOwner",
          "type": "address"
        },
        {
          "indexed": true,
          "internalType": "address",
          "name": "newOwner",
          "type": "address"
        }
      ],
      "name": "OwnershipTransferred",
      "type": "event"
    },
    {
      "anonymous": false,
      "inputs": [
        {
          "indexed": true,
          "internalType": "uint256",
          "name": "contestId",
          "type": "uint256"
        },
        {
          "indexed": true,
          "internalType": "uint256",
          "name": "playerId",
          "type": "uint256"
        },
        {
          "indexed": false,
          "internalType": "uint256",
          "name": "points",
          "type": "uint256"
        }
      ],
      "name": "PlayerScoreUpdated",
      "type": "event"
    },
    {
      "anonymous": false,
      "inputs": [
        {
          "indexed": true,
          "internalType": "uint256",
          "name": "contestId",
          "type": "uint256"
        },
        {
          "indexed": true,
          "internalType": "address",
          "name": "winner",
          "type": "address"
        },
        {
          "indexed": false,
          "internalType": "uint256",
          "name": "amount",
          "type": "uint256"
        }
      ],
      "name": "PrizeClaimed",
      "type": "event"
    },
    {
      "anonymous": false,
      "inputs": [
        {
          "indexed": true,
          "internalType": "uint256",
          "name": "contestId",
          "type": "uint256"
        },
        {
          "indexed": true,
          "internalType": "address",
          "name": "owner",
          "type": "address"
        }
      ],
      "name": "SquadJoined",
      "type": "event"
    },
    {
      "inputs": [],
      "name": "BPS_DENOMINATOR",
      "outputs": [
        {
          "internalType": "uint256",
          "name": "",
          "type": "uint256"
        }
      ],
      "stateMutability": "view",
      "type": "function"
    },
    {
      "inputs": [],
      "name": "CAPTAIN_MULTIPLIER",
      "outputs": [
        {
          "internalType": "uint256",
          "name": "",
          "type": "uint256"
        }
      ],
      "stateMutability": "view",
      "type": "function"
    },
    {
      "inputs": [],
      "name": "MAX_CREDITS",
      "outputs": [
        {
          "internalType": "uint256",
          "name": "",
          "type": "uint256"
        }
      ],
      "stateMutability": "view",
      "type": "function"
    },
    {
      "inputs": [],
      "name": "PROTOCOL_FEE_BPS",
      "outputs": [
        {
          "internalType": "uint256",
          "name": "",
          "type": "uint256"
        }
      ],
      "stateMutability": "view",
      "type": "function"
    },
    {
      "inputs": [],
      "name": "SQUAD_SIZE",
      "outputs": [
        {
          "internalType": "uint256",
          "name": "",
          "type": "uint256"
        }
      ],
      "stateMutability": "view",
      "type": "function"
    },
    {
      "inputs": [],
      "name": "VICE_CAPTAIN_DENOMINATOR",
      "outputs": [
        {
          "internalType": "uint256",
          "name": "",
          "type": "uint256"
        }
      ],
      "stateMutability": "view",
      "type": "function"
    },
    {
      "inputs": [],
      "name": "VICE_CAPTAIN_NUMERATOR",
      "outputs": [
        {
          "internalType": "uint256",
          "name": "",
          "type": "uint256"
        }
      ],
      "stateMutability": "view",
      "type": "function"
    },
    {
      "inputs": [
        {
          "internalType": "uint256",
          "name": "contestId",
          "type": "uint256"
        }
      ],
      "name": "cancelContest",
      "outputs": [],
      "stateMutability": "nonpayable",
      "type": "function"
    },
    {
      "inputs": [
        {
          "internalType": "uint256",
          "name": "contestId",
          "type": "uint256"
        }
      ],
      "name": "claimPrize",
      "outputs": [],
      "stateMutability": "nonpayable",
      "type": "function"
    },
    {
      "inputs": [],
      "name": "contestCount",
      "outputs": [
        {
          "internalType": "uint256",
          "name": "",
          "type": "uint256"
        }
      ],
      "stateMutability": "view",
      "type": "function"
    },
    {
      "inputs": [
        {
          "internalType": "uint256",
          "name": "",
          "type": "uint256"
        }
      ],
      "name": "contestLocked",
      "outputs": [
        {
          "internalType": "bool",
          "name": "",
          "type": "bool"
        }
      ],
      "stateMutability": "view",
      "type": "function"
    },
    {
      "inputs": [
        {
          "internalType": "uint256",
          "name": "",
          "type": "uint256"
        },
        {
          "internalType": "uint256",
          "name": "",
          "type": "uint256"
        }
      ],
      "name": "contestParticipants",
      "outputs": [
        {
          "internalType": "address",
          "name": "",
          "type": "address"
        }
      ],
      "stateMutability": "view",
      "type": "function"
    },
    {
      "inputs": [
        {
          "internalType": "uint256",
          "name": "",
          "type": "uint256"
        }
      ],
      "name": "contestWinner",
      "outputs": [
        {
          "internalType": "address",
          "name": "",
          "type": "address"
        }
      ],
      "stateMutability": "view",
      "type": "function"
    },
    {
      "inputs": [
        {
          "internalType": "uint256",
          "name": "",
          "type": "uint256"
        }
      ],
      "name": "contests",
      "outputs": [
        {
          "internalType": "uint256",
          "name": "contestId",
          "type": "uint256"
        },
        {
          "internalType": "uint256",
          "name": "franchiseId",
          "type": "uint256"
        },
        {
          "internalType": "uint256",
          "name": "matchId",
          "type": "uint256"
        },
        {
          "internalType": "uint256",
          "name": "sponsorPool",
          "type": "uint256"
        },
        {
          "internalType": "uint256",
          "name": "maxParticipants",
          "type": "uint256"
        },
        {
          "internalType": "bool",
          "name": "active",
          "type": "bool"
        },
        {
          "internalType": "bool",
          "name": "finalized",
          "type": "bool"
        }
      ],
      "stateMutability": "view",
      "type": "function"
    },
    {
      "inputs": [
        {
          "internalType": "uint256",
          "name": "franchiseId",
          "type": "uint256"
        },
        {
          "internalType": "uint256",
          "name": "matchId",
          "type": "uint256"
        },
        {
          "internalType": "uint256",
          "name": "maxParticipants",
          "type": "uint256"
        }
      ],
      "name": "createContest",
      "outputs": [
        {
          "internalType": "uint256",
          "name": "",
          "type": "uint256"
        }
      ],
      "stateMutability": "nonpayable",
      "type": "function"
    },
    {
      "inputs": [
        {
          "internalType": "uint256",
          "name": "contestId",
          "type": "uint256"
        }
      ],
      "name": "finalizeContest",
      "outputs": [],
      "stateMutability": "nonpayable",
      "type": "function"
    },
    {
      "inputs": [],
      "name": "franchiseRegistry",
      "outputs": [
        {
          "internalType": "contract IFranchiseRegistry",
          "name": "",
          "type": "address"
        }
      ],
      "stateMutability": "view",
      "type": "function"
    },
    {
      "inputs": [
        {
          "internalType": "uint256",
          "name": "contestId",
          "type": "uint256"
        }
      ],
      "name": "fundContest",
      "outputs": [],
      "stateMutability": "payable",
      "type": "function"
    },
    {
      "inputs": [
        {
          "internalType": "uint256",
          "name": "contestId",
          "type": "uint256"
        }
      ],
      "name": "getContestParticipants",
      "outputs": [
        {
          "internalType": "address[]",
          "name": "participants",
          "type": "address[]"
        }
      ],
      "stateMutability": "view",
      "type": "function"
    },
    {
      "inputs": [
        {
          "internalType": "uint256",
          "name": "contestId",
          "type": "uint256"
        },
        {
          "internalType": "uint256",
          "name": "playerId",
          "type": "uint256"
        }
      ],
      "name": "getPlayerScore",
      "outputs": [
        {
          "internalType": "uint256",
          "name": "points",
          "type": "uint256"
        }
      ],
      "stateMutability": "view",
      "type": "function"
    },
    {
      "inputs": [
        {
          "internalType": "uint256",
          "name": "contestId",
          "type": "uint256"
        },
        {
          "internalType": "address",
          "name": "participant",
          "type": "address"
        }
      ],
      "name": "getSquad",
      "outputs": [
        {
          "components": [
            {
              "internalType": "address",
              "name": "owner",
              "type": "address"
            },
            {
              "internalType": "uint256",
              "name": "captainId",
              "type": "uint256"
            },
            {
              "internalType": "uint256",
              "name": "viceCaptainId",
              "type": "uint256"
            },
            {
              "internalType": "uint256",
              "name": "totalCredits",
              "type": "uint256"
            },
            {
              "internalType": "uint256",
              "name": "submittedAt",
              "type": "uint256"
            },
            {
              "internalType": "uint256",
              "name": "totalPoints",
              "type": "uint256"
            },
            {
              "internalType": "uint256[11]",
              "name": "playerIds",
              "type": "uint256[11]"
            }
          ],
          "internalType": "struct FantasyModule.Squad",
          "name": "squad",
          "type": "tuple"
        }
      ],
      "stateMutability": "view",
      "type": "function"
    },
    {
      "inputs": [
        {
          "internalType": "uint256",
          "name": "contestId",
          "type": "uint256"
        },
        {
          "internalType": "uint256[11]",
          "name": "playerIds",
          "type": "uint256[11]"
        },
        {
          "internalType": "uint256",
          "name": "captainId",
          "type": "uint256"
        },
        {
          "internalType": "uint256",
          "name": "viceCaptainId",
          "type": "uint256"
        },
        {
          "internalType": "uint256",
          "name": "totalCredits",
          "type": "uint256"
        }
      ],
      "name": "joinContest",
      "outputs": [],
      "stateMutability": "nonpayable",
      "type": "function"
    },
    {
      "inputs": [
        {
          "internalType": "uint256",
          "name": "contestId",
          "type": "uint256"
        }
      ],
      "name": "lockContest",
      "outputs": [],
      "stateMutability": "nonpayable",
      "type": "function"
    },
    {
      "inputs": [],
      "name": "oracle",
      "outputs": [
        {
          "internalType": "contract IMatchOracle",
          "name": "",
          "type": "address"
        }
      ],
      "stateMutability": "view",
      "type": "function"
    },
    {
      "inputs": [],
      "name": "owner",
      "outputs": [
        {
          "internalType": "address",
          "name": "",
          "type": "address"
        }
      ],
      "stateMutability": "view",
      "type": "function"
    },
    {
      "inputs": [
        {
          "internalType": "uint256",
          "name": "",
          "type": "uint256"
        }
      ],
      "name": "pendingPrize",
      "outputs": [
        {
          "internalType": "uint256",
          "name": "",
          "type": "uint256"
        }
      ],
      "stateMutability": "view",
      "type": "function"
    },
    {
      "inputs": [
        {
          "internalType": "uint256",
          "name": "",
          "type": "uint256"
        },
        {
          "internalType": "uint256",
          "name": "",
          "type": "uint256"
        }
      ],
      "name": "playerScores",
      "outputs": [
        {
          "internalType": "uint256",
          "name": "",
          "type": "uint256"
        }
      ],
      "stateMutability": "view",
      "type": "function"
    },
    {
      "inputs": [],
      "name": "protocolTreasury",
      "outputs": [
        {
          "internalType": "address",
          "name": "",
          "type": "address"
        }
      ],
      "stateMutability": "view",
      "type": "function"
    },
    {
      "inputs": [],
      "name": "renounceOwnership",
      "outputs": [],
      "stateMutability": "nonpayable",
      "type": "function"
    },
    {
      "inputs": [
        {
          "internalType": "uint256",
          "name": "",
          "type": "uint256"
        },
        {
          "internalType": "address",
          "name": "",
          "type": "address"
        }
      ],
      "name": "squads",
      "outputs": [
        {
          "internalType": "address",
          "name": "owner",
          "type": "address"
        },
        {
          "internalType": "uint256",
          "name": "captainId",
          "type": "uint256"
        },
        {
          "internalType": "uint256",
          "name": "viceCaptainId",
          "type": "uint256"
        },
        {
          "internalType": "uint256",
          "name": "totalCredits",
          "type": "uint256"
        },
        {
          "internalType": "uint256",
          "name": "submittedAt",
          "type": "uint256"
        },
        {
          "internalType": "uint256",
          "name": "totalPoints",
          "type": "uint256"
        }
      ],
      "stateMutability": "view",
      "type": "function"
    },
    {
      "inputs": [
        {
          "internalType": "address",
          "name": "newOwner",
          "type": "address"
        }
      ],
      "name": "transferOwnership",
      "outputs": [],
      "stateMutability": "nonpayable",
      "type": "function"
    },
    {
      "inputs": [
        {
          "internalType": "uint256",
          "name": "contestId",
          "type": "uint256"
        },
        {
          "internalType": "uint256",
          "name": "playerId",
          "type": "uint256"
        },
        {
          "internalType": "uint256",
          "name": "points",
          "type": "uint256"
        }
      ],
      "name": "updatePlayerScore",
      "outputs": [],
      "stateMutability": "nonpayable",
      "type": "function"
    }
  ],
  "bytecode": "0x60e03461017057601f61190b38819003918201601f19168301916001600160401b03831184841017610174578084926060946040528339810103126101705761004781610188565b90610060604061005960208401610188565b9201610188565b90331561015d575f8054336001600160a01b0319821681178355604051959290916001600160a01b0316907f8be0079c531659141344cd1fd0a4f28419497f9722a3daafe3b4186f6b6457e09080a360017f9b779b17422d0df92223018b32b4d1fa46e071723d6817e2486d003becc55f00556001600160a01b031690811561014e576001600160a01b031690811561014e576001600160a01b0383161561014e5760805260a05260c05261176e908161019d823960805181610e96015260a051818181610268015281816102fc015281816104610152610d1f015260c051818181610cc401526114530152f35b63d92e233d60e01b5f5260045ffd5b631e4fbdf760e01b5f525f60045260245ffd5b5f80fd5b634e487b7160e01b5f52604160045260245ffd5b51906001600160a01b03821682036101705756fe6080806040526004361015610012575f80fd5b5f3560e01c908163132ff514146115685750806319c0278c146111ba5780631ef72d3e146115365780633a8ef03b146111bf5780634258eb5e146111ba57806350d89e9314610b4657806353985e041461110257806365cba3d4146110d8578063715018a61461108157806373446af5146110395780637a63e36c14610ec55780637dc0d1d014610e815780637e95eed414610cf3578063803db96d14610caf57806388cb2f7814610c2c5780638d4fdb3b14610c0f5780638da5cb5b14610be85780639d7ed73814610b75578063a9656e6f14610b46578063b6bfbe1614610a6d578063b9290e1914610a52578063be37822814610a37578063c24e868314610700578063d0012a7614610650578063d709815414610582578063dc4da68b14610406578063dfedd789146102b3578063e1a4521814610297578063e82e143714610253578063f2fde38b146101ca578063f61574ad1461019b5763f9bb1a0b1461017c575f80fd5b34610197575f36600319011261019757602060405160648152f35b5f80fd5b34610197576020366003190112610197576004355f526005602052602060ff60405f2054166040519015158152f35b34610197576020366003190112610197576004356001600160a01b03811690819003610197576101f86116ba565b8015610240575f80546001600160a01b03198116831782556001600160a01b0316907f8be0079c531659141344cd1fd0a4f28419497f9722a3daafe3b4186f6b6457e09080a3005b631e4fbdf760e01b5f525f60045260245ffd5b34610197575f366003190112610197576040517f00000000000000000000000000000000000000000000000000000000000000006001600160a01b03168152602090f35b34610197575f3660031901126101975760206040516127108152f35b3461019757602036600319011261019757600435805f52600160205260405f2060ff600582015416156103f75760408051631bfa094160e31b81523360048201529190826024817f00000000000000000000000000000000000000000000000000000000000000006001600160a01b03165afa9081156103ec575f925f926103b8575b50826103aa575b50501580610396575b61038757805f52600560205260405f20600160ff198254161790557fbe083556bce0dac8feb7e6a9ce9ff1acc9df29c6ec47a5638a5fe9da3a7f007f5f80a2005b63ba74eebb60e01b5f5260045ffd5b505f546001600160a01b0316331415610346565b60010154149050828061033d565b9092506103dd915060403d6040116103e5575b6103d58183611613565b810190611688565b909184610336565b503d6103cb565b6040513d5f823e3d90fd5b630222699160e11b5f5260045ffd5b34610197576020366003190112610197576004356104226116e0565b805f52600160205260405f20600581019081549160ff8316158015610575575b6103f75760408051631bfa094160e31b815233600482015290816024817f00000000000000000000000000000000000000000000000000000000000000006001600160a01b03165afa80156103ec575f915f91610554575b5081610546575b501580610532575b6103875761010060039361ffff19161790550180549081610504575b5060207f1c6c11e134c61b80e07671eec8a0bf2d02e70f63cee8bdc4d53f973b9fb90cca91604051908152a260015f5160206117195f395f51905f5255005b5f90555f80808084335af1610517611649565b501561052357826104c5565b6312171d8360e31b5f5260045ffd5b505f546001600160a01b03163314156104a9565b9050600183015414856104a1565b905061056f915060403d6040116103e5576103d58183611613565b8661049a565b5060ff8360081c16610442565b346101975760203660031901126101975760043561059e6116e0565b5f818152600660205260409020546001600160a01b0316330361064157805f52600760205260405f205490811561063257805f5260076020525f60408120555f80808085335af16105ed611649565b5015610523576040519182527f4aa95f981a8337cb337de335b965507da0879c3b49f799d20058e913f5ad2c2660203393a360015f5160206117195f395f51905f5255005b630fe160f360e11b5f5260045ffd5b6314447fcf60e11b5f5260045ffd5b346101975761065e366115dd565b6106699291926116ba565b815f526001602052600560405f20015460ff8116159081156106f2575b506103f757815f52600560205260ff60405f205416156106e35760207f78c97eed98c56e8a5c210a99d896b30f0a42af2701efe523e691d40f3c5306f991835f526004825260405f20855f5282528060405f2055604051908152a3005b631683fd8760e11b5f5260045ffd5b60ff915060081c1684610686565b34610197576101e036600319011261019757600435366101841161019757610184356101a435906101c43591835f52600160205260405f20600581015460ff811615908115610a29575b506103f757845f52600560205260ff60405f2054166103f75760648411610a11575f8581526002602090815260408083203384529091529020546001600160a01b0316610a035760040154801515806109ed575b6109db57505f80805b600b8110610946575015610937571561092857604051926107c7846115f7565b338452602084019283526040840191825260608401908152608084019042825260a08501925f8452610160946108006040519687611613565b6024865b610184821061091857505060c087019586525f8881526002602081815260408084203385529091528220985189546001600160a01b0319166001600160a01b0391909116178955915160018901559151908701559051600386015590516004850155905160058401559051905b600b81106109015783805f52600360205260405f208054680100000000000000008110156108ed576108a8916001820181556115b2565b81546001600160a01b0360039290921b91821b1916339182901b17909155907fa6b7b98661452d3b3151f21ddfb61ffaf26903e7e3e7533b16a1559a9ccc195a5f80a3005b634e487b7160e01b5f52604160045260245ffd5b600190602083519301926006828601015501610871565b8135815260209182019101610804565b63eaef43a360e01b5f5260045ffd5b63492287f160e11b5f5260045ffd5b84610950826116a8565b35146109d2575b83610961826116a8565b35146109c9575b60018101908181116109b557815b600b81106109855750506107a7565b61098e826116a8565b35610998826116a8565b35146109a657600101610976565b63e6f2639b60e01b5f5260045ffd5b634e487b7160e01b5f52601160045260245ffd5b60019250610968565b60019150610957565b6301efacdf60e01b5f5260045260245ffd5b50845f5260036020528060405f2054101561079e565b621d934160e11b5f5260045ffd5b836329b5455360e01b5f52600452606460245260445ffd5b60ff915060081c168661074a565b34610197575f36600319011261019757602060405160c88152f35b34610197575f36600319011261019757602060405160038152f35b602036600319011261019757600435610a846116e0565b805f52600160205260405f20600581015460ff811615908115610b38575b506103f757815f52600560205260ff60405f205416610b29573415610b1a57600301908154913483018093116109b5578290556040519134835260208301527f8280ff1879c6ac2c53ba231886d678c2ea3004dacf8236df357e456aedbaf47b60403393a360015f5160206117195f395f51905f5255005b6368074a6360e01b5f5260045ffd5b6322e2a7ab60e11b5f5260045ffd5b60ff915060081c1683610aa2565b3461019757610b543661159c565b905f52600460205260405f20905f52602052602060405f2054604051908152f35b34610197576020366003190112610197576004355f52600160205260e060405f2060ff815491600181015490600281015460038201549060056004840154930154936040519687526020870152604086015260608501526080840152818116151560a084015260081c16151560c0820152f35b34610197575f366003190112610197575f546040516001600160a01b039091168152602090f35b34610197575f366003190112610197576020600854604051908152f35b3461019757604036600319011261019757610c456115c7565b6004355f52600260205260405f209060018060a01b03165f5260205260c060405f2060018060a01b038154169060018101549060028101546003820154906005600484015493015493604051958652602086015260408501526060840152608083015260a0820152f35b34610197575f366003190112610197576040517f00000000000000000000000000000000000000000000000000000000000000006001600160a01b03168152602090f35b3461019757610d01366115dd565b60408051631bfa094160e31b815233600482015291939190816024817f00000000000000000000000000000000000000000000000000000000000000006001600160a01b03165afa80156103ec5782905f925f91610e5c575b5082610e52575b50501580610e3e575b610387576020927f66382a96bd00bae289fee70400193924e6b2dc4e94b325c2e55192be68338b166040600160085401948593846008558251610dac816115f7565b858152888101878152600585830192858452606081015f8152608082019086825260a08301956001875260c08401955f87528c5f528f600190528a5f2094518555516001850155516002840155516003830155516004820155019151151560ff8019845416911617825551151561ff0082549160081b169061ff001916179055825191825287820152a3604051908152f35b505f546001600160a01b0316331415610d6a565b1490508185610d61565b9050610e7891925060403d6040116103e5576103d58183611613565b91909186610d5a565b34610197575f366003190112610197576040517f00000000000000000000000000000000000000000000000000000000000000006001600160a01b03168152602090f35b3461019757604036600319011261019757610ede6115c7565b60405190610eeb826115f7565b5f82525f60208301525f60408301525f60608301525f60808301525f60a08301526101609160c060405191610f208584611613565b8436843701526004355f52600260205260405f209060018060a01b03165f5260205260405f2060405191610f53836115f7565b81546001600160a01b0316835260018201546020840190815260028301546040808601918252600385015460608701908152600486015460808801908152600587015460a08901908152925196929590949193926006015f885b600b821061102357505050610fc29087611613565b60c087019586526040519660018060a01b0390511687525160208701525160408601525160608501525160808401525160a08301525160c082015f905b600b821061100d5761022084f35b6020806001928551815201930191019091610fff565b6001602081928554815201930191019091610fad565b34610197576110473661159c565b905f52600360205260405f20805482101561019757602091611068916115b2565b905460405160039290921b1c6001600160a01b03168152f35b34610197575f366003190112610197576110996116ba565b5f80546001600160a01b0319811682556001600160a01b03167f8be0079c531659141344cd1fd0a4f28419497f9722a3daafe3b4186f6b6457e08280a3005b34610197576020366003190112610197576004355f526007602052602060405f2054604051908152f35b34610197576020366003190112610197576004355f52600360205260405f20604051806020835491828152019081935f5260205f20905f5b81811061119b5750505081611150910382611613565b604051918291602083019060208452518091526040830191905f5b818110611179575050500390f35b82516001600160a01b031684528594506020938401939092019160010161116b565b82546001600160a01b031684526020909301926001928301920161113a565b611581565b34610197576020366003190112610197576004356111db6116ba565b6111e36116e0565b805f52600160205260405f206005810191825460ff811615908115611528575b506103f757805f52600360205260405f209160405190818260208654928381520180965f5260205f20925f5b81811061150657505061124492500383611613565b8151156114f757600301548015908115948580966114ec575b6114dd578351156114c9575190935f93869392889186916001600160a01b03165b815183101561139b575f8581526002602052604090206001600160a01b036112a68585611635565b511660018060a01b03165f5260205260405f20935f9160018601549a6002870154985f945b600b86101561134f578d908b6006888c0101548c5f52600460205260405f20815f5260205260405f20549381145f146113215750508160011b91808304600214901517156109b557600191905b019501946112cb565b14611330575b90600191611318565b6003820291808304600314901517156109b557600191821c9150611327565b939c5095935095829197999498506005015588811161137a575b50600101979297919490959361127e565b9750935060016001600160a01b036113928688611635565b51169490611369565b835461ffff19166101001784558490898789156114885760c882029082820460c81417156109b5576127109004809103908061144c575b505f83815260066020908152604080832080546001600160a01b0319166001600160a01b039096169586179055600782529182902083905581519384528301919091527fced5af5e3a934f7cd998e732f526dd920a0bdde103986b463428c4fbbece2b7b91a25b60015f5160206117195f395f51905f5255005b5f808080937f00000000000000000000000000000000000000000000000000000000000000005af161147c611649565b501561052357836113d2565b5050604080516001600160a01b0390921682525f60208301527fced5af5e3a934f7cd998e732f526dd920a0bdde103986b463428c4fbbece2b7b91a2611439565b634e487b7160e01b5f52603260045260245ffd5b637e439aed60e01b5f5260045ffd5b50600284511061125d565b6308b6a47360e41b5f5260045ffd5b84546001600160a01b031683526001948501948794506020909301920161122f565b60ff915060081c1684611203565b34610197576020366003190112610197576004355f526006602052602060018060a01b0360405f205416604051908152f35b34610197575f3660031901126101975780600b60209252f35b34610197575f36600319011261019757602060405160028152f35b6040906003190112610197576004359060243590565b80548210156114c9575f5260205f2001905f90565b602435906001600160a01b038216820361019757565b606090600319011261019757600435906024359060443590565b60e0810190811067ffffffffffffffff8211176108ed57604052565b90601f8019910116810190811067ffffffffffffffff8211176108ed57604052565b80518210156114c95760209160051b010190565b3d15611683573d9067ffffffffffffffff82116108ed5760405191611678601f8201601f191660200184611613565b82523d5f602084013e565b606090565b919082604091031261019757815180151581036101975760209092015190565b600b8110156114c95760051b60240190565b5f546001600160a01b031633036116cd57565b63118cdaa760e01b5f523360045260245ffd5b60025f5160206117195f395f51905f5254146117095760025f5160206117195f395f51905f5255565b633ee5aeb560e01b5f5260045ffdfe9b779b17422d0df92223018b32b4d1fa46e071723d6817e2486d003becc55f00a2646970667358221220487a0e7820cc997d26cc4b52cfd8eceba2858715e8841682970f4aa3f0fac3b064736f6c634300081b0033",
  "linkReferences": {},
  "deployedLinkReferences": {}
}