{
  "_format": "hh-sol-artifact-1",
  "contractName": "FantasyModule",
  "sourceName": "contracts/modules/FantasyModule.sol",
  "abi": [
    {
      "inputs": [
        {
          "internalType": "address",
          "name": "_oracle",
          "type": "address"
        },
        {
          "internalType": "address",
          "name": "_franchiseRegistry",
          "type": "address"
        },
        {
          "internalType": "address",
          "name": "_protocolTreasury",
          "type": "address"
        }
      ],
      "stateMutability": "nonpayable",
      "type": "constructor"
    },
    {
      "inputs": [],
      "name": "AlreadyJoined",
      "type": "error"
    },
    {
      "inputs": [],
      "name": "CaptainNotInSquad",
      "type": "error"
    },
    {
      "inputs": [],
      "name": "ContestAlreadyLocked",
      "type": "error"
    },
    {
      "inputs": [
        {
          "internalType": "uint256",
          "name": "max",
          "type": "uint256"
        }
      ],
      "name": "ContestFull",
      "type": "error"
    },
    {
      "inputs": [],
      "name": "ContestNotActive",
      "type": "error"
    },
    {
      "inputs": [],
      "name": "ContestNotLocked",
      "type": "error"
    },
    {
      "inputs": [],
      "name": "DuplicatePlayer",
      "type": "error"
    },
    {
      "inputs": [],
      "name": "EnforcedPause",
      "type": "error"
    },
    {
      "inputs": [],
      "name": "ExpectedPause",
      "type": "error"
    },
    {
      "inputs": [],
      "name": "InsufficientParticipants",
      "type": "error"
    },
    {
      "inputs": [],
      "name": "NoParticipants",
      "type": "error"
    },
    {
      "inputs": [],
      "name": "NoPrizeToClaim",
      "type": "error"
    },
    {
      "inputs": [],
      "name": "NoSponsorPool",
      "type": "error"
    },
    {
      "inputs": [],
      "name": "NotContestWinner",
      "type": "error"
    },
    {
      "inputs": [],
      "name": "NotFranchiseAdmin",
      "type": "error"
    },
    {
      "inputs": [
        {
          "internalType": "uint256",
          "name": "provided",
          "type": "uint256"
        },
        {
          "internalType": "uint256",
          "name": "max",
          "type": "uint256"
        }
      ],
      "name": "OverCreditBudget",
      "type": "error"
    },
    {
      "inputs": [
        {
          "internalType": "address",
          "name": "owner",
          "type": "address"
        }
      ],
      "name": "OwnableInvalidOwner",
      "type": "error"
    },
    {
      "inputs": [
        {
          "internalType": "address",
          "name": "account",
          "type": "address"
        }
      ],
      "name": "OwnableUnauthorizedAccount",
      "type": "error"
    },
    {
      "inputs": [],
      "name": "ReentrancyGuardReentrantCall",
      "type": "error"
    },
    {
      "inputs": [],
      "name": "TransferFailed",
      "type": "error"
    },
    {
      "inputs": [],
      "name": "ViceCaptainNotInSquad",
      "type": "error"
    },
    {
      "inputs": [],
      "name": "ZeroAddress",
      "type": "error"
    },
    {
      "inputs": [],
      "name": "ZeroPlayerId",
      "type": "error"
    },
    {
      "anonymous": false,
      "inputs": [
        {
          "indexed": true,
          "internalType": "uint256",
          "name": "contestId",
          "type": "uint256"
        },
        {
          "indexed": false,
          "internalType": "uint256",
          "name": "refundedPool",
          "type": "uint256"
        }
      ],
      "name": "ContestCancelled",
      "type": "event"
    },
    {
      "anonymous": false,
      "inputs": [
        {
          "indexed": true,
          "internalType": "uint256",
          "name": "contestId",
          "type": "uint256"
        },
        {
          "indexed": true,
          "internalType": "uint256",
          "name": "franchiseId",
          "type": "uint256"
        },
        {
          "indexed": false,
          "internalType": "uint256",
          "name": "matchId",
          "type": "uint256"
        },
        {
          "indexed": false,
          "internalType": "uint256",
          "name": "maxParticipants",
          "type": "uint256"
        }
      ],
      "name": "ContestCreated",
      "type": "event"
    },
    {
      "anonymous": false,
      "inputs": [
        {
          "indexed": true,
          "internalType": "uint256",
          "name": "contestId",
          "type": "uint256"
        },
        {
          "indexed": true,
          "internalType": "address",
          "name": "winner",
          "type": "address"
        },
        {
          "indexed": false,
          "internalType": "uint256",
          "name": "prize",
          "type": "uint256"
        }
      ],
      "name": "ContestFinalized",
      "type": "event"
    },
    {
      "anonymous": false,
      "inputs": [
        {
          "indexed": true,
          "internalType": "uint256",
          "name": "contestId",
          "type": "uint256"
        },
        {
          "indexed": true,
          "internalType": "address",
          "name": "sponsor",
          "type": "address"
        },
        {
          "indexed": false,
          "internalType": "uint256",
          "name": "amount",
          "type": "uint256"
        },
        {
          "indexed": false,
          "internalType": "uint256",
          "name": "totalPool",
          "type": "uint256"
        }
      ],
      "name": "ContestFunded",
      "type": "event"
    },
    {
      "anonymous": false,
      "inputs": [
        {
          "indexed": true,
          "internalType": "uint256",
          "name": "contestId",
          "type": "uint256"
        }
      ],
      "name": "ContestLocked",
      "type": "event"
    },
    {
      "anonymous": false,
      "inputs": [
        {
          "indexed": true,
          "internalType": "address",
          "name": "previousOwner",
          "type": "address"
        },
        {
          "indexed": true,
          "internalType": "address",
          "name": "newOwner",
          "type": "address"
        }
      ],
      "name": "OwnershipTransferred",
      "type": "event"
    },
    {
      "anonymous": false,
      "inputs": [
        {
          "indexed": false,
          "internalType": "address",
          "name": "account",
          "type": "address"
        }
      ],
      "name": "Paused",
      "type": "event"
    },
    {
      "anonymous": false,
      "inputs": [
        {
          "indexed": true,
          "internalType": "uint256",
          "name": "contestId",
          "type": "uint256"
        },
        {
          "indexed": true,
          "internalType": "uint256",
          "name": "playerId",
          "type": "uint256"
        },
        {
          "indexed": false,
          "internalType": "uint256",
          "name": "points",
          "type": "uint256"
        }
      ],
      "name": "PlayerScoreUpdated",
      "type": "event"
    },
    {
      "anonymous": false,
      "inputs": [
        {
          "indexed": true,
          "internalType": "uint256",
          "name": "contestId",
          "type": "uint256"
        },
        {
          "indexed": true,
          "internalType": "address",
          "name": "winner",
          "type": "address"
        },
        {
          "indexed": false,
          "internalType": "uint256",
          "name": "amount",
          "type": "uint256"
        }
      ],
      "name": "PrizeClaimed",
      "type": "event"
    },
    {
      "anonymous": false,
      "inputs": [
        {
          "indexed": true,
          "internalType": "uint256",
          "name": "contestId",
          "type": "uint256"
        },
        {
          "indexed": true,
          "internalType": "address",
          "name": "owner",
          "type": "address"
        }
      ],
      "name": "SquadJoined",
      "type": "event"
    },
    {
      "anonymous": false,
      "inputs": [
        {
          "indexed": false,
          "internalType": "address",
          "name": "account",
          "type": "address"
        }
      ],
      "name": "Unpaused",
      "type": "event"
    },
    {
      "inputs": [],
      "name": "ABSOLUTE_MAX_PARTICIPANTS",
      "outputs": [
        {
          "internalType": "uint256",
          "name": "",
          "type": "uint256"
        }
      ],
      "stateMutability": "view",
      "type": "function"
    },
    {
      "inputs": [],
      "name": "BPS_DENOMINATOR",
      "outputs": [
        {
          "internalType": "uint256",
          "name": "",
          "type": "uint256"
        }
      ],
      "stateMutability": "view",
      "type": "function"
    },
    {
      "inputs": [],
      "name": "CAPTAIN_MULTIPLIER",
      "outputs": [
        {
          "internalType": "uint256",
          "name": "",
          "type": "uint256"
        }
      ],
      "stateMutability": "view",
      "type": "function"
    },
    {
      "inputs": [],
      "name": "MAX_CREDITS",
      "outputs": [
        {
          "internalType": "uint256",
          "name": "",
          "type": "uint256"
        }
      ],
      "stateMutability": "view",
      "type": "function"
    },
    {
      "inputs": [],
      "name": "PROTOCOL_FEE_BPS",
      "outputs": [
        {
          "internalType": "uint256",
          "name": "",
          "type": "uint256"
        }
      ],
      "stateMutability": "view",
      "type": "function"
    },
    {
      "inputs": [],
      "name": "SQUAD_SIZE",
      "outputs": [
        {
          "internalType": "uint256",
          "name": "",
          "type": "uint256"
        }
      ],
      "stateMutability": "view",
      "type": "function"
    },
    {
      "inputs": [],
      "name": "VICE_CAPTAIN_DENOMINATOR",
      "outputs": [
        {
          "internalType": "uint256",
          "name": "",
          "type": "uint256"
        }
      ],
      "stateMutability": "view",
      "type": "function"
    },
    {
      "inputs": [],
      "name": "VICE_CAPTAIN_NUMERATOR",
      "outputs": [
        {
          "internalType": "uint256",
          "name": "",
          "type": "uint256"
        }
      ],
      "stateMutability": "view",
      "type": "function"
    },
    {
      "inputs": [
        {
          "internalType": "uint256",
          "name": "contestId",
          "type": "uint256"
        }
      ],
      "name": "cancelContest",
      "outputs": [],
      "stateMutability": "nonpayable",
      "type": "function"
    },
    {
      "inputs": [
        {
          "internalType": "uint256",
          "name": "contestId",
          "type": "uint256"
        }
      ],
      "name": "claimPrize",
      "outputs": [],
      "stateMutability": "nonpayable",
      "type": "function"
    },
    {
      "inputs": [],
      "name": "contestCount",
      "outputs": [
        {
          "internalType": "uint256",
          "name": "",
          "type": "uint256"
        }
      ],
      "stateMutability": "view",
      "type": "function"
    },
    {
      "inputs": [
        {
          "internalType": "uint256",
          "name": "",
          "type": "uint256"
        }
      ],
      "name": "contestLocked",
      "outputs": [
        {
          "internalType": "bool",
          "name": "",
          "type": "bool"
        }
      ],
      "stateMutability": "view",
      "type": "function"
    },
    {
      "inputs": [
        {
          "internalType": "uint256",
          "name": "",
          "type": "uint256"
        },
        {
          "internalType": "uint256",
          "name": "",
          "type": "uint256"
        }
      ],
      "name": "contestParticipants",
      "outputs": [
        {
          "internalType": "address",
          "name": "",
          "type": "address"
        }
      ],
      "stateMutability": "view",
      "type": "function"
    },
    {
      "inputs": [
        {
          "internalType": "uint256",
          "name": "",
          "type": "uint256"
        }
      ],
      "name": "contestWinner",
      "outputs": [
        {
          "internalType": "address",
          "name": "",
          "type": "address"
        }
      ],
      "stateMutability": "view",
      "type": "function"
    },
    {
      "inputs": [
        {
          "internalType": "uint256",
          "name": "",
          "type": "uint256"
        }
      ],
      "name": "contests",
      "outputs": [
        {
          "internalType": "uint256",
          "name": "contestId",
          "type": "uint256"
        },
        {
          "internalType": "uint256",
          "name": "franchiseId",
          "type": "uint256"
        },
        {
          "internalType": "uint256",
          "name": "matchId",
          "type": "uint256"
        },
        {
          "internalType": "uint256",
          "name": "sponsorPool",
          "type": "uint256"
        },
        {
          "internalType": "uint256",
          "name": "maxParticipants",
          "type": "uint256"
        },
        {
          "internalType": "bool",
          "name": "active",
          "type": "bool"
        },
        {
          "internalType": "bool",
          "name": "finalized",
          "type": "bool"
        }
      ],
      "stateMutability": "view",
      "type": "function"
    },
    {
      "inputs": [
        {
          "internalType": "uint256",
          "name": "franchiseId",
          "type": "uint256"
        },
        {
          "internalType": "uint256",
          "name": "matchId",
          "type": "uint256"
        },
        {
          "internalType": "uint256",
          "name": "maxParticipants",
          "type": "uint256"
        }
      ],
      "name": "createContest",
      "outputs": [
        {
          "internalType": "uint256",
          "name": "",
          "type": "uint256"
        }
      ],
      "stateMutability": "nonpayable",
      "type": "function"
    },
    {
      "inputs": [
        {
          "internalType": "uint256",
          "name": "contestId",
          "type": "uint256"
        }
      ],
      "name": "emergencyWithdraw",
      "outputs": [],
      "stateMutability": "nonpayable",
      "type": "function"
    },
    {
      "inputs": [
        {
          "internalType": "uint256",
          "name": "contestId",
          "type": "uint256"
        }
      ],
      "name": "finalizeContest",
      "outputs": [],
      "stateMutability": "nonpayable",
      "type": "function"
    },
    {
      "inputs": [],
      "name": "franchiseRegistry",
      "outputs": [
        {
          "internalType": "contract IFranchiseRegistry",
          "name": "",
          "type": "address"
        }
      ],
      "stateMutability": "view",
      "type": "function"
    },
    {
      "inputs": [
        {
          "internalType": "uint256",
          "name": "contestId",
          "type": "uint256"
        }
      ],
      "name": "fundContest",
      "outputs": [],
      "stateMutability": "payable",
      "type": "function"
    },
    {
      "inputs": [
        {
          "internalType": "uint256",
          "name": "contestId",
          "type": "uint256"
        }
      ],
      "name": "getContestParticipants",
      "outputs": [
        {
          "internalType": "address[]",
          "name": "participants",
          "type": "address[]"
        }
      ],
      "stateMutability": "view",
      "type": "function"
    },
    {
      "inputs": [
        {
          "internalType": "uint256",
          "name": "contestId",
          "type": "uint256"
        },
        {
          "internalType": "uint256",
          "name": "playerId",
          "type": "uint256"
        }
      ],
      "name": "getPlayerScore",
      "outputs": [
        {
          "internalType": "uint256",
          "name": "points",
          "type": "uint256"
        }
      ],
      "stateMutability": "view",
      "type": "function"
    },
    {
      "inputs": [
        {
          "internalType": "uint256",
          "name": "contestId",
          "type": "uint256"
        },
        {
          "internalType": "address",
          "name": "participant",
          "type": "address"
        }
      ],
      "name": "getSquad",
      "outputs": [
        {
          "components": [
            {
              "internalType": "address",
              "name": "owner",
              "type": "address"
            },
            {
              "internalType": "uint256",
              "name": "captainId",
              "type": "uint256"
            },
            {
              "internalType": "uint256",
              "name": "viceCaptainId",
              "type": "uint256"
            },
            {
              "internalType": "uint256",
              "name": "totalCredits",
              "type": "uint256"
            },
            {
              "internalType": "uint256",
              "name": "submittedAt",
              "type": "uint256"
            },
            {
              "internalType": "uint256",
              "name": "totalPoints",
              "type": "uint256"
            },
            {
              "internalType": "uint256[11]",
              "name": "playerIds",
              "type": "uint256[11]"
            }
          ],
          "internalType": "struct FantasyModule.Squad",
          "name": "squad",
          "type": "tuple"
        }
      ],
      "stateMutability": "view",
      "type": "function"
    },
    {
      "inputs": [
        {
          "internalType": "uint256",
          "name": "contestId",
          "type": "uint256"
        },
        {
          "internalType": "uint256[11]",
          "name": "playerIds",
          "type": "uint256[11]"
        },
        {
          "internalType": "uint256",
          "name": "captainId",
          "type": "uint256"
        },
        {
          "internalType": "uint256",
          "name": "viceCaptainId",
          "type": "uint256"
        },
        {
          "internalType": "uint256",
          "name": "totalCredits",
          "type": "uint256"
        }
      ],
      "name": "joinContest",
      "outputs": [],
      "stateMutability": "nonpayable",
      "type": "function"
    },
    {
      "inputs": [
        {
          "internalType": "uint256",
          "name": "contestId",
          "type": "uint256"
        }
      ],
      "name": "lockContest",
      "outputs": [],
      "stateMutability": "nonpayable",
      "type": "function"
    },
    {
      "inputs": [],
      "name": "oracle",
      "outputs": [
        {
          "internalType": "contract IMatchOracle",
          "name": "",
          "type": "address"
        }
      ],
      "stateMutability": "view",
      "type": "function"
    },
    {
      "inputs": [],
      "name": "owner",
      "outputs": [
        {
          "internalType": "address",
          "name": "",
          "type": "address"
        }
      ],
      "stateMutability": "view",
      "type": "function"
    },
    {
      "inputs": [],
      "name": "pause",
      "outputs": [],
      "stateMutability": "nonpayable",
      "type": "function"
    },
    {
      "inputs": [],
      "name": "paused",
      "outputs": [
        {
          "internalType": "bool",
          "name": "",
          "type": "bool"
        }
      ],
      "stateMutability": "view",
      "type": "function"
    },
    {
      "inputs": [
        {
          "internalType": "uint256",
          "name": "",
          "type": "uint256"
        }
      ],
      "name": "pendingPrize",
      "outputs": [
        {
          "internalType": "uint256",
          "name": "",
          "type": "uint256"
        }
      ],
      "stateMutability": "view",
      "type": "function"
    },
    {
      "inputs": [
        {
          "internalType": "uint256",
          "name": "",
          "type": "uint256"
        },
        {
          "internalType": "uint256",
          "name": "",
          "type": "uint256"
        }
      ],
      "name": "playerScores",
      "outputs": [
        {
          "internalType": "uint256",
          "name": "",
          "type": "uint256"
        }
      ],
      "stateMutability": "view",
      "type": "function"
    },
    {
      "inputs": [],
      "name": "protocolTreasury",
      "outputs": [
        {
          "internalType": "address",
          "name": "",
          "type": "address"
        }
      ],
      "stateMutability": "view",
      "type": "function"
    },
    {
      "inputs": [],
      "name": "renounceOwnership",
      "outputs": [],
      "stateMutability": "nonpayable",
      "type": "function"
    },
    {
      "inputs": [
        {
          "internalType": "uint256",
          "name": "",
          "type": "uint256"
        },
        {
          "internalType": "address",
          "name": "",
          "type": "address"
        }
      ],
      "name": "squads",
      "outputs": [
        {
          "internalType": "address",
          "name": "owner",
          "type": "address"
        },
        {
          "internalType": "uint256",
          "name": "captainId",
          "type": "uint256"
        },
        {
          "internalType": "uint256",
          "name": "viceCaptainId",
          "type": "uint256"
        },
        {
          "internalType": "uint256",
          "name": "totalCredits",
          "type": "uint256"
        },
        {
          "internalType": "uint256",
          "name": "submittedAt",
          "type": "uint256"
        },
        {
          "internalType": "uint256",
          "name": "totalPoints",
          "type": "uint256"
        }
      ],
      "stateMutability": "view",
      "type": "function"
    },
    {
      "inputs": [
        {
          "internalType": "address",
          "name": "newOwner",
          "type": "address"
        }
      ],
      "name": "transferOwnership",
      "outputs": [],
      "stateMutability": "nonpayable",
      "type": "function"
    },
    {
      "inputs": [],
      "name": "unpause",
      "outputs": [],
      "stateMutability": "nonpayable",
      "type": "function"
    },
    {
      "inputs": [
        {
          "internalType": "uint256",
          "name": "contestId",
          "type": "uint256"
        },
        {
          "internalType": "uint256",
          "name": "playerId",
          "type": "uint256"
        },
        {
          "internalType": "uint256",
          "name": "points",
          "type": "uint256"
        }
      ],
      "name": "updatePlayerScore",
      "outputs": [],
      "stateMutability": "nonpayable",
      "type": "function"
    }
  ],
  "bytecode": "0x60e03461017057601f611b5338819003918201601f19168301916001600160401b03831184841017610174578084926060946040528339810103126101705761004781610188565b90610060604061005960208401610188565b9201610188565b90331561015d575f8054336001600160a01b0319821681178355604051959290916001600160a01b0316907f8be0079c531659141344cd1fd0a4f28419497f9722a3daafe3b4186f6b6457e09080a360017f9b779b17422d0df92223018b32b4d1fa46e071723d6817e2486d003becc55f00556001600160a01b031690811561014e576001600160a01b031690811561014e576001600160a01b0383161561014e5760805260a05260c0526119b6908161019d823960805181610f70015260a05181818161029f01528181610333015281816104980152610df1015260c051818181610d9601526116650152f35b63d92e233d60e01b5f5260045ffd5b631e4fbdf760e01b5f525f60045260245ffd5b5f80fd5b634e487b7160e01b5f52604160045260245ffd5b51906001600160a01b03821682036101705756fe6080806040526004361015610012575f80fd5b5f3560e01c908163132ff514146117785750806319c0278c146113685780631ef72d3e146117465780633a8ef03b146113d95780633f4ba83a1461136d5780634258eb5e1461136857806350d89e9314610bb85780635312ea8e146112b857806353985e04146112005780635c975abb146111dc57806365cba3d4146111b2578063715018a61461115b57806373446af5146111135780637a63e36c14610f9f5780637dc0d1d014610f5b5780637e95eed414610dc5578063803db96d14610d815780638456cb5914610d2157806388cb2f7814610c9e5780638d4fdb3b14610c815780638da5cb5b14610c5a5780639d7ed73814610be7578063a9656e6f14610bb8578063abfb8f4214610ab7578063b6bfbe1614610ad7578063b9290e1914610abc578063be37822814610ab7578063c24e868314610737578063d0012a7614610687578063d7098154146105b9578063dc4da68b1461043d578063dfedd789146102ea578063e1a45218146102ce578063e82e14371461028a578063f2fde38b14610201578063f61574ad146101d25763f9bb1a0b146101b3575f80fd5b346101ce575f3660031901126101ce57602060405160648152f35b5f80fd5b346101ce5760203660031901126101ce576004355f526005602052602060ff60405f2054166040519015158152f35b346101ce5760203660031901126101ce576004356001600160a01b038116908190036101ce5761022f6118e5565b8015610277575f80546001600160a01b03198116831782556001600160a01b0316907f8be0079c531659141344cd1fd0a4f28419497f9722a3daafe3b4186f6b6457e09080a3005b631e4fbdf760e01b5f525f60045260245ffd5b346101ce575f3660031901126101ce576040517f00000000000000000000000000000000000000000000000000000000000000006001600160a01b03168152602090f35b346101ce575f3660031901126101ce5760206040516127108152f35b346101ce5760203660031901126101ce57600435805f52600160205260405f2060ff6005820154161561042e5760408051631bfa094160e31b81523360048201529190826024817f00000000000000000000000000000000000000000000000000000000000000006001600160a01b03165afa908115610423575f925f926103ef575b50826103e1575b505015806103cd575b6103be57805f52600560205260405f20600160ff198254161790557fbe083556bce0dac8feb7e6a9ce9ff1acc9df29c6ec47a5638a5fe9da3a7f007f5f80a2005b63ba74eebb60e01b5f5260045ffd5b505f546001600160a01b031633141561037d565b600101541490508280610374565b909250610414915060403d60401161041c575b61040c818361183e565b8101906118b3565b90918461036d565b503d610402565b6040513d5f823e3d90fd5b630222699160e11b5f5260045ffd5b346101ce5760203660031901126101ce5760043561045961190b565b805f52600160205260405f20600581019081549160ff83161580156105ac575b61042e5760408051631bfa094160e31b815233600482015290816024817f00000000000000000000000000000000000000000000000000000000000000006001600160a01b03165afa8015610423575f915f9161058b575b508161057d575b501580610569575b6103be5761010060039361ffff1916179055018054908161053b575b5060207f1c6c11e134c61b80e07671eec8a0bf2d02e70f63cee8bdc4d53f973b9fb90cca91604051908152a260015f5160206119615f395f51905f5255005b5f90555f80808084335af161054e611874565b501561055a57826104fc565b6312171d8360e31b5f5260045ffd5b505f546001600160a01b03163314156104e0565b9050600183015414856104d8565b90506105a6915060403d60401161041c5761040c818361183e565b866104d1565b5060ff8360081c16610479565b346101ce5760203660031901126101ce576004356105d561190b565b5f818152600660205260409020546001600160a01b0316330361067857805f52600760205260405f205490811561066957805f5260076020525f60408120555f80808085335af1610624611874565b501561055a576040519182527f4aa95f981a8337cb337de335b965507da0879c3b49f799d20058e913f5ad2c2660203393a360015f5160206119615f395f51905f5255005b630fe160f360e11b5f5260045ffd5b6314447fcf60e11b5f5260045ffd5b346101ce57610695366117ed565b6106a09291926118e5565b815f526001602052600560405f20015460ff811615908115610729575b5061042e57815f52600560205260ff60405f2054161561071a5760207f78c97eed98c56e8a5c210a99d896b30f0a42af2701efe523e691d40f3c5306f991835f526004825260405f20855f5282528060405f2055604051908152a3005b631683fd8760e11b5f5260045ffd5b60ff915060081c16846106bd565b346101ce576101e03660031901126101ce5760043536610184116101ce576101c435610184356101a435610769611943565b835f52600160205260405f20600581015460ff811615908115610aa9575b5061042e57845f52600560205260ff60405f20541661042e5760648411610a91575f8581526002602090815260408083203384529091529020546001600160a01b0316610a8357845f52600360205260405f20549060c8821015610a6f576004015490818015159182610a64575b5050610a5257505f80805b600b811061099f5750156109905715610981576040519261082084611822565b338452602084019283526040840191825260608401908152608084019042825260a08501925f845261016094610859604051968761183e565b6024865b610184821061097157505060c087019586525f8881526002602081815260408084203385529091528220985189546001600160a01b0319166001600160a01b0391909116178955915160018901559151908701559051600386015590516004850155905160058401559051905b600b811061095a5783805f52600360205260405f2080546801000000000000000081101561094657610901916001820181556117c2565b81546001600160a01b0360039290921b91821b1916339182901b17909155907fa6b7b98661452d3b3151f21ddfb61ffaf26903e7e3e7533b16a1559a9ccc195a5f80a3005b634e487b7160e01b5f52604160045260245ffd5b6001906020835193019260068286010155016108ca565b813581526020918201910161085d565b63eaef43a360e01b5f5260045ffd5b63492287f160e11b5f5260045ffd5b6109a8816118d3565b3515610a4357846109b8826118d3565b3514610a3a575b836109c9826118d3565b3514610a31575b6001810190818111610a1d57815b600b81106109ed575050610800565b6109f6826118d3565b35610a00826118d3565b3514610a0e576001016109de565b63e6f2639b60e01b5f5260045ffd5b634e487b7160e01b5f52601160045260245ffd5b600192506109d0565b600191506109bf565b6324442d5160e01b5f5260045ffd5b6301efacdf60e01b5f5260045260245ffd5b1015905081876107f5565b6301efacdf60e01b5f5260c860045260245ffd5b621d934160e11b5f5260045ffd5b836329b5455360e01b5f52600452606460245260445ffd5b60ff915060081c1686610787565b611807565b346101ce575f3660031901126101ce57602060405160038152f35b60203660031901126101ce57600435610aee61190b565b610af6611943565b805f52600160205260405f20600581015460ff811615908115610baa575b5061042e57815f52600560205260ff60405f205416610b9b573415610b8c5760030190815491348301809311610a1d578290556040519134835260208301527f8280ff1879c6ac2c53ba231886d678c2ea3004dacf8236df357e456aedbaf47b60403393a360015f5160206119615f395f51905f5255005b6368074a6360e01b5f5260045ffd5b6322e2a7ab60e11b5f5260045ffd5b60ff915060081c1683610b14565b346101ce57610bc6366117ac565b905f52600460205260405f20905f52602052602060405f2054604051908152f35b346101ce5760203660031901126101ce576004355f52600160205260e060405f2060ff815491600181015490600281015460038201549060056004840154930154936040519687526020870152604086015260608501526080840152818116151560a084015260081c16151560c0820152f35b346101ce575f3660031901126101ce575f546040516001600160a01b039091168152602090f35b346101ce575f3660031901126101ce576020600854604051908152f35b346101ce5760403660031901126101ce57610cb76117d7565b6004355f52600260205260405f209060018060a01b03165f5260205260c060405f2060018060a01b038154169060018101549060028101546003820154906005600484015493015493604051958652602086015260408501526060840152608083015260a0820152f35b346101ce575f3660031901126101ce57610d396118e5565b610d41611943565b5f805460ff60a01b1916600160a01b1790556040513381527f62e78cea01bee320cd4e420270b5ea74000d11b0c9f74754ebdbfc544b05a25890602090a1005b346101ce575f3660031901126101ce576040517f00000000000000000000000000000000000000000000000000000000000000006001600160a01b03168152602090f35b346101ce57610dd3366117ed565b60408051631bfa094160e31b815233600482015291939190816024817f00000000000000000000000000000000000000000000000000000000000000006001600160a01b03165afa80156104235782905f925f91610f36575b5082610f2c575b50501580610f18575b6103be5760c88311610a6f576020927f66382a96bd00bae289fee70400193924e6b2dc4e94b325c2e55192be68338b166040600160085401948593846008558251610e8681611822565b858152888101878152600585830192858452606081015f8152608082019086825260a08301956001875260c08401955f87528c5f528f600190528a5f2094518555516001850155516002840155516003830155516004820155019151151560ff8019845416911617825551151561ff0082549160081b169061ff001916179055825191825287820152a3604051908152f35b505f546001600160a01b0316331415610e3c565b1490508185610e33565b9050610f5291925060403d60401161041c5761040c818361183e565b91909186610e2c565b346101ce575f3660031901126101ce576040517f00000000000000000000000000000000000000000000000000000000000000006001600160a01b03168152602090f35b346101ce5760403660031901126101ce57610fb86117d7565b60405190610fc582611822565b5f82525f60208301525f60408301525f60608301525f60808301525f60a08301526101609160c060405191610ffa858461183e565b8436843701526004355f52600260205260405f209060018060a01b03165f5260205260405f206040519161102d83611822565b81546001600160a01b0316835260018201546020840190815260028301546040808601918252600385015460608701908152600486015460808801908152600587015460a08901908152925196929590949193926006015f885b600b82106110fd5750505061109c908761183e565b60c087019586526040519660018060a01b0390511687525160208701525160408601525160608501525160808401525160a08301525160c082015f905b600b82106110e75761022084f35b60208060019285518152019301910190916110d9565b6001602081928554815201930191019091611087565b346101ce57611121366117ac565b905f52600360205260405f2080548210156101ce57602091611142916117c2565b905460405160039290921b1c6001600160a01b03168152f35b346101ce575f3660031901126101ce576111736118e5565b5f80546001600160a01b0319811682556001600160a01b03167f8be0079c531659141344cd1fd0a4f28419497f9722a3daafe3b4186f6b6457e08280a3005b346101ce5760203660031901126101ce576004355f526007602052602060405f2054604051908152f35b346101ce575f3660031901126101ce57602060ff5f5460a01c166040519015158152f35b346101ce5760203660031901126101ce576004355f52600360205260405f20604051806020835491828152019081935f5260205f20905f5b818110611299575050508161124e91038261183e565b604051918291602083019060208452518091526040830191905f5b818110611277575050500390f35b82516001600160a01b0316845285945060209384019390920191600101611269565b82546001600160a01b0316845260209093019260019283019201611238565b346101ce5760203660031901126101ce576004356112d46118e5565b6112dc61190b565b805f52600160205260405f206005810180549160ff8360081c1661042e576003018054928315610b8c575f610100925561ffff19161790555f80808084335af1611324611874565b501561055a5760207f1c6c11e134c61b80e07671eec8a0bf2d02e70f63cee8bdc4d53f973b9fb90cca91604051908152a260015f5160206119615f395f51905f5255005b611791565b346101ce575f3660031901126101ce576113856118e5565b5f5460ff8160a01c16156113ca5760ff60a01b19165f556040513381527f5db9ee0a495bf2e6ff9c91a7834c1ba4fdd244a5e8aa4e537bd38aeae4b073aa90602090a1005b638dfc202b60e01b5f5260045ffd5b346101ce5760203660031901126101ce576004356113f56118e5565b6113fd61190b565b805f52600160205260405f206005810191825460ff811615908115611738575b5061042e57805f52600360205260405f209160405190818260208654928381520180965f5260205f20925f5b81811061171657505061145e9250038361183e565b8151156117075760030154801580159485806116fc575b6116ed578351156116d957516001600160a01b0316935f938693889186915b81518310156115b1575f8581526002602052604090206001600160a01b036114bc8585611860565b511660018060a01b03165f5260205260405f20935f9160018601549a6002870154985f945b600b861015611565578d908b6006888c0101548c5f52600460205260405f20815f5260205260405f20549381145f146115375750508160011b9180830460021490151715610a1d57600191905b019501946114e1565b14611546575b9060019161152e565b600382029180830460031490151715610a1d57600191821c915061153d565b939c50959350958291979994985060050155888111611590575b506001019792979194909593611494565b9750925060016001600160a01b036115a88588611860565b5116939061157f565b835461ffff1916610100178455848987891561169a5760c884029084820460c8141715610a1d576127109004809303928061165e575b505f82815260066020908152604080832080546001600160a01b0319166001600160a01b0390951694851790556007825291829020859055905193845290927fced5af5e3a934f7cd998e732f526dd920a0bdde103986b463428c4fbbece2b7b9190a35b60015f5160206119615f395f51905f5255005b5f808080937f00000000000000000000000000000000000000000000000000000000000000005af161168e611874565b501561055a57836115e7565b506040515f81526001600160a01b0390911692507fced5af5e3a934f7cd998e732f526dd920a0bdde103986b463428c4fbbece2b7b90602090a361164b565b634e487b7160e01b5f52603260045260245ffd5b637e439aed60e01b5f5260045ffd5b506002845110611475565b6308b6a47360e41b5f5260045ffd5b84546001600160a01b0316835260019485019487945060209093019201611449565b60ff915060081c168461141d565b346101ce5760203660031901126101ce576004355f526006602052602060018060a01b0360405f205416604051908152f35b346101ce575f3660031901126101ce5780600b60209252f35b346101ce575f3660031901126101ce57602060405160028152f35b60409060031901126101ce576004359060243590565b80548210156116d9575f5260205f2001905f90565b602435906001600160a01b03821682036101ce57565b60609060031901126101ce57600435906024359060443590565b346101ce575f3660031901126101ce57602060405160c88152f35b60e0810190811067ffffffffffffffff82111761094657604052565b90601f8019910116810190811067ffffffffffffffff82111761094657604052565b80518210156116d95760209160051b010190565b3d156118ae573d9067ffffffffffffffff821161094657604051916118a3601f8201601f19166020018461183e565b82523d5f602084013e565b606090565b91908260409103126101ce57815180151581036101ce5760209092015190565b600b8110156116d95760051b60240190565b5f546001600160a01b031633036118f857565b63118cdaa760e01b5f523360045260245ffd5b60025f5160206119615f395f51905f5254146119345760025f5160206119615f395f51905f5255565b633ee5aeb560e01b5f5260045ffd5b60ff5f5460a01c1661195157565b63d93c066560e01b5f5260045ffdfe9b779b17422d0df92223018b32b4d1fa46e071723d6817e2486d003becc55f00a264697066735822122045b17340b2b68f6967b78e336537c8c7543f08f613fbdb0cb9a9d91b0cb68bb264736f6c634300081b0033",
  "linkReferences": {},
  "deployedLinkReferences": {}
}