{
  "_format": "hh-sol-artifact-1",
  "contractName": "FranchiseRegistry",
  "sourceName": "contracts/core/FranchiseRegistry.sol",
  "abi": [
    {
      "inputs": [
        {
          "internalType": "address",
          "name": "_protocolTreasury",
          "type": "address"
        }
      ],
      "stateMutability": "nonpayable",
      "type": "constructor"
    },
    {
      "inputs": [
        {
          "internalType": "address",
          "name": "admin",
          "type": "address"
        }
      ],
      "name": "AdminAlreadyRegistered",
      "type": "error"
    },
    {
      "inputs": [],
      "name": "InvalidAddress",
      "type": "error"
    },
    {
      "inputs": [
        {
          "internalType": "uint256",
          "name": "franchiseId",
          "type": "uint256"
        },
        {
          "internalType": "uint256",
          "name": "maxFranchiseId",
          "type": "uint256"
        }
      ],
      "name": "InvalidFranchiseId",
      "type": "error"
    },
    {
      "inputs": [
        {
          "internalType": "address",
          "name": "owner",
          "type": "address"
        }
      ],
      "name": "OwnableInvalidOwner",
      "type": "error"
    },
    {
      "inputs": [
        {
          "internalType": "address",
          "name": "account",
          "type": "address"
        }
      ],
      "name": "OwnableUnauthorizedAccount",
      "type": "error"
    },
    {
      "anonymous": false,
      "inputs": [
        {
          "indexed": true,
          "internalType": "uint256",
          "name": "franchiseId",
          "type": "uint256"
        }
      ],
      "name": "FranchiseDeactivated",
      "type": "event"
    },
    {
      "anonymous": false,
      "inputs": [
        {
          "indexed": true,
          "internalType": "uint256",
          "name": "franchiseId",
          "type": "uint256"
        },
        {
          "indexed": false,
          "internalType": "string",
          "name": "name",
          "type": "string"
        },
        {
          "indexed": false,
          "internalType": "string",
          "name": "league",
          "type": "string"
        },
        {
          "indexed": false,
          "internalType": "address",
          "name": "adminWallet",
          "type": "address"
        }
      ],
      "name": "FranchiseRegistered",
      "type": "event"
    },
    {
      "anonymous": false,
      "inputs": [
        {
          "indexed": true,
          "internalType": "uint256",
          "name": "franchiseId",
          "type": "uint256"
        }
      ],
      "name": "FranchiseUpdated",
      "type": "event"
    },
    {
      "anonymous": false,
      "inputs": [
        {
          "indexed": true,
          "internalType": "address",
          "name": "previousOwner",
          "type": "address"
        },
        {
          "indexed": true,
          "internalType": "address",
          "name": "newOwner",
          "type": "address"
        }
      ],
      "name": "OwnershipTransferred",
      "type": "event"
    },
    {
      "anonymous": false,
      "inputs": [
        {
          "indexed": false,
          "internalType": "address",
          "name": "newTreasury",
          "type": "address"
        }
      ],
      "name": "ProtocolTreasuryUpdated",
      "type": "event"
    },
    {
      "inputs": [
        {
          "internalType": "address",
          "name": "",
          "type": "address"
        }
      ],
      "name": "adminToFranchise",
      "outputs": [
        {
          "internalType": "uint256",
          "name": "",
          "type": "uint256"
        }
      ],
      "stateMutability": "view",
      "type": "function"
    },
    {
      "inputs": [
        {
          "internalType": "uint256",
          "name": "franchiseId",
          "type": "uint256"
        }
      ],
      "name": "deactivateFranchise",
      "outputs": [],
      "stateMutability": "nonpayable",
      "type": "function"
    },
    {
      "inputs": [],
      "name": "franchiseCount",
      "outputs": [
        {
          "internalType": "uint256",
          "name": "",
          "type": "uint256"
        }
      ],
      "stateMutability": "view",
      "type": "function"
    },
    {
      "inputs": [
        {
          "internalType": "uint256",
          "name": "franchiseId",
          "type": "uint256"
        }
      ],
      "name": "getFranchise",
      "outputs": [
        {
          "components": [
            {
              "internalType": "uint256",
              "name": "franchiseId",
              "type": "uint256"
            },
            {
              "internalType": "string",
              "name": "name",
              "type": "string"
            },
            {
              "internalType": "string",
              "name": "league",
              "type": "string"
            },
            {
              "internalType": "address",
              "name": "adminWallet",
              "type": "address"
            },
            {
              "internalType": "address",
              "name": "treasuryWallet",
              "type": "address"
            },
            {
              "internalType": "bool",
              "name": "active",
              "type": "bool"
            },
            {
              "internalType": "uint256",
              "name": "registeredAt",
              "type": "uint256"
            }
          ],
          "internalType": "struct IFranchiseRegistry.Franchise",
          "name": "franchise",
          "type": "tuple"
        }
      ],
      "stateMutability": "view",
      "type": "function"
    },
    {
      "inputs": [],
      "name": "getProtocolTreasury",
      "outputs": [
        {
          "internalType": "address",
          "name": "treasury",
          "type": "address"
        }
      ],
      "stateMutability": "view",
      "type": "function"
    },
    {
      "inputs": [
        {
          "internalType": "address",
          "name": "addr",
          "type": "address"
        }
      ],
      "name": "isFranchiseAdmin",
      "outputs": [
        {
          "internalType": "bool",
          "name": "isAdmin",
          "type": "bool"
        },
        {
          "internalType": "uint256",
          "name": "franchiseId",
          "type": "uint256"
        }
      ],
      "stateMutability": "view",
      "type": "function"
    },
    {
      "inputs": [],
      "name": "owner",
      "outputs": [
        {
          "internalType": "address",
          "name": "",
          "type": "address"
        }
      ],
      "stateMutability": "view",
      "type": "function"
    },
    {
      "inputs": [],
      "name": "protocolTreasury",
      "outputs": [
        {
          "internalType": "address",
          "name": "",
          "type": "address"
        }
      ],
      "stateMutability": "view",
      "type": "function"
    },
    {
      "inputs": [
        {
          "internalType": "string",
          "name": "name",
          "type": "string"
        },
        {
          "internalType": "string",
          "name": "league",
          "type": "string"
        },
        {
          "internalType": "address",
          "name": "adminWallet",
          "type": "address"
        },
        {
          "internalType": "address",
          "name": "treasuryWallet",
          "type": "address"
        }
      ],
      "name": "registerFranchise",
      "outputs": [
        {
          "internalType": "uint256",
          "name": "franchiseId",
          "type": "uint256"
        }
      ],
      "stateMutability": "nonpayable",
      "type": "function"
    },
    {
      "inputs": [],
      "name": "renounceOwnership",
      "outputs": [],
      "stateMutability": "nonpayable",
      "type": "function"
    },
    {
      "inputs": [
        {
          "internalType": "address",
          "name": "treasury",
          "type": "address"
        }
      ],
      "name": "setProtocolTreasury",
      "outputs": [],
      "stateMutability": "nonpayable",
      "type": "function"
    },
    {
      "inputs": [
        {
          "internalType": "address",
          "name": "newOwner",
          "type": "address"
        }
      ],
      "name": "transferOwnership",
      "outputs": [],
      "stateMutability": "nonpayable",
      "type": "function"
    },
    {
      "inputs": [
        {
          "internalType": "uint256",
          "name": "franchiseId",
          "type": "uint256"
        },
        {
          "internalType": "string",
          "name": "name",
          "type": "string"
        },
        {
          "internalType": "string",
          "name": "league",
          "type": "string"
        },
        {
          "internalType": "address",
          "name": "adminWallet",
          "type": "address"
        },
        {
          "internalType": "address",
          "name": "treasuryWallet",
          "type": "address"
        }
      ],
      "name": "updateFranchise",
      "outputs": [],
      "stateMutability": "nonpayable",
      "type": "function"
    }
  ],
  "bytecode": "0x6080346100e757601f610fb238819003918201601f19168301916001600160401b038311848410176100eb578084926020946040528339810103126100e757516001600160a01b038116908190036100e75733156100d4575f8054336001600160a01b0319821681178355604051939290916001600160a01b0316907f8be0079c531659141344cd1fd0a4f28419497f9722a3daafe3b4186f6b6457e09080a380156100c557600480546001600160a01b031916919091179055610eb290816101008239f35b63e6c4247b60e01b5f5260045ffd5b631e4fbdf760e01b5f525f60045260245ffd5b5f80fd5b634e487b7160e01b5f52604160045260245ffdfe60806040526004361015610011575f80fd5b5f3560e01c80630c5a61f814610b685780631f275fd614610a2757806358edee5014610a0a5780636f7c74c2146106225780636fa529161461059f578063715018a614610548578063803db96d146104c1578063810169e5146105105780638da5cb5b146104e95780639611f3d9146104c1578063b9687fec14610195578063dfd04a08146101315763f2fde38b146100a8575f80fd5b3461012d57602036600319011261012d576100c1610bd9565b6100c9610e22565b6001600160a01b0316801561011a575f80546001600160a01b03198116831782556001600160a01b0316907f8be0079c531659141344cd1fd0a4f28419497f9722a3daafe3b4186f6b6457e09080a3005b631e4fbdf760e01b5f525f60045260245ffd5b5f80fd5b3461012d57602036600319011261012d576001600160a01b03610152610bd9565b165f5260026020526040805f20548015159081610178575b825191151582526020820152f35b8091505f52600160205260ff6004835f20015460a01c169061016a565b3461012d5760a036600319011261012d5760043560243567ffffffffffffffff811161012d576101c9903690600401610c29565b919060443567ffffffffffffffff811161012d576101eb903690600401610c29565b9190936101f6610bef565b6084356001600160a01b038116949085900361012d57610214610e22565b61021d86610e48565b5f868152600160205260409020600381018054919590946001600160a01b03948516949192909116848103610458575b50861561044957600186019167ffffffffffffffff82116103c65761027c826102768554610c95565b85610db3565b5f90601f83116001146103e5576102aa92915f91836103da575b50508160011b915f199060031b1c19161790565b90555b600284019067ffffffffffffffff81116103c6576102d5816102cf8454610c95565b84610db3565b5f601f821160011461035e57908061030692600498999a5f926103535750508160011b915f199060031b1c19161790565b90555b6001600160601b0360a01b82541617905501906001600160601b0360a01b8254161790557ff52b1c26c328cb6babe05928a7d6d03f30a467a2a1535b077025238be0c7c6f15f80a2005b013590508a80610296565b601f19821690835f5260205f20915f5b8181106103ae57509983929160019460049a9b9c10610395575b505050811b019055610309565b01355f19600384901b60f8161c19169055898080610388565b9192602060018192868f01358155019401920161036e565b634e487b7160e01b5f52604160045260245ffd5b013590508b80610296565b601f19831691845f5260205f20925f5b8181106104315750908460019594939210610418575b505050811b0190556102ad565b01355f19600384901b60f8161c191690558a808061040b565b919360206001819287870135815501950192016103f5565b63e6c4247b60e01b5f5260045ffd5b841561044957845f52600260205260405f20541515806104ab575b610498575f5260026020525f6040812055835f5260026020528760405f20558961024d565b84632c360dd360e11b5f5260045260245ffd5b50845f5260026020528860405f20541415610473565b3461012d575f36600319011261012d576004546040516001600160a01b039091168152602090f35b3461012d575f36600319011261012d575f546040516001600160a01b039091168152602090f35b3461012d57602036600319011261012d576001600160a01b03610531610bd9565b165f526002602052602060405f2054604051908152f35b3461012d575f36600319011261012d57610560610e22565b5f80546001600160a01b0319811682556001600160a01b03167f8be0079c531659141344cd1fd0a4f28419497f9722a3daafe3b4186f6b6457e08280a3005b3461012d57602036600319011261012d576004356105bb610e22565b6105c481610e48565b5f81815260016020908152604080832060038101546001600160a01b0316845260029092528220829055600401805460ff60a01b191690557fe09be417820e7b396b62c6428c0331cb940668f97f1a0e5d8d1dc358783622a29080a2005b3461012d57608036600319011261012d5760043567ffffffffffffffff811161012d57610653903690600401610c29565b60243567ffffffffffffffff811161012d57610673903690600401610c29565b90926044356001600160a01b038116810361012d57610690610bef565b610698610e22565b6001600160a01b03821615610449576001600160a01b0316948515610449576001600160a01b0382165f908152600260205260409020546109e95760016003540193846003556040516106ea81610c57565b8581526106f8368887610d6d565b906020810191825261070b368486610d6d565b9060408101918252606081019960018060a01b0387168b52608082015260a081016001815260c0820192428452895f52600160205260405f20948351865560018601905180519067ffffffffffffffff82116103c65761076f826102768554610c95565b602090601f83116001146109865761079d92915f91836108df5750508160011b915f199060031b1c19161790565b90555b519a8b5167ffffffffffffffff81116103c65760209c6107d0826107c760028a0154610c95565b60028a01610db3565b8d90601f83116001146108ea579360059361082f8e9f9b9894807f68e72414de1638e9ef93df9d00f651e9faf8eba9d45ef341d7fed94287c845579f9e9c99956108c49c995f926108df5750508160011b915f199060031b1c19161790565b60028701555b516003860180546001600160a01b0319166001600160a01b0392831617905560809092015160048601805492516001600160a81b03199093169184169190911791151560a01b60ff60a01b169190911790559051919092015584165f90815260028b52604090819020899055516060808252909687966108b792880191610e02565b918583038b870152610e02565b6001600160a01b0390911660408301520390a2604051908152f35b015190505f80610296565b90600288015f52805f20915f5b601f198516811061096e57509360018e9f9b98947f68e72414de1638e9ef93df9d00f651e9faf8eba9d45ef341d7fed94287c845579e9d9b98946108c49b989460059883601f19811610610956575b505050811b016002870155610835565b01515f1960f88460031b161c191690555f8080610946565b919260206001819286850151815501940192016108f7565b90601f19831691845f52815f20925f5b8181106109d157509084600195949392106109b9575b505050811b0190556107a0565b01515f1960f88460031b161c191690558f80806109ac565b92936020600181928786015181550195019301610996565b50632c360dd360e11b5f9081526001600160a01b0391909116600452602490fd5b3461012d575f36600319011261012d576020600354604051908152f35b3461012d57602036600319011261012d576004355f60c0604051610a4a81610c57565b82815260606020820152606060408201528260608201528260808201528260a08201520152610a7881610e48565b5f52600160205260405f20604051610a8f81610c57565b81548152610a9f60018301610ccd565b9160208201928352610ab360028201610ccd565b6040830190815260018060a01b036003830154169160608401928352600481015490610b3c6005608087019260018060a01b038516845260ff60a089019560a01c161515855201549360c08701948552610b2960405198899860208a525160208a01525160e060408a0152610100890190610c05565b9051878203601f19016060890152610c05565b93516001600160a01b03908116608087015290511660a085015251151560c08401525160e08301520390f35b3461012d57602036600319011261012d57610b81610bd9565b610b89610e22565b6001600160a01b03168015610449576020817fb141872ee67913e1bc546464f29b6b07a65159d45c6af64fdecf8b4129157faf926001600160601b0360a01b6004541617600455604051908152a1005b600435906001600160a01b038216820361012d57565b606435906001600160a01b038216820361012d57565b805180835260209291819084018484015e5f828201840152601f01601f1916010190565b9181601f8401121561012d5782359167ffffffffffffffff831161012d576020838186019501011161012d57565b60e0810190811067ffffffffffffffff8211176103c657604052565b90601f8019910116810190811067ffffffffffffffff8211176103c657604052565b90600182811c92168015610cc3575b6020831014610caf57565b634e487b7160e01b5f52602260045260245ffd5b91607f1691610ca4565b9060405191825f825492610ce084610c95565b8084529360018116908115610d4b5750600114610d07575b50610d0592500383610c73565b565b90505f9291925260205f20905f915b818310610d2f575050906020610d05928201015f610cf8565b6020919350806001915483858901015201910190918492610d16565b905060209250610d0594915060ff191682840152151560051b8201015f610cf8565b92919267ffffffffffffffff82116103c65760405191610d97601f8201601f191660200184610c73565b82948184528183011161012d578281602093845f960137010152565b601f8211610dc057505050565b5f5260205f20906020601f840160051c83019310610df8575b601f0160051c01905b818110610ded575050565b5f8155600101610de2565b9091508190610dd9565b908060209392818452848401375f828201840152601f01601f1916010190565b5f546001600160a01b03163303610e3557565b63118cdaa760e01b5f523360045260245ffd5b80158015610e71575b610e585750565b6003549063befa12e960e01b5f5260045260245260445ffd5b506003548111610e5156fea26469706673582212202dcab0eeca79781b2e894bc8c8dad387f28b1ae10f3a351c6c1e52550f6def5a64736f6c634300081b0033",
  "linkReferences": {},
  "deployedLinkReferences": {}
}