{
  "_format": "hh-sol-artifact-1",
  "contractName": "MatchOracle",
  "sourceName": "contracts/oracle/MatchOracle.sol",
  "abi": [
    {
      "inputs": [],
      "stateMutability": "nonpayable",
      "type": "constructor"
    },
    {
      "inputs": [],
      "name": "InvalidMatch",
      "type": "error"
    },
    {
      "inputs": [],
      "name": "InvalidOracle",
      "type": "error"
    },
    {
      "inputs": [],
      "name": "InvalidResult",
      "type": "error"
    },
    {
      "inputs": [],
      "name": "NotAuthorizedOracle",
      "type": "error"
    },
    {
      "inputs": [
        {
          "internalType": "address",
          "name": "owner",
          "type": "address"
        }
      ],
      "name": "OwnableInvalidOwner",
      "type": "error"
    },
    {
      "inputs": [
        {
          "internalType": "address",
          "name": "account",
          "type": "address"
        }
      ],
      "name": "OwnableUnauthorizedAccount",
      "type": "error"
    },
    {
      "inputs": [],
      "name": "ResultAlreadySubmitted",
      "type": "error"
    },
    {
      "inputs": [],
      "name": "StatsAlreadySubmitted",
      "type": "error"
    },
    {
      "inputs": [],
      "name": "ValueOverflow",
      "type": "error"
    },
    {
      "anonymous": false,
      "inputs": [
        {
          "indexed": true,
          "internalType": "uint256",
          "name": "matchId",
          "type": "uint256"
        },
        {
          "indexed": true,
          "internalType": "uint256",
          "name": "franchiseId",
          "type": "uint256"
        },
        {
          "indexed": false,
          "internalType": "string",
          "name": "team1",
          "type": "string"
        },
        {
          "indexed": false,
          "internalType": "string",
          "name": "team2",
          "type": "string"
        },
        {
          "indexed": false,
          "internalType": "uint256",
          "name": "startTime",
          "type": "uint256"
        }
      ],
      "name": "MatchCreated",
      "type": "event"
    },
    {
      "anonymous": false,
      "inputs": [
        {
          "indexed": true,
          "internalType": "uint256",
          "name": "matchId",
          "type": "uint256"
        },
        {
          "indexed": false,
          "internalType": "string",
          "name": "winner",
          "type": "string"
        },
        {
          "indexed": false,
          "internalType": "bool",
          "name": "abandoned",
          "type": "bool"
        }
      ],
      "name": "MatchResultSubmitted",
      "type": "event"
    },
    {
      "anonymous": false,
      "inputs": [
        {
          "indexed": true,
          "internalType": "address",
          "name": "oracle",
          "type": "address"
        }
      ],
      "name": "OracleAuthorized",
      "type": "event"
    },
    {
      "anonymous": false,
      "inputs": [
        {
          "indexed": true,
          "internalType": "address",
          "name": "oracle",
          "type": "address"
        }
      ],
      "name": "OracleRevoked",
      "type": "event"
    },
    {
      "anonymous": false,
      "inputs": [
        {
          "indexed": true,
          "internalType": "address",
          "name": "previousOwner",
          "type": "address"
        },
        {
          "indexed": true,
          "internalType": "address",
          "name": "newOwner",
          "type": "address"
        }
      ],
      "name": "OwnershipTransferred",
      "type": "event"
    },
    {
      "anonymous": false,
      "inputs": [
        {
          "indexed": true,
          "internalType": "uint256",
          "name": "matchId",
          "type": "uint256"
        },
        {
          "indexed": true,
          "internalType": "uint256",
          "name": "playerId",
          "type": "uint256"
        }
      ],
      "name": "PlayerStatsSubmitted",
      "type": "event"
    },
    {
      "inputs": [
        {
          "internalType": "address",
          "name": "oracle",
          "type": "address"
        }
      ],
      "name": "authorizeOracle",
      "outputs": [],
      "stateMutability": "nonpayable",
      "type": "function"
    },
    {
      "inputs": [
        {
          "internalType": "address",
          "name": "",
          "type": "address"
        }
      ],
      "name": "authorizedOracles",
      "outputs": [
        {
          "internalType": "bool",
          "name": "",
          "type": "bool"
        }
      ],
      "stateMutability": "view",
      "type": "function"
    },
    {
      "inputs": [
        {
          "internalType": "uint256",
          "name": "franchiseId",
          "type": "uint256"
        },
        {
          "internalType": "string",
          "name": "team1",
          "type": "string"
        },
        {
          "internalType": "string",
          "name": "team2",
          "type": "string"
        },
        {
          "internalType": "uint256",
          "name": "startTime",
          "type": "uint256"
        }
      ],
      "name": "createMatch",
      "outputs": [
        {
          "internalType": "uint256",
          "name": "",
          "type": "uint256"
        }
      ],
      "stateMutability": "nonpayable",
      "type": "function"
    },
    {
      "inputs": [
        {
          "internalType": "uint256",
          "name": "matchId",
          "type": "uint256"
        },
        {
          "internalType": "uint256",
          "name": "playerId",
          "type": "uint256"
        }
      ],
      "name": "getPlayerStats",
      "outputs": [
        {
          "components": [
            {
              "internalType": "uint64",
              "name": "runs",
              "type": "uint64"
            },
            {
              "internalType": "uint64",
              "name": "wickets",
              "type": "uint64"
            },
            {
              "internalType": "uint64",
              "name": "economyRate",
              "type": "uint64"
            },
            {
              "internalType": "uint64",
              "name": "strikeRate",
              "type": "uint64"
            },
            {
              "internalType": "bool",
              "name": "isMotm",
              "type": "bool"
            }
          ],
          "internalType": "struct IMatchOracle.PlayerPerformance",
          "name": "",
          "type": "tuple"
        }
      ],
      "stateMutability": "view",
      "type": "function"
    },
    {
      "inputs": [
        {
          "internalType": "uint256",
          "name": "matchId",
          "type": "uint256"
        }
      ],
      "name": "getResult",
      "outputs": [
        {
          "components": [
            {
              "internalType": "uint256",
              "name": "matchId",
              "type": "uint256"
            },
            {
              "internalType": "uint256",
              "name": "franchiseId",
              "type": "uint256"
            },
            {
              "internalType": "string",
              "name": "team1",
              "type": "string"
            },
            {
              "internalType": "string",
              "name": "team2",
              "type": "string"
            },
            {
              "internalType": "uint256",
              "name": "startTime",
              "type": "uint256"
            },
            {
              "internalType": "bool",
              "name": "resultSubmitted",
              "type": "bool"
            },
            {
              "internalType": "bool",
              "name": "abandoned",
              "type": "bool"
            },
            {
              "internalType": "string",
              "name": "winner",
              "type": "string"
            },
            {
              "internalType": "uint256",
              "name": "settledAt",
              "type": "uint256"
            }
          ],
          "internalType": "struct IMatchOracle.MatchData",
          "name": "",
          "type": "tuple"
        }
      ],
      "stateMutability": "view",
      "type": "function"
    },
    {
      "inputs": [
        {
          "internalType": "uint256",
          "name": "matchId",
          "type": "uint256"
        }
      ],
      "name": "isMatchSettled",
      "outputs": [
        {
          "internalType": "bool",
          "name": "",
          "type": "bool"
        }
      ],
      "stateMutability": "view",
      "type": "function"
    },
    {
      "inputs": [],
      "name": "matchCount",
      "outputs": [
        {
          "internalType": "uint256",
          "name": "",
          "type": "uint256"
        }
      ],
      "stateMutability": "view",
      "type": "function"
    },
    {
      "inputs": [],
      "name": "owner",
      "outputs": [
        {
          "internalType": "address",
          "name": "",
          "type": "address"
        }
      ],
      "stateMutability": "view",
      "type": "function"
    },
    {
      "inputs": [],
      "name": "renounceOwnership",
      "outputs": [],
      "stateMutability": "nonpayable",
      "type": "function"
    },
    {
      "inputs": [
        {
          "internalType": "address",
          "name": "oracle",
          "type": "address"
        }
      ],
      "name": "revokeOracle",
      "outputs": [],
      "stateMutability": "nonpayable",
      "type": "function"
    },
    {
      "inputs": [
        {
          "internalType": "uint256",
          "name": "matchId",
          "type": "uint256"
        },
        {
          "internalType": "uint256",
          "name": "playerId",
          "type": "uint256"
        },
        {
          "internalType": "uint256",
          "name": "runs",
          "type": "uint256"
        },
        {
          "internalType": "uint256",
          "name": "wickets",
          "type": "uint256"
        },
        {
          "internalType": "uint256",
          "name": "economyRate",
          "type": "uint256"
        },
        {
          "internalType": "uint256",
          "name": "strikeRate",
          "type": "uint256"
        },
        {
          "internalType": "bool",
          "name": "isMotm",
          "type": "bool"
        }
      ],
      "name": "submitPlayerStats",
      "outputs": [],
      "stateMutability": "nonpayable",
      "type": "function"
    },
    {
      "inputs": [
        {
          "internalType": "uint256",
          "name": "matchId",
          "type": "uint256"
        },
        {
          "internalType": "string",
          "name": "winner",
          "type": "string"
        },
        {
          "internalType": "bool",
          "name": "abandoned",
          "type": "bool"
        }
      ],
      "name": "submitResult",
      "outputs": [],
      "stateMutability": "nonpayable",
      "type": "function"
    },
    {
      "inputs": [
        {
          "internalType": "address",
          "name": "newOwner",
          "type": "address"
        }
      ],
      "name": "transferOwnership",
      "outputs": [],
      "stateMutability": "nonpayable",
      "type": "function"
    }
  ],
  "bytecode": "0x608080604052346071573315605e575f8054336001600160a01b0319821681178355916001600160a01b03909116907f8be0079c531659141344cd1fd0a4f28419497f9722a3daafe3b4186f6b6457e09080a36110e590816100768239f35b631e4fbdf760e01b5f525f60045260245ffd5b5f80fdfe60806040526004361015610011575f80fd5b5f3560e01c80630f13b76314610da25780632efe2d3214610ba35780634279de8014610ac25780634c8a38e2146106725780635983e6b01461060a57806361c992a3146105c9578063715018a61461057257806379c4264b146105555780638da5cb5b1461052e578063995e4339146103a5578063b53aeef21461037d578063e4932e79146101355763f2fde38b146100a8575f80fd5b34610131576020366003190112610131576004356001600160a01b03811690819003610131576100d6611089565b801561011e575f80546001600160a01b03198116831782556001600160a01b0316907f8be0079c531659141344cd1fd0a4f28419497f9722a3daafe3b4186f6b6457e09080a3005b631e4fbdf760e01b5f525f60045260245ffd5b5f80fd5b34610131576060366003190112610131576004356024356001600160401b03811161013157610168903690600401610e22565b919060443592831580159081860361013157335f52600460205260ff60405f2054161561036e5784158015610363575b61035457845f52600160205260405f20956005870180549260ff841661034557828061033c575b6103265780610334575b6103265761ffff1990921690151560081b61ff001617600117905560068501946001600160401b0383116103125761020b836102058854610f10565b88610f48565b5f95601f84116001146102905761025a84807f8b6091d737b568eec9a6b6d06fe9b3f07c570048926786aa90f03cd794d25b8898995f91610285575b508160011b915f199060031b1c19161790565b90555b60074291015561027a604051938493604085526040850191610f97565b9060208301520390a2005b90508701358a610247565b601f198416815f5260205f20905f5b8181106102fa575097857f8b6091d737b568eec9a6b6d06fe9b3f07c570048926786aa90f03cd794d25b889899106102e1575b5050600184811b01905561025d565b8601355f19600387901b60f8161c1916905587806102d2565b878a013583556020998a01996001909301920161029f565b634e487b7160e01b5f52604160045260245ffd5b62f8b33f60e71b5f5260045ffd5b5084156101c9565b508515156101bf565b6334a21c3f60e11b5f5260045ffd5b6314d6239f60e11b5f5260045ffd5b506005548511610198565b630b7b9fc760e01b5f5260045ffd5b3461013157602036600319011261013157602061039b600435611057565b6040519015158152f35b34610131576020366003190112610131576004355f6101006040516103c981610e8e565b828152826020820152606060408201526060808201528260808201528260a08201528260c0820152606060e0820152015280158015610523575b610354575f52600160205260405f2060405161041e81610e8e565b815481526001820154916020820192835261051761043e60028301610fb7565b916040840192835261045260038201610fb7565b9060608501918252600481015491608086019283526005820154906104ed60a088019160ff84161515835260ff60c08a019460081c16151584526104da600761049d60068801610fb7565b9660e08c019788520154986101008b01998a526040519b8c9b60208d525160208d01525160408c01525161012060608c01526101408b0190610e4f565b9051898203601f190160808b0152610e4f565b935160a088015251151560c087015251151560e086015251848203601f1901610100860152610e4f565b90516101208301520390f35b506005548111610403565b34610131575f366003190112610131575f546040516001600160a01b039091168152602090f35b34610131575f366003190112610131576020600554604051908152f35b34610131575f3660031901126101315761058a611089565b5f80546001600160a01b0319811682556001600160a01b03167f8be0079c531659141344cd1fd0a4f28419497f9722a3daafe3b4186f6b6457e08280a3005b34610131576020366003190112610131576004356001600160a01b03811690819003610131575f526004602052602060ff60405f2054166040519015158152f35b34610131576020366003190112610131576004356001600160a01b0381169081900361013157610638611089565b805f52600460205260405f2060ff1981541690557f3c9c4af7c4c66de2ffc68abfa4e0d275fbce92f248473bca0d6787dc8caf8e315f80a2005b34610131576080366003190112610131576024356001600160401b038111610131576106a2903690600401610e22565b6044356001600160401b038111610131576106c1903690600401610e22565b6106cc929192611089565b6001600554019283600555604051916106e483610e8e565b848352602083019560043587526106fc368683610ecb565b966040850197885261070f368486610ecb565b6060860190815260643560808701525f60a08701525f60c087015260209860405161073a8b82610eaa565b5f815260e08801525f610100880152885f5260018a5260405f20928751845551600184015560028301905180516001600160401b03811161031257610789816107838554610f10565b85610f48565b8b8c601f8311600114610a5d575081906107b8935f92610a52575b50508160011b915f199060031b1c19161790565b90555b518051906001600160401b038211610312576107e7826107de6003860154610f10565b60038601610f48565b8990601f83116001146109e95761081492915f91836109de5750508160011b915f199060031b1c19161790565b60038201555b608085015160048201556108626005820161084760a08801511515829060ff801983541691151516179055565b60c0870151815461ff00191690151560081b61ff0016179055565b60e08501519485516001600160401b0381116103125788966108948261088b6006870154610f10565b60068701610f48565b8a90601f83116001146109405761010061090f946108f2857e24b5fe66d76a09afdbc7d319ca8f5dc238d383f67d6cb9355199c756ff99259b999661091c9b99966007965f926109355750508160011b915f199060031b1c19161790565b60068501555b015191015560405197606089526060890191610f97565b9186830389880152610f97565b92606435604082015280600435940390a3604051908152f35b015190505f806107a4565b90600685015f528b5f20915f5b8d601f19861682106109c557505061090f9460018561091c9a9895600795610100957e24b5fe66d76a09afdbc7d319ca8f5dc238d383f67d6cb9355199c756ff99259e9c99601f198116106109ad575b505050811b0160068501556108f8565b01515f1960f88460031b161c191690555f808061099d565b8383015185558d9b50600190940193928301920161094d565b015190508b806107a4565b90601f19831691600385015f528b5f20925f5b8d828210610a3c575050908460019594939210610a24575b505050811b01600382015561081a565b01515f1960f88460031b161c191690558a8080610a14565b60018596829396860151815501950193016109fc565b015190508d806107a4565b9192601f198416855f52835f20935f905b828210610aaa575050908460019594939210610a92575b505050811b0190556107bb565b01515f1960f88460031b161c191690558c8080610a85565b80600186978294978701518155019601940190610a6e565b34610131576040366003190112610131576004355f6080604051610ae581610e73565b828152826020820152826040820152826060820152015280158015610b98575b610354575f52600260205260405f206024355f5260205260a060405f20604051610b2e81610e73565b6001600160401b03825481808216948585528160208601818560401c168152608060ff600160408a01958589851c16875260608b019860c01c8952015416970196151587526040519788525116602087015251166040850152511660608301525115156080820152f35b506005548111610b05565b346101315760e03660031901126101315760243560043560a43560443560843560c435801515906064359082900361013157335f52600460205260ff60405f2054161561036e5785158015610d97575b61035457855f52600360205260405f20875f5260205260ff60405f205416610d8857855f52600360205260405f20875f5260205260405f20600160ff198254161790556001600160401b038411610d79576001600160401b038111610d79576001600160401b038311610d79576001600160401b038511610d7957610d54946001936001600160401b0360405196610c8a88610e73565b1686526001600160401b0360208701931683526001600160401b0360408701911681526001600160401b03606087019216825260808601938452875f52600260205260405f20895f526020526001600160401b0360405f20965116926fffffffffffffffff00000000000000008754915160401b16916001600160401b0360801b905160801b16926001600160401b0360c01b905160c01b1693868060c01b03916001600160401b0360c01b161716171717835551151591019060ff801983541691151516179055565b7ecc5c7bd9314a0eef4f19bbed2c249557f1809b5c1bf0c9e6dd9bea4ecf84cc5f80a3005b63f20577e560e01b5f5260045ffd5b630ef3baed60e11b5f5260045ffd5b506005548611610bf3565b34610131576020366003190112610131576004356001600160a01b0381169081900361013157610dd0611089565b8015610e1357805f52600460205260405f20600160ff198254161790557f5a7a3f71a35f5e2589980d29d1c6d8c75e39657751190874081e55208bae24b75f80a2005b639589a27d60e01b5f5260045ffd5b9181601f84011215610131578235916001600160401b038311610131576020838186019501011161013157565b805180835260209291819084018484015e5f828201840152601f01601f1916010190565b60a081019081106001600160401b0382111761031257604052565b61012081019081106001600160401b0382111761031257604052565b90601f801991011681019081106001600160401b0382111761031257604052565b9291926001600160401b0382116103125760405191610ef4601f8201601f191660200184610eaa565b829481845281830111610131578281602093845f960137010152565b90600182811c92168015610f3e575b6020831014610f2a57565b634e487b7160e01b5f52602260045260245ffd5b91607f1691610f1f565b601f8211610f5557505050565b5f5260205f20906020601f840160051c83019310610f8d575b601f0160051c01905b818110610f82575050565b5f8155600101610f77565b9091508190610f6e565b908060209392818452848401375f828201840152601f01601f1916010190565b9060405191825f825492610fca84610f10565b80845293600181169081156110355750600114610ff1575b50610fef92500383610eaa565b565b90505f9291925260205f20905f915b818310611019575050906020610fef928201015f610fe2565b6020919350806001915483858901015201910190918492611000565b905060209250610fef94915060ff191682840152151560051b8201015f610fe2565b8015801561107e575b611079575f52600160205260ff600560405f2001541690565b505f90565b506005548111611060565b5f546001600160a01b0316330361109c57565b63118cdaa760e01b5f523360045260245ffdfea26469706673582212205f237732f3240cd86c7d72c4323f58d68f791f46eb3c9d0f9128c358cd5ca2db64736f6c634300081b0033",
  "linkReferences": {},
  "deployedLinkReferences": {}
}