{
  "_format": "hh-sol-artifact-1",
  "contractName": "PolicyEngine",
  "sourceName": "contracts/core/PolicyEngine.sol",
  "abi": [
    {
      "inputs": [
        {
          "internalType": "address",
          "name": "_agentRegistry",
          "type": "address"
        }
      ],
      "stateMutability": "nonpayable",
      "type": "constructor"
    },
    {
      "inputs": [],
      "name": "AgentNotActive",
      "type": "error"
    },
    {
      "inputs": [],
      "name": "ExpiryTooSoon",
      "type": "error"
    },
    {
      "inputs": [],
      "name": "GatewayAlreadySet",
      "type": "error"
    },
    {
      "inputs": [],
      "name": "InvalidGateway",
      "type": "error"
    },
    {
      "inputs": [],
      "name": "InvalidRegistry",
      "type": "error"
    },
    {
      "inputs": [],
      "name": "NoActivePositions",
      "type": "error"
    },
    {
      "inputs": [],
      "name": "NotAgentOwner",
      "type": "error"
    },
    {
      "inputs": [
        {
          "internalType": "address",
          "name": "owner",
          "type": "address"
        }
      ],
      "name": "OwnableInvalidOwner",
      "type": "error"
    },
    {
      "inputs": [
        {
          "internalType": "address",
          "name": "account",
          "type": "address"
        }
      ],
      "name": "OwnableUnauthorizedAccount",
      "type": "error"
    },
    {
      "inputs": [],
      "name": "TooManyActions",
      "type": "error"
    },
    {
      "inputs": [],
      "name": "TooManyContracts",
      "type": "error"
    },
    {
      "inputs": [],
      "name": "Unauthorized",
      "type": "error"
    },
    {
      "inputs": [],
      "name": "ValueOverflow",
      "type": "error"
    },
    {
      "anonymous": false,
      "inputs": [
        {
          "indexed": false,
          "internalType": "address",
          "name": "gateway",
          "type": "address"
        }
      ],
      "name": "GatewaySet",
      "type": "event"
    },
    {
      "anonymous": false,
      "inputs": [
        {
          "indexed": true,
          "internalType": "address",
          "name": "previousOwner",
          "type": "address"
        },
        {
          "indexed": true,
          "internalType": "address",
          "name": "newOwner",
          "type": "address"
        }
      ],
      "name": "OwnershipTransferred",
      "type": "event"
    },
    {
      "anonymous": false,
      "inputs": [
        {
          "indexed": true,
          "internalType": "uint256",
          "name": "agentId",
          "type": "uint256"
        }
      ],
      "name": "PolicySet",
      "type": "event"
    },
    {
      "inputs": [],
      "name": "MAX_ALLOWED_ACTIONS",
      "outputs": [
        {
          "internalType": "uint256",
          "name": "",
          "type": "uint256"
        }
      ],
      "stateMutability": "view",
      "type": "function"
    },
    {
      "inputs": [],
      "name": "MAX_ALLOWED_CONTRACTS",
      "outputs": [
        {
          "internalType": "uint256",
          "name": "",
          "type": "uint256"
        }
      ],
      "stateMutability": "view",
      "type": "function"
    },
    {
      "inputs": [],
      "name": "MIN_EXPIRY_BUFFER",
      "outputs": [
        {
          "internalType": "uint256",
          "name": "",
          "type": "uint256"
        }
      ],
      "stateMutability": "view",
      "type": "function"
    },
    {
      "inputs": [],
      "name": "agentRegistry",
      "outputs": [
        {
          "internalType": "contract IAgentRegistry",
          "name": "",
          "type": "address"
        }
      ],
      "stateMutability": "view",
      "type": "function"
    },
    {
      "inputs": [
        {
          "internalType": "uint256",
          "name": "",
          "type": "uint256"
        }
      ],
      "name": "agentTracking",
      "outputs": [
        {
          "internalType": "uint128",
          "name": "dailySpent",
          "type": "uint128"
        },
        {
          "internalType": "uint48",
          "name": "dailyResetTime",
          "type": "uint48"
        },
        {
          "internalType": "uint48",
          "name": "lastExecution",
          "type": "uint48"
        },
        {
          "internalType": "uint32",
          "name": "activePositions",
          "type": "uint32"
        }
      ],
      "stateMutability": "view",
      "type": "function"
    },
    {
      "inputs": [
        {
          "internalType": "uint256",
          "name": "agentId",
          "type": "uint256"
        }
      ],
      "name": "closePosition",
      "outputs": [],
      "stateMutability": "nonpayable",
      "type": "function"
    },
    {
      "inputs": [],
      "name": "gateway",
      "outputs": [
        {
          "internalType": "address",
          "name": "",
          "type": "address"
        }
      ],
      "stateMutability": "view",
      "type": "function"
    },
    {
      "inputs": [
        {
          "internalType": "uint256",
          "name": "agentId",
          "type": "uint256"
        }
      ],
      "name": "getPolicy",
      "outputs": [
        {
          "internalType": "uint256",
          "name": "maxAmountPerAction",
          "type": "uint256"
        },
        {
          "internalType": "uint256",
          "name": "maxAmountPerDay",
          "type": "uint256"
        },
        {
          "internalType": "uint256",
          "name": "frequencyLimit",
          "type": "uint256"
        },
        {
          "internalType": "uint256",
          "name": "expiry",
          "type": "uint256"
        },
        {
          "internalType": "uint256",
          "name": "maxActivePositions",
          "type": "uint256"
        },
        {
          "internalType": "bool",
          "name": "active",
          "type": "bool"
        }
      ],
      "stateMutability": "view",
      "type": "function"
    },
    {
      "inputs": [
        {
          "internalType": "uint256",
          "name": "agentId",
          "type": "uint256"
        }
      ],
      "name": "getPolicyActions",
      "outputs": [
        {
          "internalType": "bytes32[]",
          "name": "",
          "type": "bytes32[]"
        }
      ],
      "stateMutability": "view",
      "type": "function"
    },
    {
      "inputs": [
        {
          "internalType": "uint256",
          "name": "agentId",
          "type": "uint256"
        }
      ],
      "name": "getPolicyContracts",
      "outputs": [
        {
          "internalType": "address[]",
          "name": "",
          "type": "address[]"
        }
      ],
      "stateMutability": "view",
      "type": "function"
    },
    {
      "inputs": [],
      "name": "owner",
      "outputs": [
        {
          "internalType": "address",
          "name": "",
          "type": "address"
        }
      ],
      "stateMutability": "view",
      "type": "function"
    },
    {
      "inputs": [],
      "name": "renounceOwnership",
      "outputs": [],
      "stateMutability": "nonpayable",
      "type": "function"
    },
    {
      "inputs": [
        {
          "internalType": "address",
          "name": "_gateway",
          "type": "address"
        }
      ],
      "name": "setGateway",
      "outputs": [],
      "stateMutability": "nonpayable",
      "type": "function"
    },
    {
      "inputs": [
        {
          "internalType": "uint256",
          "name": "agentId",
          "type": "uint256"
        },
        {
          "internalType": "uint256",
          "name": "maxAmountPerAction",
          "type": "uint256"
        },
        {
          "internalType": "uint256",
          "name": "maxAmountPerDay",
          "type": "uint256"
        },
        {
          "internalType": "uint256",
          "name": "frequencyLimit",
          "type": "uint256"
        },
        {
          "internalType": "uint256",
          "name": "expiry",
          "type": "uint256"
        },
        {
          "internalType": "address[]",
          "name": "allowedContracts",
          "type": "address[]"
        },
        {
          "internalType": "bytes32[]",
          "name": "allowedActions",
          "type": "bytes32[]"
        },
        {
          "internalType": "uint256",
          "name": "maxActivePositions",
          "type": "uint256"
        }
      ],
      "name": "setPolicy",
      "outputs": [],
      "stateMutability": "nonpayable",
      "type": "function"
    },
    {
      "inputs": [
        {
          "internalType": "address",
          "name": "newOwner",
          "type": "address"
        }
      ],
      "name": "transferOwnership",
      "outputs": [],
      "stateMutability": "nonpayable",
      "type": "function"
    },
    {
      "inputs": [
        {
          "internalType": "uint256",
          "name": "agentId",
          "type": "uint256"
        },
        {
          "internalType": "uint256",
          "name": "amount",
          "type": "uint256"
        }
      ],
      "name": "updateAfterExecution",
      "outputs": [],
      "stateMutability": "nonpayable",
      "type": "function"
    },
    {
      "inputs": [
        {
          "internalType": "uint256",
          "name": "agentId",
          "type": "uint256"
        },
        {
          "internalType": "address",
          "name": "target",
          "type": "address"
        },
        {
          "internalType": "bytes32",
          "name": "action",
          "type": "bytes32"
        },
        {
          "internalType": "uint256",
          "name": "amount",
          "type": "uint256"
        }
      ],
      "name": "validateExecution",
      "outputs": [
        {
          "internalType": "bool",
          "name": "valid",
          "type": "bool"
        },
        {
          "internalType": "string",
          "name": "reason",
          "type": "string"
        }
      ],
      "stateMutability": "view",
      "type": "function"
    }
  ],
  "bytecode": "0x60a0346100e657601f6114a138819003918201601f19168301916001600160401b038311848410176100ea578084926020946040528339810103126100e657516001600160a01b038116908190036100e65733156100d3575f8054336001600160a01b0319821681178355604051939290916001600160a01b0316907f8be0079c531659141344cd1fd0a4f28419497f9722a3daafe3b4186f6b6457e09080a380156100c4576080526113a290816100ff823960805181818161074a0152610dbe0152f35b6311a1e69760e01b5f5260045ffd5b631e4fbdf760e01b5f525f60045260245ffd5b5f80fd5b634e487b7160e01b5f52604160045260245ffdfe6080806040526004361015610012575f80fd5b5f3560e01c9081630d1cfcae14610dac57508063116191b614610d845780632b07fce314610d095780632e6ee82914610c4957806360b3568f14610c4e57806369494bf714610c495780636da54460146106c5578063715018a61461066e5780638a5a7541146106115780638da5cb5b146105ea57806390646b4a1461054c578063a126d6011461044e578063b8084eb4146103a5578063c36b7cbe1461038a578063d8b8c89414610317578063f2fde38b146102925763ff3343fc146100d7575f80fd5b3461028e57604036600319011261028e5760015460043590602435906001600160a01b03163303610280576001600160801b03811161027157815f52600360205260405f20916040519261012a84610e4e565b54906001600160801b0382168452602084019065ffffffffffff8360801c168252604085019365ffffffffffff8460b01c168552606086019360e01c845262015180420490620151808202918083046201518014901517156102525765ffffffffffff6001600160801b0392168065ffffffffffff86511610610266575b50166001600160801b03865116016001600160801b038111610252576001600160801b0316855265ffffffffffff4216845263ffffffff83511663ffffffff81146102525760010163ffffffff1683525f908152600360205260409020935190519251915160809390931b65ffffffffffff60801b166001600160801b03919091161760b09190911b65ffffffffffff60b01b161760e09190911b6001600160e01b031916179055005b634e487b7160e01b5f52601160045260245ffd5b5f885284525f6101a8565b63f20577e560e01b5f5260045ffd5b6282b42960e81b5f5260045ffd5b5f80fd5b3461028e57602036600319011261028e576102ab610e38565b6102b3611346565b6001600160a01b03168015610304575f80546001600160a01b03198116831782556001600160a01b0316907f8be0079c531659141344cd1fd0a4f28419497f9722a3daafe3b4186f6b6457e09080a3005b631e4fbdf760e01b5f525f60045260245ffd5b3461028e57608036600319011261028e576024356001600160a01b038116810361028e576103516060916064359060443590600435610f2c565b91906020604051938492151583526040828401528051918291826040860152018484015e5f828201840152601f01601f19168101030190f35b3461028e575f36600319011261028e576020604051603c8152f35b3461028e57602036600319011261028e576004355f526002602052600360405f2001604051806020835491828152019081935f5260205f20905f5b81811061043857505050816103f6910382610e69565b604051918291602083019060208452518091526040830191905f5b81811061041f575050500390f35b8251845285945060209384019390920191600101610411565b82548452602090930192600192830192016103e0565b3461028e57602036600319011261028e57600154600435906001600160a01b0316330361028057805f52600360205260405f20906040519161048f83610e4e565b54906001600160801b03821683526020830165ffffffffffff8360801c168152604084019265ffffffffffff8160b01c16845260e01c9160608501928084521561053d57825163ffffffff9081165f19011683525f908152600360205260409020935190519251915160809390931b65ffffffffffff60801b166001600160801b03919091161760b09190911b65ffffffffffff60b01b161760e09190911b6001600160e01b031916179055005b631e5921a560e31b5f5260045ffd5b3461028e57602036600319011261028e57610565610e38565b61056d611346565b600154906001600160a01b0382166105db576001600160a01b03169081156105cc576001600160a01b03191681176001556040519081527f5317fa585931182194fed99f2ea5f2efd38af9cff9724273704c8501c521e34b90602090a1005b63fc9dfe8560e01b5f5260045ffd5b633c3a86d560e01b5f5260045ffd5b3461028e575f36600319011261028e575f546040516001600160a01b039091168152602090f35b3461028e57602036600319011261028e576004355f526003602052608060405f2054604051906001600160801b038116825265ffffffffffff81841c16602083015265ffffffffffff8160b01c16604083015260e01c6060820152f35b3461028e575f36600319011261028e57610686611346565b5f80546001600160a01b0319811682556001600160a01b03167f8be0079c531659141344cd1fd0a4f28419497f9722a3daafe3b4186f6b6457e08280a3005b3461028e5761010036600319011261028e5760043560443560243560843560643560a4356001600160401b03811161028e57610705903690600401610e08565b60c4939193356001600160401b03811161028e57610727903690600401610e08565b604051632de5aaf760e01b8152600481018a9052909760e4359290915f816024817f00000000000000000000000000000000000000000000000000000000000000006001600160a01b03165afa908115610c3e575f91610b5e575b5080516001600160a01b03163303610b4f5760a0015115610b405760328411610b315760328911610b22578415158080610b0e575b610aff576001600160801b038911610271576001600160801b0383116102715763ffffffff87116102715780610af0575b6102715763ffffffff831161027157604051976101008901908982106001600160401b03831117610a69576001600160801b03916040521688526001600160801b03602089019216825263ffffffff604089019616865265ffffffffffff606089019516855263ffffffff608089019316835260a08801936001855261086d81610eec565b9761087b604051998a610e69565b818952602089019160051b81019036821161028e57915b818310610ad05750505060c088019687526108ac89610eec565b986108ba6040519a8b610e69565b808a5260208a019060051b82019136831161028e57905b828210610ac05750505060e08701978852885f5260026020526001600160801b038060405f20985116166001600160801b0319885416178755516001600160801b0387549181199060801b16911617865563ffffffff600187019451169269ffffffffffff000000008554915160201b169163ffffffff60501b905160501b169260ff60701b9051151560701b169360ff60701b19916dffffffffffffffffffffffffffff191617161717179055600282019051908151916001600160401b038311610a6957600160401b8311610a69578154838355808410610a9a575b50602001905f5260205f205f5b838110610a7d5785518051889160038801906001600160401b038311610a6957600160401b8311610a69578154838355808410610a43575b50602001905f5260205f205f5b838110610a2f57847f04906d8a9f80ed3fa270d512830928870e2ca0c16114ebb4f85ed052c67c94b25f80a2005b600190602084519401938184015501610a01565b825f528360205f2091820191015b818110610a5e57506109f4565b5f8155600101610a51565b634e487b7160e01b5f52604160045260245ffd5b82516001600160a01b0316818301556020909201916001016109bc565b825f528360205f2091820191015b818110610ab557506109af565b5f8155600101610aa8565b81358152602091820191016108d1565b82356001600160a01b038116810361028e57815260209283019201610892565b5065ffffffffffff85116107e8565b631f1694d360e21b5f5260045ffd5b50603c4201804211610252578611156107b7565b6308e3b1eb60e11b5f5260045ffd5b632990b15f60e11b5f5260045ffd5b632437e77160e11b5f5260045ffd5b630e41dcbf60e21b5f5260045ffd5b90503d805f833e610b6f8183610e69565b81019060208183031261028e578051906001600160401b03821161028e57019060c08282031261028e576040519160c083018381106001600160401b03821117610a695760405280516001600160a01b038116810361028e57835260208101516001600160401b03811161028e5782610be9918301610e8a565b602084015260408101516001600160401b03811161028e5760a092610c0f918301610e8a565b604084015260608101516060840152608081015160808401520151801515810361028e5760a08201528b610782565b6040513d5f823e3d90fd5b610ded565b3461028e57602036600319011261028e576004355f526002602052600260405f2001604051806020835491828152019081935f5260205f20905f5b818110610cea5750505081610c9f910382610e69565b604051918291602083019060208452518091526040830191905f5b818110610cc8575050500390f35b82516001600160a01b0316845285945060209384019390920191600101610cba565b82546001600160a01b0316845260209093019260019283019201610c89565b3461028e57602036600319011261028e576004355f52600260205260c060405f2060ff60018254920154604051926001600160801b038116845260801c602084015263ffffffff8116604084015265ffffffffffff8160201c16606084015263ffffffff8160501c16608084015260701c16151560a0820152f35b3461028e575f36600319011261028e576001546040516001600160a01b039091168152602090f35b3461028e575f36600319011261028e577f00000000000000000000000000000000000000000000000000000000000000006001600160a01b03168152602090f35b3461028e575f36600319011261028e57602060405160328152f35b9181601f8401121561028e578235916001600160401b03831161028e576020808501948460051b01011161028e57565b600435906001600160a01b038216820361028e57565b608081019081106001600160401b03821117610a6957604052565b90601f801991011681019081106001600160401b03821117610a6957604052565b81601f8201121561028e578051906001600160401b038211610a695760405192610ebe601f8401601f191660200185610e69565b8284526020838301011161028e57815f9260208093018386015e8301015290565b9190820180921161025257565b6001600160401b038111610a695760051b60200190565b8054821015610f18575f5260205f2001905f90565b634e487b7160e01b5f52603260045260245ffd5b929091835f52600260205260405f209060018201549360ff8560701c16156113135765ffffffffffff8560201c168015159081611308575b506112d457600283019081549081611237575b5050506003820190815490816111b5575b50505054926001600160801b03841680151590816111ab575b5061116a575f52600360205260405f209060405191610fbf83610e4e565b54936001600160801b03851691828452602084019165ffffffffffff8760801c1683526060604086019565ffffffffffff8960b01c168752019660e01c875260801c92836110dd575b5050505063ffffffff82169081611093575b505060501c63ffffffff168015159182611081575b505061104c57600190604051611046602082610e69565b5f815290565b5f9060405161105c604082610e69565b601581527413585e081c1bdcda5d1a5bdb9cc81c995858da1959605a1b602082015290565b5163ffffffff16101590505f8061102f565b9065ffffffffffff6110a6925116610edf565b42106110b3575f8061101a565b50505f906040516110c5604082610e69565b60088152672a37b79039b7b7b760c11b602082015290565b62015180420492620151808402938085046201518014901517156102525765ffffffffffff8061111f951691511610611163575b6001600160801b0316610edf565b1161112d575f808080611008565b5050505f90604051611140604082610e69565b6013815272115e18d959591cc819185a5b1e481b1a5b5a5d606a1b602082015290565b505f611111565b505050505f9060405161117e604082610e69565b601881527f45786365656473207065722d616374696f6e206c696d69740000000000000000602082015290565b905082115f610fa1565b5f925f5b838110611208575b50505050156111d2575f8080610f88565b505050505f906040516111e6604082610e69565b60128152711058dd1a5bdb881b9bdd08185b1b1bddd95960721b602082015290565b826112138284610f03565b90549060031b1c14611227576001016111b9565b505050505060015f8080806111c1565b5f925f5b838110611296575b5050505015611254575f8080610f77565b50505050505f90604051611269604082610e69565b601981527f436f6e7472616374206e6f7420696e2077686974656c69737400000000000000602082015290565b6112a08183610f03565b905460039190911b1c6001600160a01b03908116908416146112c45760010161123b565b505050505060015f808080611243565b5050505050505f906040516112ea604082610e69565b600e81526d141bdb1a58de48195e1c1a5c995960921b602082015290565b90504210155f610f64565b5050505050505f90604051611329604082610e69565b600d81526c141bdb1a58de481c185d5cd959609a1b602082015290565b5f546001600160a01b0316330361135957565b63118cdaa760e01b5f523360045260245ffdfea26469706673582212207f7540b818dca9a0507b0f91028056d3f55672041e55aa996d838517ddc039d664736f6c634300081b0033",
  "linkReferences": {},
  "deployedLinkReferences": {}
}