{
  "_format": "hh-sol-artifact-1",
  "contractName": "PredictionModule",
  "sourceName": "contracts/modules/PredictionModule.sol",
  "abi": [
    {
      "inputs": [
        {
          "internalType": "address",
          "name": "_oracle",
          "type": "address"
        },
        {
          "internalType": "address",
          "name": "_franchiseRegistry",
          "type": "address"
        }
      ],
      "stateMutability": "nonpayable",
      "type": "constructor"
    },
    {
      "inputs": [],
      "name": "AlreadyPredicted",
      "type": "error"
    },
    {
      "inputs": [],
      "name": "AlreadyResolved",
      "type": "error"
    },
    {
      "inputs": [],
      "name": "EnforcedPause",
      "type": "error"
    },
    {
      "inputs": [],
      "name": "ExpectedPause",
      "type": "error"
    },
    {
      "inputs": [],
      "name": "FranchiseNotActive",
      "type": "error"
    },
    {
      "inputs": [],
      "name": "InvalidMatchId",
      "type": "error"
    },
    {
      "inputs": [],
      "name": "InvalidOutcome",
      "type": "error"
    },
    {
      "inputs": [],
      "name": "InvalidPredictionType",
      "type": "error"
    },
    {
      "inputs": [],
      "name": "MatchAlreadyStarted",
      "type": "error"
    },
    {
      "inputs": [],
      "name": "MatchPredictionsFull",
      "type": "error"
    },
    {
      "inputs": [
        {
          "internalType": "address",
          "name": "owner",
          "type": "address"
        }
      ],
      "name": "OwnableInvalidOwner",
      "type": "error"
    },
    {
      "inputs": [
        {
          "internalType": "address",
          "name": "account",
          "type": "address"
        }
      ],
      "name": "OwnableUnauthorizedAccount",
      "type": "error"
    },
    {
      "inputs": [],
      "name": "ZeroAddress",
      "type": "error"
    },
    {
      "anonymous": false,
      "inputs": [
        {
          "indexed": true,
          "internalType": "uint256",
          "name": "matchId",
          "type": "uint256"
        }
      ],
      "name": "MatchPredictionsCancelled",
      "type": "event"
    },
    {
      "anonymous": false,
      "inputs": [
        {
          "indexed": true,
          "internalType": "address",
          "name": "previousOwner",
          "type": "address"
        },
        {
          "indexed": true,
          "internalType": "address",
          "name": "newOwner",
          "type": "address"
        }
      ],
      "name": "OwnershipTransferred",
      "type": "event"
    },
    {
      "anonymous": false,
      "inputs": [
        {
          "indexed": false,
          "internalType": "address",
          "name": "account",
          "type": "address"
        }
      ],
      "name": "Paused",
      "type": "event"
    },
    {
      "anonymous": false,
      "inputs": [
        {
          "indexed": true,
          "internalType": "uint256",
          "name": "predictionId",
          "type": "uint256"
        }
      ],
      "name": "PredictionCancelled",
      "type": "event"
    },
    {
      "anonymous": false,
      "inputs": [
        {
          "indexed": true,
          "internalType": "uint256",
          "name": "predictionId",
          "type": "uint256"
        },
        {
          "indexed": true,
          "internalType": "uint256",
          "name": "matchId",
          "type": "uint256"
        },
        {
          "indexed": true,
          "internalType": "address",
          "name": "predictor",
          "type": "address"
        },
        {
          "indexed": false,
          "internalType": "bytes32",
          "name": "predictionType",
          "type": "bytes32"
        },
        {
          "indexed": false,
          "internalType": "bytes32",
          "name": "predictedOutcome",
          "type": "bytes32"
        }
      ],
      "name": "PredictionCreated",
      "type": "event"
    },
    {
      "anonymous": false,
      "inputs": [
        {
          "indexed": true,
          "internalType": "uint256",
          "name": "predictionId",
          "type": "uint256"
        },
        {
          "indexed": true,
          "internalType": "address",
          "name": "predictor",
          "type": "address"
        },
        {
          "indexed": false,
          "internalType": "bool",
          "name": "correct",
          "type": "bool"
        },
        {
          "indexed": false,
          "internalType": "uint256",
          "name": "pointsEarned",
          "type": "uint256"
        }
      ],
      "name": "PredictionResolved",
      "type": "event"
    },
    {
      "anonymous": false,
      "inputs": [
        {
          "indexed": true,
          "internalType": "address",
          "name": "predictor",
          "type": "address"
        },
        {
          "indexed": false,
          "internalType": "uint256",
          "name": "streakLength",
          "type": "uint256"
        }
      ],
      "name": "StreakAchieved",
      "type": "event"
    },
    {
      "anonymous": false,
      "inputs": [
        {
          "indexed": false,
          "internalType": "address",
          "name": "account",
          "type": "address"
        }
      ],
      "name": "Unpaused",
      "type": "event"
    },
    {
      "inputs": [],
      "name": "BASE_POINTS",
      "outputs": [
        {
          "internalType": "uint256",
          "name": "",
          "type": "uint256"
        }
      ],
      "stateMutability": "view",
      "type": "function"
    },
    {
      "inputs": [],
      "name": "EARLY_BIRD_BONUS",
      "outputs": [
        {
          "internalType": "uint256",
          "name": "",
          "type": "uint256"
        }
      ],
      "stateMutability": "view",
      "type": "function"
    },
    {
      "inputs": [],
      "name": "EARLY_BIRD_WINDOW",
      "outputs": [
        {
          "internalType": "uint256",
          "name": "",
          "type": "uint256"
        }
      ],
      "stateMutability": "view",
      "type": "function"
    },
    {
      "inputs": [],
      "name": "MAX_PREDICTIONS_PER_MATCH",
      "outputs": [
        {
          "internalType": "uint256",
          "name": "",
          "type": "uint256"
        }
      ],
      "stateMutability": "view",
      "type": "function"
    },
    {
      "inputs": [],
      "name": "MAX_PREDICTION_TYPES",
      "outputs": [
        {
          "internalType": "uint256",
          "name": "",
          "type": "uint256"
        }
      ],
      "stateMutability": "view",
      "type": "function"
    },
    {
      "inputs": [],
      "name": "MAX_STREAK_BONUS",
      "outputs": [
        {
          "internalType": "uint256",
          "name": "",
          "type": "uint256"
        }
      ],
      "stateMutability": "view",
      "type": "function"
    },
    {
      "inputs": [],
      "name": "STREAK_BONUS_PER",
      "outputs": [
        {
          "internalType": "uint256",
          "name": "",
          "type": "uint256"
        }
      ],
      "stateMutability": "view",
      "type": "function"
    },
    {
      "inputs": [
        {
          "internalType": "uint256",
          "name": "matchId",
          "type": "uint256"
        }
      ],
      "name": "cancelMatchPredictions",
      "outputs": [],
      "stateMutability": "nonpayable",
      "type": "function"
    },
    {
      "inputs": [
        {
          "internalType": "uint256",
          "name": "franchiseId",
          "type": "uint256"
        },
        {
          "internalType": "uint256",
          "name": "matchId",
          "type": "uint256"
        },
        {
          "internalType": "bytes32",
          "name": "predictionType",
          "type": "bytes32"
        },
        {
          "internalType": "bytes32",
          "name": "predictedOutcome",
          "type": "bytes32"
        }
      ],
      "name": "createPrediction",
      "outputs": [
        {
          "internalType": "uint256",
          "name": "",
          "type": "uint256"
        }
      ],
      "stateMutability": "nonpayable",
      "type": "function"
    },
    {
      "inputs": [],
      "name": "franchiseRegistry",
      "outputs": [
        {
          "internalType": "contract IFranchiseRegistry",
          "name": "",
          "type": "address"
        }
      ],
      "stateMutability": "view",
      "type": "function"
    },
    {
      "inputs": [
        {
          "internalType": "uint256",
          "name": "matchId",
          "type": "uint256"
        }
      ],
      "name": "getMatchPredictions",
      "outputs": [
        {
          "internalType": "uint256[]",
          "name": "",
          "type": "uint256[]"
        }
      ],
      "stateMutability": "view",
      "type": "function"
    },
    {
      "inputs": [
        {
          "internalType": "uint256",
          "name": "predictionId",
          "type": "uint256"
        }
      ],
      "name": "getPrediction",
      "outputs": [
        {
          "components": [
            {
              "internalType": "uint256",
              "name": "predictionId",
              "type": "uint256"
            },
            {
              "internalType": "uint256",
              "name": "franchiseId",
              "type": "uint256"
            },
            {
              "internalType": "address",
              "name": "predictor",
              "type": "address"
            },
            {
              "internalType": "enum PredictionModule.PredictionStatus",
              "name": "status",
              "type": "uint8"
            },
            {
              "internalType": "uint256",
              "name": "matchId",
              "type": "uint256"
            },
            {
              "internalType": "bytes32",
              "name": "predictionType",
              "type": "bytes32"
            },
            {
              "internalType": "bytes32",
              "name": "predictedOutcome",
              "type": "bytes32"
            },
            {
              "internalType": "bool",
              "name": "correct",
              "type": "bool"
            },
            {
              "internalType": "uint256",
              "name": "pointsEarned",
              "type": "uint256"
            },
            {
              "internalType": "uint256",
              "name": "createdAt",
              "type": "uint256"
            }
          ],
          "internalType": "struct PredictionModule.Prediction",
          "name": "",
          "type": "tuple"
        }
      ],
      "stateMutability": "view",
      "type": "function"
    },
    {
      "inputs": [
        {
          "internalType": "address",
          "name": "user",
          "type": "address"
        }
      ],
      "name": "getUserPredictions",
      "outputs": [
        {
          "internalType": "uint256[]",
          "name": "",
          "type": "uint256[]"
        }
      ],
      "stateMutability": "view",
      "type": "function"
    },
    {
      "inputs": [
        {
          "internalType": "address",
          "name": "user",
          "type": "address"
        }
      ],
      "name": "getUserStats",
      "outputs": [
        {
          "components": [
            {
              "internalType": "uint256",
              "name": "totalPoints",
              "type": "uint256"
            },
            {
              "internalType": "uint256",
              "name": "totalCorrect",
              "type": "uint256"
            },
            {
              "internalType": "uint256",
              "name": "totalPredictions",
              "type": "uint256"
            },
            {
              "internalType": "uint256",
              "name": "currentStreak",
              "type": "uint256"
            }
          ],
          "internalType": "struct PredictionModule.UserStats",
          "name": "stats",
          "type": "tuple"
        }
      ],
      "stateMutability": "view",
      "type": "function"
    },
    {
      "inputs": [
        {
          "internalType": "address",
          "name": "",
          "type": "address"
        },
        {
          "internalType": "uint256",
          "name": "",
          "type": "uint256"
        },
        {
          "internalType": "bytes32",
          "name": "",
          "type": "bytes32"
        }
      ],
      "name": "hasPredicted",
      "outputs": [
        {
          "internalType": "bool",
          "name": "",
          "type": "bool"
        }
      ],
      "stateMutability": "view",
      "type": "function"
    },
    {
      "inputs": [
        {
          "internalType": "uint256",
          "name": "",
          "type": "uint256"
        },
        {
          "internalType": "uint256",
          "name": "",
          "type": "uint256"
        }
      ],
      "name": "matchPredictions",
      "outputs": [
        {
          "internalType": "uint256",
          "name": "",
          "type": "uint256"
        }
      ],
      "stateMutability": "view",
      "type": "function"
    },
    {
      "inputs": [],
      "name": "oracle",
      "outputs": [
        {
          "internalType": "contract IMatchOracle",
          "name": "",
          "type": "address"
        }
      ],
      "stateMutability": "view",
      "type": "function"
    },
    {
      "inputs": [],
      "name": "owner",
      "outputs": [
        {
          "internalType": "address",
          "name": "",
          "type": "address"
        }
      ],
      "stateMutability": "view",
      "type": "function"
    },
    {
      "inputs": [],
      "name": "pause",
      "outputs": [],
      "stateMutability": "nonpayable",
      "type": "function"
    },
    {
      "inputs": [],
      "name": "paused",
      "outputs": [
        {
          "internalType": "bool",
          "name": "",
          "type": "bool"
        }
      ],
      "stateMutability": "view",
      "type": "function"
    },
    {
      "inputs": [],
      "name": "predictionCount",
      "outputs": [
        {
          "internalType": "uint256",
          "name": "",
          "type": "uint256"
        }
      ],
      "stateMutability": "view",
      "type": "function"
    },
    {
      "inputs": [
        {
          "internalType": "uint256",
          "name": "",
          "type": "uint256"
        }
      ],
      "name": "predictions",
      "outputs": [
        {
          "internalType": "uint256",
          "name": "predictionId",
          "type": "uint256"
        },
        {
          "internalType": "uint256",
          "name": "franchiseId",
          "type": "uint256"
        },
        {
          "internalType": "address",
          "name": "predictor",
          "type": "address"
        },
        {
          "internalType": "enum PredictionModule.PredictionStatus",
          "name": "status",
          "type": "uint8"
        },
        {
          "internalType": "uint256",
          "name": "matchId",
          "type": "uint256"
        },
        {
          "internalType": "bytes32",
          "name": "predictionType",
          "type": "bytes32"
        },
        {
          "internalType": "bytes32",
          "name": "predictedOutcome",
          "type": "bytes32"
        },
        {
          "internalType": "bool",
          "name": "correct",
          "type": "bool"
        },
        {
          "internalType": "uint256",
          "name": "pointsEarned",
          "type": "uint256"
        },
        {
          "internalType": "uint256",
          "name": "createdAt",
          "type": "uint256"
        }
      ],
      "stateMutability": "view",
      "type": "function"
    },
    {
      "inputs": [],
      "name": "renounceOwnership",
      "outputs": [],
      "stateMutability": "nonpayable",
      "type": "function"
    },
    {
      "inputs": [
        {
          "internalType": "uint256",
          "name": "matchId",
          "type": "uint256"
        },
        {
          "internalType": "bytes32",
          "name": "predictionType",
          "type": "bytes32"
        },
        {
          "internalType": "bytes32",
          "name": "actualOutcome",
          "type": "bytes32"
        }
      ],
      "name": "resolveAllMatchPredictions",
      "outputs": [],
      "stateMutability": "nonpayable",
      "type": "function"
    },
    {
      "inputs": [
        {
          "internalType": "uint256",
          "name": "matchId",
          "type": "uint256"
        },
        {
          "internalType": "bytes32",
          "name": "predictionType",
          "type": "bytes32"
        },
        {
          "internalType": "bytes32",
          "name": "actualOutcome",
          "type": "bytes32"
        },
        {
          "internalType": "uint256",
          "name": "startIndex",
          "type": "uint256"
        },
        {
          "internalType": "uint256",
          "name": "endIndex",
          "type": "uint256"
        }
      ],
      "name": "resolveMatchPredictions",
      "outputs": [],
      "stateMutability": "nonpayable",
      "type": "function"
    },
    {
      "inputs": [
        {
          "internalType": "uint256",
          "name": "predictionId",
          "type": "uint256"
        },
        {
          "internalType": "bytes32",
          "name": "actualOutcome",
          "type": "bytes32"
        }
      ],
      "name": "resolvePrediction",
      "outputs": [],
      "stateMutability": "nonpayable",
      "type": "function"
    },
    {
      "inputs": [
        {
          "internalType": "bytes32",
          "name": "predictionType",
          "type": "bytes32"
        },
        {
          "internalType": "bool",
          "name": "valid",
          "type": "bool"
        }
      ],
      "name": "setPredictionType",
      "outputs": [],
      "stateMutability": "nonpayable",
      "type": "function"
    },
    {
      "inputs": [
        {
          "internalType": "address",
          "name": "newOwner",
          "type": "address"
        }
      ],
      "name": "transferOwnership",
      "outputs": [],
      "stateMutability": "nonpayable",
      "type": "function"
    },
    {
      "inputs": [],
      "name": "unpause",
      "outputs": [],
      "stateMutability": "nonpayable",
      "type": "function"
    },
    {
      "inputs": [
        {
          "internalType": "address",
          "name": "",
          "type": "address"
        },
        {
          "internalType": "uint256",
          "name": "",
          "type": "uint256"
        }
      ],
      "name": "userPredictions",
      "outputs": [
        {
          "internalType": "uint256",
          "name": "",
          "type": "uint256"
        }
      ],
      "stateMutability": "view",
      "type": "function"
    },
    {
      "inputs": [
        {
          "internalType": "address",
          "name": "",
          "type": "address"
        }
      ],
      "name": "userStats",
      "outputs": [
        {
          "internalType": "uint256",
          "name": "totalPoints",
          "type": "uint256"
        },
        {
          "internalType": "uint256",
          "name": "totalCorrect",
          "type": "uint256"
        },
        {
          "internalType": "uint256",
          "name": "totalPredictions",
          "type": "uint256"
        },
        {
          "internalType": "uint256",
          "name": "currentStreak",
          "type": "uint256"
        }
      ],
      "stateMutability": "view",
      "type": "function"
    },
    {
      "inputs": [
        {
          "internalType": "bytes32",
          "name": "",
          "type": "bytes32"
        }
      ],
      "name": "validPredictionTypes",
      "outputs": [
        {
          "internalType": "bool",
          "name": "",
          "type": "bool"
        }
      ],
      "stateMutability": "view",
      "type": "function"
    }
  ],
  "bytecode": "0x60c03461011b57601f61190338819003918201601f19168301916001600160401b0383118484101761011f57808492604094855283398101031261011b57610052602061004b83610133565b9201610133565b3315610108575f8054336001600160a01b0319821681178355604051949290916001600160a01b0316907f8be0079c531659141344cd1fd0a4f28419497f9722a3daafe3b4186f6b6457e09080a36001600160a01b03169081156100f9576001600160a01b03169081156100f95760805260a0526117bb9081610148823960805181818161074501528181610e6601526115c3015260a0518181816103e101526106e80152f35b63d92e233d60e01b5f5260045ffd5b631e4fbdf760e01b5f525f60045260245ffd5b5f80fd5b634e487b7160e01b5f52604160045260245ffd5b51906001600160a01b038216820361011b5756fe6080806040526004361015610012575f80fd5b5f3560e01c9081624fbbb0146111cf575080630a3f1c0d146111b45780632177874d14611198578063235c802d1461117d5780632beb5153146111195780633f4ba83a146110ad57806343c3826914610fc95780634e43603a14610f2b57806354575e5214610f105780635c975abb14610eec578063715018a614610e955780637dc0d1d014610e5157806382eaf11714610e225780638456cb5914610dc2578063876c139914610d7a5780638a65d87414610d205780638d33a95714610ccb5780638da5cb5b14610ca45780638df5b63714610c885780638e0596a214610c6b5780639a92825914610b1e578063b5ab1c5d14610b03578063ba86cd811461069c578063c0bc581d1461063f578063c285f853146105bd578063cfa720d114610462578063dde77f1f14610447578063df10b45f14610410578063e82e1437146103cc578063f2fde38b14610347578063f6c33179146102ef5763fe83bece1461017b575f80fd5b346102eb5760203660031901126102eb575f61012060405161019c81611310565b8281528260208201528260408201528260608201528260808201528260a08201528260c08201528260e08201528261010082015201526004355f52600160205260405f206040516101ec81611310565b8154815260018201546020820190815260028301546001600160a01b0381166040840190815260a09190911c60ff1693906060840160038610156102d75761014095815260038301546080860190815260048401549060a087019182526102ad60058601549360c0890194855260ff6006880154169560e08a01961515875260086007890154986101008c01998a520154986101208b01998a526040519a518b525160208b015260018060a01b0390511660408a0152516060890190611270565b5160808701525160a08601525160c085015251151560e08401525161010083015251610120820152f35b634e487b7160e01b5f52602160045260245ffd5b5f80fd5b346102eb5760403660031901126102eb576103086112b6565b6001600160a01b03165f908152600360205260409020805460243591908210156102eb57602091610338916112cc565b90549060031b1c604051908152f35b346102eb5760203660031901126102eb576103606112b6565b61036861150a565b6001600160a01b031680156103b9575f80546001600160a01b03198116831782556001600160a01b0316907f8be0079c531659141344cd1fd0a4f28419497f9722a3daafe3b4186f6b6457e09080a3005b631e4fbdf760e01b5f525f60045260245ffd5b346102eb575f3660031901126102eb576040517f00000000000000000000000000000000000000000000000000000000000000006001600160a01b03168152602090f35b346102eb5760403660031901126102eb576024356004355f52600260205260405f2080548210156102eb57602091610338916112cc565b346102eb575f3660031901126102eb576020604051600a8152f35b346102eb5760203660031901126102eb5760043561047e61150a565b805f52600260205260405f20604051808260208294549384815201905f5260205f20925f5b8181106105a45750506104b89250038261132c565b8051905f5b8281106104eb57837f82e9eed3543a82fd01e27eef3f4a7b50144024cb06d5d24f8ee0fdc02f3d65895f80a2005b6104f5818361134d565b515f52600160205260405f2090600282019160ff835460a01c169260038410156102d7576001931561052a575b5050016104bd565b8360a11b60ff60a01b19825416178155838060a01b039054165f52600560205260405f20865f52602052600460405f209101545f5260205260405f2060ff198154169055610578818461134d565b517faf9d749692c27edb73692839024a98f047b114c6fd450acf3c702120928a2be25f80a28580610522565b84548352600194850194869450602090930192016104a3565b346102eb5760203660031901126102eb576001600160a01b036105de6112b6565b165f52600360205260405f206040519081602082549182815201915f5260205f20905f5b81811061062957610625856106198187038261132c565b6040519182918261127d565b0390f35b8254845260209093019260019283019201610602565b346102eb5760403660031901126102eb5761065861150a565b6004355f52600160205260405f2060ff600282015460a01c1660038110156102d75761068d5761068b9060243590611530565b005b6336ab81e160e11b5f5260045ffd5b346102eb5760803660031901126102eb576004356064356044356024356106c1611768565b8015610af4578215610ae557604051630f93afeb60e11b8152600481018590525f816024817f00000000000000000000000000000000000000000000000000000000000000006001600160a01b03165afa80156109d2575f906109ec575b60a091500151156109dd5760405163995e433960e01b8152600481018290525f816024817f00000000000000000000000000000000000000000000000000000000000000006001600160a01b03165afa80156109d2576080915f916109b0575b50015180151590816109a5575b5061099657815f52600660205260ff60405f2054161561098757805f5260026020526103e860405f2054101561097857335f52600560205260405f20815f5260205260405f20825f5260205260ff60405f2054166109695760016007540192836007556040516107fb81611310565b848152602081019586526040810133815260608201965f8852608083019785895260a0840187815260c0850186815260e08601905f82526101008701935f85526101208801954287528c5f52600160205260405f2098518955516001890155600288019660018060a01b039051166bffffffffffffffffffffffff60a01b885416178755519260038410156102d75760209c6008976108d69581549060ff60a01b9060a01b169060ff60a01b1916179055516003890155516004880155516005870155511515600686019060ff801983541691151516179055565b51600784015551910155335f526005855260405f20825f52855260405f20835f52855260405f20600160ff19825416179055815f526002855261091c8460405f206114d1565b335f52600385526109308460405f206114d1565b60405192835284830152827f4706a8e9b7c705c5dcb522bc856422d7d8f35492981ae81a6067cde4b3d79d6760403394a4604051908152f35b633b9e91cf60e01b5f5260045ffd5b63ecdcc1ad60e01b5f5260045ffd5b6353d848b760e11b5f5260045ffd5b63d110237b60e01b5f5260045ffd5b90504210158561078c565b6109cc91503d805f833e6109c4818361132c565b8101906113d7565b8661077f565b6040513d5f823e3d90fd5b631ee6819360e01b5f5260045ffd5b503d805f833e6109fc818361132c565b8101906020818303126102eb578051906001600160401b0382116102eb57019060e0828203126102eb576040519060e082018281106001600160401b03821117610ad1576040528251825260208301516001600160401b0381116102eb5781610a66918501611361565b60208301526040830151926001600160401b0384116102eb57610a8f60c09260a0958301611361565b6040840152610aa0606082016113b6565b6060840152610ab1608082016113b6565b6080840152610ac18482016113ca565b84840152015160c082015261071f565b634e487b7160e01b5f52604160045260245ffd5b63c74a206d60e01b5f5260045ffd5b6324f45c6160e21b5f5260045ffd5b346102eb575f3660031901126102eb57602060405160648152f35b346102eb5760a03660031901126102eb57602435606435604435608435610b4361150a565b80926004355f52600260205260405f2091604051808460208296549384815201905f5260205f20925f5b818110610c52575050610b829250038461132c565b825190818115918215610c48575b5050610c40575b5083811015610c0b575b838110610baa57005b610bb4818361134d565b515f52600160205260405f209060ff600283015460a01c169160038310156102d757846001931580610bfe575b610bee575b505001610ba1565b610bf791611530565b8684610be6565b5087600483015414610be1565b60405162461bcd60e51b815260206004820152600d60248201526c496e76616c69642072616e676560981b6044820152606490fd5b935085610b97565b1190508188610b90565b8454835260019485019488945060209093019201610b6d565b346102eb575f3660031901126102eb576020600754604051908152f35b346102eb575f3660031901126102eb576020604051610e108152f35b346102eb575f3660031901126102eb575f546040516001600160a01b039091168152602090f35b346102eb5760603660031901126102eb576001600160a01b03610cec6112b6565b165f52600560205260405f206024355f5260205260405f206044355f52602052602060ff60405f2054166040519015158152f35b346102eb5760203660031901126102eb576001600160a01b03610d416112b6565b165f526004602052608060405f208054906001810154906003600282015491015491604051938452602084015260408301526060820152f35b346102eb5760403660031901126102eb5760243580151581036102eb5761068b90610da361150a565b6004355f52600660205260405f209060ff801983541691151516179055565b346102eb575f3660031901126102eb57610dda61150a565b610de2611768565b5f805460ff60a01b1916600160a01b1790556040513381527f62e78cea01bee320cd4e420270b5ea74000d11b0c9f74754ebdbfc544b05a25890602090a1005b346102eb5760203660031901126102eb576004355f526006602052602060ff60405f2054166040519015158152f35b346102eb575f3660031901126102eb576040517f00000000000000000000000000000000000000000000000000000000000000006001600160a01b03168152602090f35b346102eb575f3660031901126102eb57610ead61150a565b5f80546001600160a01b0319811682556001600160a01b03167f8be0079c531659141344cd1fd0a4f28419497f9722a3daafe3b4186f6b6457e08280a3005b346102eb575f3660031901126102eb57602060ff5f5460a01c166040519015158152f35b346102eb575f3660031901126102eb57602060405160328152f35b346102eb5760203660031901126102eb57610f446112b6565b5f6060604051610f53816112f5565b828152826020820152826040820152015260018060a01b03165f526004602052608060405f20604051610f85816112f5565b815491828252600181015460208301908152606060036002840154936040860194855201549301928352604051938452516020840152516040830152516060820152f35b346102eb5760603660031901126102eb57602435604435610fe861150a565b6004355f52600260205260405f2090604051808360208295549384815201905f5260205f20925f5b8181106110945750506110259250038361132c565b8151915f5b83811061103357005b61103d818361134d565b515f52600160205260405f209060ff600283015460a01c169160038310156102d757846001931580611087575b611077575b50500161102a565b61108091611530565b868461106f565b508760048301541461106a565b8454835260019485019487945060209093019201611010565b346102eb575f3660031901126102eb576110c561150a565b5f5460ff8160a01c161561110a5760ff60a01b19165f556040513381527f5db9ee0a495bf2e6ff9c91a7834c1ba4fdd244a5e8aa4e537bd38aeae4b073aa90602090a1005b638dfc202b60e01b5f5260045ffd5b346102eb5760203660031901126102eb576004355f52600260205260405f206040519081602082549182815201915f5260205f20905f5b81811061116757610625856106198187038261132c565b8254845260209093019260019283019201611150565b346102eb575f3660031901126102eb57602060405160198152f35b346102eb575f3660031901126102eb5760206040516103e88152f35b346102eb575f3660031901126102eb57602060405160c88152f35b346102eb5760203660031901126102eb57610140906004355f52600160205260405f2080549060018101546002820154600383015460048401549061124c60058601549360ff6006880154169560086007890154980154988a5260208a015260018060a01b03811660408a015260ff60608a019160a01c16611270565b608087015260a086015260c0850152151560e0840152610100830152610120820152f35b9060038210156102d75752565b60206040818301928281528451809452019201905f5b8181106112a05750505090565b8251845260209384019390920191600101611293565b600435906001600160a01b03821682036102eb57565b80548210156112e1575f5260205f2001905f90565b634e487b7160e01b5f52603260045260245ffd5b608081019081106001600160401b03821117610ad157604052565b61014081019081106001600160401b03821117610ad157604052565b90601f801991011681019081106001600160401b03821117610ad157604052565b80518210156112e15760209160051b010190565b81601f820112156102eb578051906001600160401b038211610ad15760405192611395601f8401601f19166020018561132c565b828452602083830101116102eb57815f9260208093018386015e8301015290565b51906001600160a01b03821682036102eb57565b519081151582036102eb57565b6020818303126102eb578051906001600160401b0382116102eb570190610120828203126102eb576040519161012083018381106001600160401b03821117610ad157604052805183526020810151602084015260408101516001600160401b0381116102eb578261144a918301611361565b604084015260608101516001600160401b0381116102eb578261146e918301611361565b60608401526080810151608084015261148960a082016113ca565b60a084015261149a60c082016113ca565b60c084015260e08101516001600160401b0381116102eb57610100926114c1918301611361565b60e0840152015161010082015290565b805468010000000000000000811015610ad1576114f3916001820181556112cc565b819291549060031b91821b915f19901b1916179055565b5f546001600160a01b0316330361151d57565b63118cdaa760e01b5f523360045260245ffd5b60028101805460ff60a01b198116600160a01b179091556001600160a01b03165f8181526004602052604090206005830154919390910361175a5760068201600160ff1982541617905560038101908154916019830290838204601914841517156117235760c88211611751575b600385015460405163995e433960e01b815260048101919091525f94909285846024817f00000000000000000000000000000000000000000000000000000000000000006001600160a01b03165afa9384156109d25788946080915f91611737575b50018051151590816116fe575b50600296606493926001926116f5575b01918383885401018755818701828154019055018355016007860155546003811480156116eb575b80156116e1575b80156116d7575b6116a5575b50505b01600181540190557ff59a207165a88bfd88b106f8d936e969a773e88c5258dc5b9711499aab28e6256040825492600760ff600683015416910154825191151582526020820152a3565b60207ff26254ba78e76f6b8ac0cf938bf7a96ccc9544c432cf148e1db1e0c85abc703b91604051908152a2835f611658565b5060198114611653565b50600a811461164c565b5060058114611645565b6032915061161d565b9291945050600887015491610e1083018093116117235751889491921115600261160d565b634e487b7160e01b5f52601160045260245ffd5b61174b91503d805f833e6109c4818361132c565b5f611600565b60c8915061159e565b805f6003600293015561165b565b60ff5f5460a01c1661177657565b63d93c066560e01b5f5260045ffdfea2646970667358221220e8645063d3fc627e4495c3b9944cd7643314c7e6fcb345a0a6d67b7f27bf401964736f6c634300081b0033",
  "linkReferences": {},
  "deployedLinkReferences": {}
}