{
  "_format": "hh-sol-artifact-1",
  "contractName": "PredictionModule",
  "sourceName": "contracts/modules/PredictionModule.sol",
  "abi": [
    {
      "inputs": [
        {
          "internalType": "address",
          "name": "_oracle",
          "type": "address"
        },
        {
          "internalType": "address",
          "name": "_franchiseRegistry",
          "type": "address"
        }
      ],
      "stateMutability": "nonpayable",
      "type": "constructor"
    },
    {
      "inputs": [],
      "name": "AlreadyPredicted",
      "type": "error"
    },
    {
      "inputs": [],
      "name": "AlreadyResolved",
      "type": "error"
    },
    {
      "inputs": [],
      "name": "FranchiseNotActive",
      "type": "error"
    },
    {
      "inputs": [],
      "name": "InvalidMatchId",
      "type": "error"
    },
    {
      "inputs": [],
      "name": "InvalidPredictionType",
      "type": "error"
    },
    {
      "inputs": [],
      "name": "MatchAlreadyStarted",
      "type": "error"
    },
    {
      "inputs": [],
      "name": "MatchPredictionsFull",
      "type": "error"
    },
    {
      "inputs": [
        {
          "internalType": "address",
          "name": "owner",
          "type": "address"
        }
      ],
      "name": "OwnableInvalidOwner",
      "type": "error"
    },
    {
      "inputs": [
        {
          "internalType": "address",
          "name": "account",
          "type": "address"
        }
      ],
      "name": "OwnableUnauthorizedAccount",
      "type": "error"
    },
    {
      "inputs": [],
      "name": "ZeroAddress",
      "type": "error"
    },
    {
      "anonymous": false,
      "inputs": [
        {
          "indexed": true,
          "internalType": "uint256",
          "name": "matchId",
          "type": "uint256"
        }
      ],
      "name": "MatchPredictionsCancelled",
      "type": "event"
    },
    {
      "anonymous": false,
      "inputs": [
        {
          "indexed": true,
          "internalType": "address",
          "name": "previousOwner",
          "type": "address"
        },
        {
          "indexed": true,
          "internalType": "address",
          "name": "newOwner",
          "type": "address"
        }
      ],
      "name": "OwnershipTransferred",
      "type": "event"
    },
    {
      "anonymous": false,
      "inputs": [
        {
          "indexed": true,
          "internalType": "uint256",
          "name": "predictionId",
          "type": "uint256"
        }
      ],
      "name": "PredictionCancelled",
      "type": "event"
    },
    {
      "anonymous": false,
      "inputs": [
        {
          "indexed": true,
          "internalType": "uint256",
          "name": "predictionId",
          "type": "uint256"
        },
        {
          "indexed": true,
          "internalType": "uint256",
          "name": "matchId",
          "type": "uint256"
        },
        {
          "indexed": true,
          "internalType": "address",
          "name": "predictor",
          "type": "address"
        },
        {
          "indexed": false,
          "internalType": "bytes32",
          "name": "predictionType",
          "type": "bytes32"
        },
        {
          "indexed": false,
          "internalType": "bytes32",
          "name": "predictedOutcome",
          "type": "bytes32"
        }
      ],
      "name": "PredictionCreated",
      "type": "event"
    },
    {
      "anonymous": false,
      "inputs": [
        {
          "indexed": true,
          "internalType": "uint256",
          "name": "predictionId",
          "type": "uint256"
        },
        {
          "indexed": true,
          "internalType": "address",
          "name": "predictor",
          "type": "address"
        },
        {
          "indexed": false,
          "internalType": "bool",
          "name": "correct",
          "type": "bool"
        },
        {
          "indexed": false,
          "internalType": "uint256",
          "name": "pointsEarned",
          "type": "uint256"
        }
      ],
      "name": "PredictionResolved",
      "type": "event"
    },
    {
      "anonymous": false,
      "inputs": [
        {
          "indexed": true,
          "internalType": "address",
          "name": "predictor",
          "type": "address"
        },
        {
          "indexed": false,
          "internalType": "uint256",
          "name": "streakLength",
          "type": "uint256"
        }
      ],
      "name": "StreakAchieved",
      "type": "event"
    },
    {
      "inputs": [],
      "name": "BASE_POINTS",
      "outputs": [
        {
          "internalType": "uint256",
          "name": "",
          "type": "uint256"
        }
      ],
      "stateMutability": "view",
      "type": "function"
    },
    {
      "inputs": [],
      "name": "EARLY_BIRD_BONUS",
      "outputs": [
        {
          "internalType": "uint256",
          "name": "",
          "type": "uint256"
        }
      ],
      "stateMutability": "view",
      "type": "function"
    },
    {
      "inputs": [],
      "name": "EARLY_BIRD_WINDOW",
      "outputs": [
        {
          "internalType": "uint256",
          "name": "",
          "type": "uint256"
        }
      ],
      "stateMutability": "view",
      "type": "function"
    },
    {
      "inputs": [],
      "name": "MAX_PREDICTIONS_PER_MATCH",
      "outputs": [
        {
          "internalType": "uint256",
          "name": "",
          "type": "uint256"
        }
      ],
      "stateMutability": "view",
      "type": "function"
    },
    {
      "inputs": [],
      "name": "MAX_PREDICTION_TYPES",
      "outputs": [
        {
          "internalType": "uint256",
          "name": "",
          "type": "uint256"
        }
      ],
      "stateMutability": "view",
      "type": "function"
    },
    {
      "inputs": [],
      "name": "MAX_STREAK_BONUS",
      "outputs": [
        {
          "internalType": "uint256",
          "name": "",
          "type": "uint256"
        }
      ],
      "stateMutability": "view",
      "type": "function"
    },
    {
      "inputs": [],
      "name": "STREAK_BONUS_PER",
      "outputs": [
        {
          "internalType": "uint256",
          "name": "",
          "type": "uint256"
        }
      ],
      "stateMutability": "view",
      "type": "function"
    },
    {
      "inputs": [
        {
          "internalType": "uint256",
          "name": "matchId",
          "type": "uint256"
        }
      ],
      "name": "cancelMatchPredictions",
      "outputs": [],
      "stateMutability": "nonpayable",
      "type": "function"
    },
    {
      "inputs": [
        {
          "internalType": "uint256",
          "name": "franchiseId",
          "type": "uint256"
        },
        {
          "internalType": "uint256",
          "name": "matchId",
          "type": "uint256"
        },
        {
          "internalType": "bytes32",
          "name": "predictionType",
          "type": "bytes32"
        },
        {
          "internalType": "bytes32",
          "name": "predictedOutcome",
          "type": "bytes32"
        }
      ],
      "name": "createPrediction",
      "outputs": [
        {
          "internalType": "uint256",
          "name": "",
          "type": "uint256"
        }
      ],
      "stateMutability": "nonpayable",
      "type": "function"
    },
    {
      "inputs": [],
      "name": "franchiseRegistry",
      "outputs": [
        {
          "internalType": "contract IFranchiseRegistry",
          "name": "",
          "type": "address"
        }
      ],
      "stateMutability": "view",
      "type": "function"
    },
    {
      "inputs": [
        {
          "internalType": "uint256",
          "name": "matchId",
          "type": "uint256"
        }
      ],
      "name": "getMatchPredictions",
      "outputs": [
        {
          "internalType": "uint256[]",
          "name": "",
          "type": "uint256[]"
        }
      ],
      "stateMutability": "view",
      "type": "function"
    },
    {
      "inputs": [
        {
          "internalType": "uint256",
          "name": "predictionId",
          "type": "uint256"
        }
      ],
      "name": "getPrediction",
      "outputs": [
        {
          "components": [
            {
              "internalType": "uint256",
              "name": "predictionId",
              "type": "uint256"
            },
            {
              "internalType": "uint256",
              "name": "franchiseId",
              "type": "uint256"
            },
            {
              "internalType": "address",
              "name": "predictor",
              "type": "address"
            },
            {
              "internalType": "enum PredictionModule.PredictionStatus",
              "name": "status",
              "type": "uint8"
            },
            {
              "internalType": "uint256",
              "name": "matchId",
              "type": "uint256"
            },
            {
              "internalType": "bytes32",
              "name": "predictionType",
              "type": "bytes32"
            },
            {
              "internalType": "bytes32",
              "name": "predictedOutcome",
              "type": "bytes32"
            },
            {
              "internalType": "bool",
              "name": "correct",
              "type": "bool"
            },
            {
              "internalType": "uint256",
              "name": "pointsEarned",
              "type": "uint256"
            },
            {
              "internalType": "uint256",
              "name": "createdAt",
              "type": "uint256"
            }
          ],
          "internalType": "struct PredictionModule.Prediction",
          "name": "",
          "type": "tuple"
        }
      ],
      "stateMutability": "view",
      "type": "function"
    },
    {
      "inputs": [
        {
          "internalType": "address",
          "name": "user",
          "type": "address"
        }
      ],
      "name": "getUserPredictions",
      "outputs": [
        {
          "internalType": "uint256[]",
          "name": "",
          "type": "uint256[]"
        }
      ],
      "stateMutability": "view",
      "type": "function"
    },
    {
      "inputs": [
        {
          "internalType": "address",
          "name": "user",
          "type": "address"
        }
      ],
      "name": "getUserStats",
      "outputs": [
        {
          "components": [
            {
              "internalType": "uint256",
              "name": "totalPoints",
              "type": "uint256"
            },
            {
              "internalType": "uint256",
              "name": "totalCorrect",
              "type": "uint256"
            },
            {
              "internalType": "uint256",
              "name": "totalPredictions",
              "type": "uint256"
            },
            {
              "internalType": "uint256",
              "name": "currentStreak",
              "type": "uint256"
            }
          ],
          "internalType": "struct PredictionModule.UserStats",
          "name": "stats",
          "type": "tuple"
        }
      ],
      "stateMutability": "view",
      "type": "function"
    },
    {
      "inputs": [
        {
          "internalType": "address",
          "name": "",
          "type": "address"
        },
        {
          "internalType": "uint256",
          "name": "",
          "type": "uint256"
        },
        {
          "internalType": "bytes32",
          "name": "",
          "type": "bytes32"
        }
      ],
      "name": "hasPredicted",
      "outputs": [
        {
          "internalType": "bool",
          "name": "",
          "type": "bool"
        }
      ],
      "stateMutability": "view",
      "type": "function"
    },
    {
      "inputs": [
        {
          "internalType": "uint256",
          "name": "",
          "type": "uint256"
        },
        {
          "internalType": "uint256",
          "name": "",
          "type": "uint256"
        }
      ],
      "name": "matchPredictions",
      "outputs": [
        {
          "internalType": "uint256",
          "name": "",
          "type": "uint256"
        }
      ],
      "stateMutability": "view",
      "type": "function"
    },
    {
      "inputs": [],
      "name": "oracle",
      "outputs": [
        {
          "internalType": "contract IMatchOracle",
          "name": "",
          "type": "address"
        }
      ],
      "stateMutability": "view",
      "type": "function"
    },
    {
      "inputs": [],
      "name": "owner",
      "outputs": [
        {
          "internalType": "address",
          "name": "",
          "type": "address"
        }
      ],
      "stateMutability": "view",
      "type": "function"
    },
    {
      "inputs": [],
      "name": "predictionCount",
      "outputs": [
        {
          "internalType": "uint256",
          "name": "",
          "type": "uint256"
        }
      ],
      "stateMutability": "view",
      "type": "function"
    },
    {
      "inputs": [
        {
          "internalType": "uint256",
          "name": "",
          "type": "uint256"
        }
      ],
      "name": "predictions",
      "outputs": [
        {
          "internalType": "uint256",
          "name": "predictionId",
          "type": "uint256"
        },
        {
          "internalType": "uint256",
          "name": "franchiseId",
          "type": "uint256"
        },
        {
          "internalType": "address",
          "name": "predictor",
          "type": "address"
        },
        {
          "internalType": "enum PredictionModule.PredictionStatus",
          "name": "status",
          "type": "uint8"
        },
        {
          "internalType": "uint256",
          "name": "matchId",
          "type": "uint256"
        },
        {
          "internalType": "bytes32",
          "name": "predictionType",
          "type": "bytes32"
        },
        {
          "internalType": "bytes32",
          "name": "predictedOutcome",
          "type": "bytes32"
        },
        {
          "internalType": "bool",
          "name": "correct",
          "type": "bool"
        },
        {
          "internalType": "uint256",
          "name": "pointsEarned",
          "type": "uint256"
        },
        {
          "internalType": "uint256",
          "name": "createdAt",
          "type": "uint256"
        }
      ],
      "stateMutability": "view",
      "type": "function"
    },
    {
      "inputs": [],
      "name": "renounceOwnership",
      "outputs": [],
      "stateMutability": "nonpayable",
      "type": "function"
    },
    {
      "inputs": [
        {
          "internalType": "uint256",
          "name": "matchId",
          "type": "uint256"
        },
        {
          "internalType": "bytes32",
          "name": "predictionType",
          "type": "bytes32"
        },
        {
          "internalType": "bytes32",
          "name": "actualOutcome",
          "type": "bytes32"
        }
      ],
      "name": "resolveMatchPredictions",
      "outputs": [],
      "stateMutability": "nonpayable",
      "type": "function"
    },
    {
      "inputs": [
        {
          "internalType": "uint256",
          "name": "predictionId",
          "type": "uint256"
        },
        {
          "internalType": "bytes32",
          "name": "actualOutcome",
          "type": "bytes32"
        }
      ],
      "name": "resolvePrediction",
      "outputs": [],
      "stateMutability": "nonpayable",
      "type": "function"
    },
    {
      "inputs": [
        {
          "internalType": "bytes32",
          "name": "predictionType",
          "type": "bytes32"
        },
        {
          "internalType": "bool",
          "name": "valid",
          "type": "bool"
        }
      ],
      "name": "setPredictionType",
      "outputs": [],
      "stateMutability": "nonpayable",
      "type": "function"
    },
    {
      "inputs": [
        {
          "internalType": "address",
          "name": "newOwner",
          "type": "address"
        }
      ],
      "name": "transferOwnership",
      "outputs": [],
      "stateMutability": "nonpayable",
      "type": "function"
    },
    {
      "inputs": [
        {
          "internalType": "address",
          "name": "",
          "type": "address"
        },
        {
          "internalType": "uint256",
          "name": "",
          "type": "uint256"
        }
      ],
      "name": "userPredictions",
      "outputs": [
        {
          "internalType": "uint256",
          "name": "",
          "type": "uint256"
        }
      ],
      "stateMutability": "view",
      "type": "function"
    },
    {
      "inputs": [
        {
          "internalType": "address",
          "name": "",
          "type": "address"
        }
      ],
      "name": "userStats",
      "outputs": [
        {
          "internalType": "uint256",
          "name": "totalPoints",
          "type": "uint256"
        },
        {
          "internalType": "uint256",
          "name": "totalCorrect",
          "type": "uint256"
        },
        {
          "internalType": "uint256",
          "name": "totalPredictions",
          "type": "uint256"
        },
        {
          "internalType": "uint256",
          "name": "currentStreak",
          "type": "uint256"
        }
      ],
      "stateMutability": "view",
      "type": "function"
    },
    {
      "inputs": [
        {
          "internalType": "bytes32",
          "name": "",
          "type": "bytes32"
        }
      ],
      "name": "validPredictionTypes",
      "outputs": [
        {
          "internalType": "bool",
          "name": "",
          "type": "bool"
        }
      ],
      "stateMutability": "view",
      "type": "function"
    }
  ],
  "bytecode": "0x60c03461011b57601f61166038819003918201601f19168301916001600160401b0383118484101761011f57808492604094855283398101031261011b57610052602061004b83610133565b9201610133565b3315610108575f8054336001600160a01b0319821681178355604051949290916001600160a01b0316907f8be0079c531659141344cd1fd0a4f28419497f9722a3daafe3b4186f6b6457e09080a36001600160a01b03169081156100f9576001600160a01b03169081156100f95760805260a052611518908161014882396080518181816107ef01528181610d54015261133d015260a05181818161049901526107920152f35b63d92e233d60e01b5f5260045ffd5b631e4fbdf760e01b5f525f60045260245ffd5b5f80fd5b634e487b7160e01b5f52604160045260245ffd5b51906001600160a01b038216820361011b5756fe6080806040526004361015610012575f80fd5b5f3560e01c9081624fbbb014610f49575080630a3f1c0d14610f2e5780632177874d14610f12578063235c802d14610ef75780632beb515314610e935780634e43603a14610df557806354575e5214610dda578063715018a614610d835780637dc0d1d014610d3f57806382eaf11714610d10578063876c139914610cc85780638a65d87414610c6e5780638d33a95714610c195780638da5cb5b14610bf25780638df5b63714610bd65780638e0596a214610bb9578063b5ab1c5d14610b9e578063ba86cd8114610754578063c0bc581d146106f7578063c285f85314610675578063cfa720d11461051a578063dde77f1f146104ff578063df10b45f146104c8578063e82e143714610484578063f2fde38b146103ff578063f6c33179146103a7578063fe83bece1461024b5763feb476ba1461014f575f80fd5b346102475760603660031901126102475760243560443561016e611284565b6004355f52600260205260405f2090604051808360208295549384815201905f5260205f20925f5b81811061022e5750506101ab925003836110a6565b8151915f5b8381106101b957005b6101c38183611270565b515f52600160205260405f209060ff600283015460a01c1691600383101561021a5784600193158061020d575b6101fd575b5050016101b0565b610206916112aa565b5f846101f5565b50876004830154146101f0565b634e487b7160e01b5f52602160045260245ffd5b8454835260019485019487945060209093019201610196565b5f80fd5b34610247576020366003190112610247575f61012060405161026c8161108a565b8281528260208201528260408201528260608201528260808201528260a08201528260c08201528260e08201528261010082015201526004355f52600160205260405f206040516102bc8161108a565b8154815260018201546020820190815260028301546001600160a01b0381166040840190815260a09190911c60ff16939060608401600386101561021a5761014095815260038301546080860190815260048401549060a0870191825261037d60058601549360c0890194855260ff6006880154169560e08a01961515875260086007890154986101008c01998a520154986101208b01998a526040519a518b525160208b015260018060a01b0390511660408a0152516060890190610fea565b5160808701525160a08601525160c085015251151560e08401525161010083015251610120820152f35b34610247576040366003190112610247576103c0611030565b6001600160a01b03165f90815260036020526040902080546024359190821015610247576020916103f091611046565b90549060031b1c604051908152f35b3461024757602036600319011261024757610418611030565b610420611284565b6001600160a01b03168015610471575f80546001600160a01b03198116831782556001600160a01b0316907f8be0079c531659141344cd1fd0a4f28419497f9722a3daafe3b4186f6b6457e09080a3005b631e4fbdf760e01b5f525f60045260245ffd5b34610247575f366003190112610247576040517f00000000000000000000000000000000000000000000000000000000000000006001600160a01b03168152602090f35b34610247576040366003190112610247576024356004355f52600260205260405f208054821015610247576020916103f091611046565b34610247575f366003190112610247576020604051600a8152f35b3461024757602036600319011261024757600435610536611284565b805f52600260205260405f20604051808260208294549384815201905f5260205f20925f5b81811061065c575050610570925003826110a6565b8051905f5b8281106105a357837f82e9eed3543a82fd01e27eef3f4a7b50144024cb06d5d24f8ee0fdc02f3d65895f80a2005b6105ad8183611270565b515f52600160205260405f2090600282019160ff835460a01c1692600384101561021a57600193156105e2575b505001610575565b8360a11b60ff60a01b19825416178155838060a01b039054165f52600560205260405f20865f52602052600460405f209101545f5260205260405f2060ff1981541690556106308184611270565b517faf9d749692c27edb73692839024a98f047b114c6fd450acf3c702120928a2be25f80a285806105da565b845483526001948501948694506020909301920161055b565b34610247576020366003190112610247576001600160a01b03610696611030565b165f52600360205260405f206040519081602082549182815201915f5260205f20905f5b8181106106e1576106dd856106d1818703826110a6565b60405191829182610ff7565b0390f35b82548452602090930192600192830192016106ba565b3461024757604036600319011261024757610710611284565b6004355f52600160205260405f2060ff600282015460a01c16600381101561021a576107455761074390602435906112aa565b005b6336ab81e160e11b5f5260045ffd5b34610247576080366003190112610247576004356064356044356024358015610b8f57604051630f93afeb60e11b8152600481018590525f816024817f00000000000000000000000000000000000000000000000000000000000000006001600160a01b03165afa8015610a7c575f90610a96575b60a09150015115610a875760405163995e433960e01b8152600481018290525f816024817f00000000000000000000000000000000000000000000000000000000000000006001600160a01b03165afa8015610a7c576080915f91610a5a575b5001518015159081610a4f575b50610a4057815f52600660205260ff60405f20541615610a3157805f5260026020526103e860405f20541015610a2257335f52600560205260405f20815f5260205260405f20825f5260205260ff60405f205416610a135760016007540192836007556040516108a58161108a565b848152602081019586526040810133815260608201965f8852608083019785895260a0840187815260c0850186815260e08601905f82526101008701935f85526101208801954287528c5f52600160205260405f2098518955516001890155600288019660018060a01b039051166bffffffffffffffffffffffff60a01b8854161787555192600384101561021a5760209c6008976109809581549060ff60a01b9060a01b169060ff60a01b1916179055516003890155516004880155516005870155511515600686019060ff801983541691151516179055565b51600784015551910155335f526005855260405f20825f52855260405f20835f52855260405f20600160ff19825416179055815f52600285526109c68460405f20611237565b335f52600385526109da8460405f20611237565b60405192835284830152827f4706a8e9b7c705c5dcb522bc856422d7d8f35492981ae81a6067cde4b3d79d6760403394a4604051908152f35b633b9e91cf60e01b5f5260045ffd5b63ecdcc1ad60e01b5f5260045ffd5b6353d848b760e11b5f5260045ffd5b63d110237b60e01b5f5260045ffd5b905042101585610836565b610a7691503d805f833e610a6e81836110a6565b81019061113d565b86610829565b6040513d5f823e3d90fd5b631ee6819360e01b5f5260045ffd5b503d805f833e610aa681836110a6565b810190602081830312610247578051906001600160401b03821161024757019060e082820312610247576040519060e082018281106001600160401b03821117610b7b576040528251825260208301516001600160401b0381116102475781610b109185016110c7565b60208301526040830151926001600160401b03841161024757610b3960c09260a09583016110c7565b6040840152610b4a6060820161111c565b6060840152610b5b6080820161111c565b6080840152610b6b848201611130565b84840152015160c08201526107c9565b634e487b7160e01b5f52604160045260245ffd5b6324f45c6160e21b5f5260045ffd5b34610247575f36600319011261024757602060405160648152f35b34610247575f366003190112610247576020600754604051908152f35b34610247575f366003190112610247576020604051610e108152f35b34610247575f366003190112610247575f546040516001600160a01b039091168152602090f35b34610247576060366003190112610247576001600160a01b03610c3a611030565b165f52600560205260405f206024355f5260205260405f206044355f52602052602060ff60405f2054166040519015158152f35b34610247576020366003190112610247576001600160a01b03610c8f611030565b165f526004602052608060405f208054906001810154906003600282015491015491604051938452602084015260408301526060820152f35b346102475760403660031901126102475760243580151581036102475761074390610cf1611284565b6004355f52600660205260405f209060ff801983541691151516179055565b34610247576020366003190112610247576004355f526006602052602060ff60405f2054166040519015158152f35b34610247575f366003190112610247576040517f00000000000000000000000000000000000000000000000000000000000000006001600160a01b03168152602090f35b34610247575f36600319011261024757610d9b611284565b5f80546001600160a01b0319811682556001600160a01b03167f8be0079c531659141344cd1fd0a4f28419497f9722a3daafe3b4186f6b6457e08280a3005b34610247575f36600319011261024757602060405160328152f35b3461024757602036600319011261024757610e0e611030565b5f6060604051610e1d8161106f565b828152826020820152826040820152015260018060a01b03165f526004602052608060405f20604051610e4f8161106f565b815491828252600181015460208301908152606060036002840154936040860194855201549301928352604051938452516020840152516040830152516060820152f35b34610247576020366003190112610247576004355f52600260205260405f206040519081602082549182815201915f5260205f20905f5b818110610ee1576106dd856106d1818703826110a6565b8254845260209093019260019283019201610eca565b34610247575f36600319011261024757602060405160198152f35b34610247575f3660031901126102475760206040516103e88152f35b34610247575f36600319011261024757602060405160c88152f35b3461024757602036600319011261024757610140906004355f52600160205260405f20805490600181015460028201546003830154600484015490610fc660058601549360ff6006880154169560086007890154980154988a5260208a015260018060a01b03811660408a015260ff60608a019160a01c16610fea565b608087015260a086015260c0850152151560e0840152610100830152610120820152f35b90600382101561021a5752565b60206040818301928281528451809452019201905f5b81811061101a5750505090565b825184526020938401939092019160010161100d565b600435906001600160a01b038216820361024757565b805482101561105b575f5260205f2001905f90565b634e487b7160e01b5f52603260045260245ffd5b608081019081106001600160401b03821117610b7b57604052565b61014081019081106001600160401b03821117610b7b57604052565b90601f801991011681019081106001600160401b03821117610b7b57604052565b81601f82011215610247578051906001600160401b038211610b7b57604051926110fb601f8401601f1916602001856110a6565b8284526020838301011161024757815f9260208093018386015e8301015290565b51906001600160a01b038216820361024757565b5190811515820361024757565b602081830312610247578051906001600160401b03821161024757019061012082820312610247576040519161012083018381106001600160401b03821117610b7b57604052805183526020810151602084015260408101516001600160401b03811161024757826111b09183016110c7565b604084015260608101516001600160401b03811161024757826111d49183016110c7565b6060840152608081015160808401526111ef60a08201611130565b60a084015261120060c08201611130565b60c084015260e08101516001600160401b03811161024757610100926112279183016110c7565b60e0840152015161010082015290565b805468010000000000000000811015610b7b5761125991600182018155611046565b819291549060031b91821b915f19901b1916179055565b805182101561105b5760209160051b010190565b5f546001600160a01b0316330361129757565b63118cdaa760e01b5f523360045260245ffd5b60028101805460ff60a01b198116600160a01b179091556001600160a01b03165f818152600460205260409020600583015491939091036114d45760068201600160ff19825416179055600381019081549160198302908382046019148415171561149d5760c882116114cb575b600385015460405163995e433960e01b815260048101919091525f94909285846024817f00000000000000000000000000000000000000000000000000000000000000006001600160a01b03165afa938415610a7c5788946080915f916114b1575b5001805115159081611478575b506002966064939260019261146f575b0191838388540101875581870182815401905501835501600786015554600381148015611465575b801561145b575b8015611451575b61141f575b50505b01600181540190557ff59a207165a88bfd88b106f8d936e969a773e88c5258dc5b9711499aab28e6256040825492600760ff600683015416910154825191151582526020820152a3565b60207ff26254ba78e76f6b8ac0cf938bf7a96ccc9544c432cf148e1db1e0c85abc703b91604051908152a2835f6113d2565b50601981146113cd565b50600a81146113c6565b50600581146113bf565b60329150611397565b9291945050600887015491610e10830180931161149d57518894919211156002611387565b634e487b7160e01b5f52601160045260245ffd5b6114c591503d805f833e610a6e81836110a6565b5f61137a565b60c89150611318565b805f600360029301556113d556fea264697066735822122063ff36dd03b68d78f520e7dd4d5c1fccaaeb89f9553289a690c59ce40a94496864736f6c634300081b0033",
  "linkReferences": {},
  "deployedLinkReferences": {}
}