{
  "_format": "hh-sol-artifact-1",
  "contractName": "ReputationStore",
  "sourceName": "contracts/core/ReputationStore.sol",
  "abi": [
    {
      "inputs": [],
      "stateMutability": "nonpayable",
      "type": "constructor"
    },
    {
      "inputs": [],
      "name": "GatewayAlreadySet",
      "type": "error"
    },
    {
      "inputs": [],
      "name": "InvalidGateway",
      "type": "error"
    },
    {
      "inputs": [
        {
          "internalType": "address",
          "name": "owner",
          "type": "address"
        }
      ],
      "name": "OwnableInvalidOwner",
      "type": "error"
    },
    {
      "inputs": [
        {
          "internalType": "address",
          "name": "account",
          "type": "address"
        }
      ],
      "name": "OwnableUnauthorizedAccount",
      "type": "error"
    },
    {
      "inputs": [],
      "name": "Unauthorized",
      "type": "error"
    },
    {
      "anonymous": false,
      "inputs": [
        {
          "indexed": false,
          "internalType": "address",
          "name": "gateway",
          "type": "address"
        }
      ],
      "name": "GatewaySet",
      "type": "event"
    },
    {
      "anonymous": false,
      "inputs": [
        {
          "indexed": true,
          "internalType": "address",
          "name": "previousOwner",
          "type": "address"
        },
        {
          "indexed": true,
          "internalType": "address",
          "name": "newOwner",
          "type": "address"
        }
      ],
      "name": "OwnershipTransferred",
      "type": "event"
    },
    {
      "anonymous": false,
      "inputs": [
        {
          "indexed": true,
          "internalType": "uint256",
          "name": "agentId",
          "type": "uint256"
        },
        {
          "indexed": false,
          "internalType": "uint256",
          "name": "newScore",
          "type": "uint256"
        },
        {
          "indexed": false,
          "internalType": "enum IReputationStore.RiskBadge",
          "name": "badge",
          "type": "uint8"
        }
      ],
      "name": "ScoreUpdated",
      "type": "event"
    },
    {
      "inputs": [],
      "name": "FAILURE_PENALTY_MULTIPLIER",
      "outputs": [
        {
          "internalType": "uint256",
          "name": "",
          "type": "uint256"
        }
      ],
      "stateMutability": "view",
      "type": "function"
    },
    {
      "inputs": [],
      "name": "MAX_FAILURE_PENALTY",
      "outputs": [
        {
          "internalType": "uint256",
          "name": "",
          "type": "uint256"
        }
      ],
      "stateMutability": "view",
      "type": "function"
    },
    {
      "inputs": [],
      "name": "MAX_SCORE",
      "outputs": [
        {
          "internalType": "uint256",
          "name": "",
          "type": "uint256"
        }
      ],
      "stateMutability": "view",
      "type": "function"
    },
    {
      "inputs": [],
      "name": "MAX_VIOLATION_PENALTY",
      "outputs": [
        {
          "internalType": "uint256",
          "name": "",
          "type": "uint256"
        }
      ],
      "stateMutability": "view",
      "type": "function"
    },
    {
      "inputs": [],
      "name": "NEUTRAL_SCORE",
      "outputs": [
        {
          "internalType": "uint256",
          "name": "",
          "type": "uint256"
        }
      ],
      "stateMutability": "view",
      "type": "function"
    },
    {
      "inputs": [],
      "name": "RECENCY_PENALTY",
      "outputs": [
        {
          "internalType": "uint256",
          "name": "",
          "type": "uint256"
        }
      ],
      "stateMutability": "view",
      "type": "function"
    },
    {
      "inputs": [],
      "name": "RECENCY_WINDOW",
      "outputs": [
        {
          "internalType": "uint256",
          "name": "",
          "type": "uint256"
        }
      ],
      "stateMutability": "view",
      "type": "function"
    },
    {
      "inputs": [],
      "name": "RISKY_THRESHOLD",
      "outputs": [
        {
          "internalType": "uint256",
          "name": "",
          "type": "uint256"
        }
      ],
      "stateMutability": "view",
      "type": "function"
    },
    {
      "inputs": [],
      "name": "RISKY_VIOLATION_COUNT",
      "outputs": [
        {
          "internalType": "uint256",
          "name": "",
          "type": "uint256"
        }
      ],
      "stateMutability": "view",
      "type": "function"
    },
    {
      "inputs": [],
      "name": "SAFE_THRESHOLD",
      "outputs": [
        {
          "internalType": "uint256",
          "name": "",
          "type": "uint256"
        }
      ],
      "stateMutability": "view",
      "type": "function"
    },
    {
      "inputs": [],
      "name": "VIOLATION_PENALTY_MULTIPLIER",
      "outputs": [
        {
          "internalType": "uint256",
          "name": "",
          "type": "uint256"
        }
      ],
      "stateMutability": "view",
      "type": "function"
    },
    {
      "inputs": [],
      "name": "gateway",
      "outputs": [
        {
          "internalType": "address",
          "name": "",
          "type": "address"
        }
      ],
      "stateMutability": "view",
      "type": "function"
    },
    {
      "inputs": [
        {
          "internalType": "uint256",
          "name": "agentId",
          "type": "uint256"
        }
      ],
      "name": "getCheckpoint",
      "outputs": [
        {
          "components": [
            {
              "internalType": "uint64",
              "name": "successCount",
              "type": "uint64"
            },
            {
              "internalType": "uint64",
              "name": "failureCount",
              "type": "uint64"
            },
            {
              "internalType": "uint64",
              "name": "attemptedViolations",
              "type": "uint64"
            },
            {
              "internalType": "uint16",
              "name": "reputationScore",
              "type": "uint16"
            },
            {
              "internalType": "uint48",
              "name": "lastViolationTimestamp",
              "type": "uint48"
            },
            {
              "internalType": "uint48",
              "name": "lastSuccessTimestamp",
              "type": "uint48"
            },
            {
              "internalType": "uint48",
              "name": "scoreLastUpdated",
              "type": "uint48"
            },
            {
              "internalType": "uint256",
              "name": "totalGasUsed",
              "type": "uint256"
            }
          ],
          "internalType": "struct IReputationStore.BehaviorCheckpoint",
          "name": "",
          "type": "tuple"
        }
      ],
      "stateMutability": "view",
      "type": "function"
    },
    {
      "inputs": [
        {
          "internalType": "uint256",
          "name": "agentId",
          "type": "uint256"
        }
      ],
      "name": "getRiskBadge",
      "outputs": [
        {
          "internalType": "enum IReputationStore.RiskBadge",
          "name": "",
          "type": "uint8"
        }
      ],
      "stateMutability": "view",
      "type": "function"
    },
    {
      "inputs": [
        {
          "internalType": "uint256",
          "name": "agentId",
          "type": "uint256"
        }
      ],
      "name": "getScore",
      "outputs": [
        {
          "internalType": "uint256",
          "name": "",
          "type": "uint256"
        }
      ],
      "stateMutability": "view",
      "type": "function"
    },
    {
      "inputs": [],
      "name": "owner",
      "outputs": [
        {
          "internalType": "address",
          "name": "",
          "type": "address"
        }
      ],
      "stateMutability": "view",
      "type": "function"
    },
    {
      "inputs": [
        {
          "internalType": "uint256",
          "name": "agentId",
          "type": "uint256"
        },
        {
          "internalType": "uint256",
          "name": "gasUsed",
          "type": "uint256"
        }
      ],
      "name": "recordFailure",
      "outputs": [],
      "stateMutability": "nonpayable",
      "type": "function"
    },
    {
      "inputs": [
        {
          "internalType": "uint256",
          "name": "agentId",
          "type": "uint256"
        },
        {
          "internalType": "uint256",
          "name": "gasUsed",
          "type": "uint256"
        }
      ],
      "name": "recordSuccess",
      "outputs": [],
      "stateMutability": "nonpayable",
      "type": "function"
    },
    {
      "inputs": [
        {
          "internalType": "uint256",
          "name": "agentId",
          "type": "uint256"
        },
        {
          "internalType": "uint256",
          "name": "gasUsed",
          "type": "uint256"
        }
      ],
      "name": "recordViolation",
      "outputs": [],
      "stateMutability": "nonpayable",
      "type": "function"
    },
    {
      "inputs": [],
      "name": "renounceOwnership",
      "outputs": [],
      "stateMutability": "nonpayable",
      "type": "function"
    },
    {
      "inputs": [
        {
          "internalType": "address",
          "name": "_gateway",
          "type": "address"
        }
      ],
      "name": "setGateway",
      "outputs": [],
      "stateMutability": "nonpayable",
      "type": "function"
    },
    {
      "inputs": [
        {
          "internalType": "address",
          "name": "newOwner",
          "type": "address"
        }
      ],
      "name": "transferOwnership",
      "outputs": [],
      "stateMutability": "nonpayable",
      "type": "function"
    }
  ],
  "bytecode": "0x608080604052346071573315605e575f8054336001600160a01b0319821681178355916001600160a01b03909116907f8be0079c531659141344cd1fd0a4f28419497f9722a3daafe3b4186f6b6457e09080a3610b4a90816100768239f35b631e4fbdf760e01b5f525f60045260245ffd5b5f80fdfe60806040526004361015610011575f80fd5b5f3560e01c80630e1af57b14610750578063116191b61461072857806320fc48811461061357806327ff6223146105f85780632a8d5649146105dc578063322cea2e146105c157806333fc49be146105a65780633b0f5b7a1461058b57806354062255146105705780636a275fee146104d85780636d28c3e81461041a578063715018a6146103c357806388136b19146103a85780638da5cb5b1461038157806390646b4a146102e1578063aa086b9114610231578063b5b9531a14610216578063b6627701146101fb578063e683b88c146101ce578063e85468ac146101b3578063edb37d18146101985763f2fde38b1461010b575f80fd5b34610194576020366003190112610194576004356001600160a01b0381169081900361019457610139610aac565b8015610181575f80546001600160a01b03198116831782556001600160a01b0316907f8be0079c531659141344cd1fd0a4f28419497f9722a3daafe3b4186f6b6457e09080a3005b631e4fbdf760e01b5f525f60045260245ffd5b5f80fd5b34610194575f366003190112610194576020604051600a8152f35b34610194575f36600319011261019457602060405160028152f35b346101945760203660031901126101945760206101ec600435610858565b6101f9604051809261078c565bf35b34610194575f36600319011261019457602060405160038152f35b34610194575f36600319011261019457602060405160468152f35b346101945761023f36610776565b6002549091906001600160a01b031633036102d3576102d191815f52600160205260405f209182546001600160401b036001818316011680916001600160401b03191617928385556001850165ffffffffffff421665ffffffffffff198254161790556102b1600286019182546107ad565b90558260d01c936001600160401b03808560801c169460401c16926108c6565b005b6282b42960e81b5f5260045ffd5b34610194576020366003190112610194576004356001600160a01b038116908190036101945761030f610aac565b6002546001600160a01b038116610372578115610363576001600160a01b03191681176002556040519081527f5317fa585931182194fed99f2ea5f2efd38af9cff9724273704c8501c521e34b90602090a1005b63fc9dfe8560e01b5f5260045ffd5b633c3a86d560e01b5f5260045ffd5b34610194575f366003190112610194575f546040516001600160a01b039091168152602090f35b34610194575f366003190112610194576020604051601e8152f35b34610194575f366003190112610194576103db610aac565b5f80546001600160a01b0319811682556001600160a01b03167f8be0079c531659141344cd1fd0a4f28419497f9722a3daafe3b4186f6b6457e08280a3005b346101945761042836610776565b6002549091906001600160a01b031633036102d3576102d191815f52600160205260405f209182549060016001600160401b038360801c16019365ffffffffffff60d01b4260d01b166001600160401b0360801b8660801b1679ffff0000000000000000ffffffffffffffffffffffffffffffff85161717938482556104b3600283019182546107ad565b90554265ffffffffffff16946001600160401b039081169460401c81169316916108c6565b34610194576104e636610776565b6002546001600160a01b031633036102d357816102d1925f52600160205260405f209081549060016001600160401b038360401c16019267ffffffffffffffff60401b8460401b1667ffffffffffffffff60401b1984161794858255610551600283019182546107ad565b90556001600160401b0380808760d01c9760801c1695169316916108c6565b34610194575f36600319011261019457602060405160058152f35b34610194575f36600319011261019457602060405160288152f35b34610194575f36600319011261019457602060405160328152f35b34610194575f36600319011261019457602060405160148152f35b34610194575f366003190112610194576020604051610e108152f35b34610194575f36600319011261019457602060405160648152f35b34610194576020366003190112610194575f60e061062f610824565b8281528260208201528260408201528260608201528260808201528260a08201528260c082015201526004355f52600160205261010060405f20610671610824565b65ffffffffffff80808381865461ffff6001600160401b038216988985526001600160401b0360208601818560401c168152816040880191818760801c16835260e0600260608b0196888a60c01c16885260808c019960d01c8a528b60c060a0600184015492019d8e8e84169052019e8f9160301c16905201549d019c8d526040519d8e52511660208d0152511660408b01525116606089015251166080870152511660a0850152511660c08301525160e0820152f35b34610194575f366003190112610194576002546040516001600160a01b039091168152602090f35b3461019457602036600319011261019457602061076e6004356107ce565b604051908152f35b6040906003190112610194576004359060243590565b9060038210156107995752565b634e487b7160e01b5f52602160045260245ffd5b919082018092116107ba57565b634e487b7160e01b5f52601160045260245ffd5b5f52600160205260405f205461080f6107fc6001600160401b038360401c166001600160401b0384166107ad565b6001600160401b038360801c16906107ad565b1561081e5760c01c61ffff1690565b50603290565b6040519061010082018281106001600160401b0382111761084457604052565b634e487b7160e01b5f52604160045260245ffd5b5f52600160205260405f20546108836001600160401b038260401c166001600160401b0383166107ad565b61089a6001600160401b038360801c1680926107ad565b156108b25761ffff6108af9260c01c16610ad2565b90565b5050600190565b919082039182116107ba57565b949092916001600160401b03166001600160401b038316906108fc6001600160401b036108f384846107ad565b971680976107ad565b908161099057505050505060409061098d61097e7f1553016fb2ac27ba7d0fda4f797f432de11fd5abefe94bf14c6696d4cabd56199460016032945b805461ffff60c01b191660c087901b61ffff60c01b161781550180546bffffffffffff00000000000019164260301b6bffffffffffff0000000000001617905583610ad2565b8351928352602083019061078c565ba2565b60648197949695970290808204606414901517156107ba5704906003830295838704600314841517156107ba57601e8711610aa3575b6801fffffffffffffffe9060011b1690808204600214901517156107ba577f1553016fb2ac27ba7d0fda4f797f432de11fd5abefe94bf14c6696d4cabd561995604095610a3f9260148111610a9b575b65ffffffffffff5f92168015159081610a85575b50610a7c575b610a3a91926107ad565b6107ad565b80821115610a7357610a50916108b9565b915b60648311610a6a575b61098d91600161097e92610938565b60649250610a5b565b50505f91610a52565b600a9150610a30565b610e109150610a9490426108b9565b105f610a2a565b506014610a16565b601e96506109c6565b5f546001600160a01b03163303610abf57565b63118cdaa760e01b5f523360045260245ffd5b604681101580610b0c575b610b0657602811908115610afb575b50610af657600190565b600290565b60059150115f610aec565b50505f90565b508115610add56fea26469706673582212206613a7ef51a6cf5ac3a7eea696ce848556aaae11022fe65a19370464cfec189664736f6c634300081b0033",
  "linkReferences": {},
  "deployedLinkReferences": {}
}