{
  "_format": "hh-sol-artifact-1",
  "contractName": "WireTrustNFT",
  "sourceName": "contracts/modules/WireTrustNFT.sol",
  "abi": [
    {
      "inputs": [
        {
          "internalType": "address",
          "name": "_franchiseRegistry",
          "type": "address"
        },
        {
          "internalType": "address",
          "name": "_protocolTreasury",
          "type": "address"
        }
      ],
      "stateMutability": "nonpayable",
      "type": "constructor"
    },
    {
      "inputs": [],
      "name": "AlreadyBurnedOrUsed",
      "type": "error"
    },
    {
      "inputs": [
        {
          "internalType": "uint256",
          "name": "provided",
          "type": "uint256"
        },
        {
          "internalType": "uint256",
          "name": "max",
          "type": "uint256"
        }
      ],
      "name": "BatchTooLarge",
      "type": "error"
    },
    {
      "inputs": [
        {
          "internalType": "address",
          "name": "sender",
          "type": "address"
        },
        {
          "internalType": "uint256",
          "name": "tokenId",
          "type": "uint256"
        },
        {
          "internalType": "address",
          "name": "owner",
          "type": "address"
        }
      ],
      "name": "ERC721IncorrectOwner",
      "type": "error"
    },
    {
      "inputs": [
        {
          "internalType": "address",
          "name": "operator",
          "type": "address"
        },
        {
          "internalType": "uint256",
          "name": "tokenId",
          "type": "uint256"
        }
      ],
      "name": "ERC721InsufficientApproval",
      "type": "error"
    },
    {
      "inputs": [
        {
          "internalType": "address",
          "name": "approver",
          "type": "address"
        }
      ],
      "name": "ERC721InvalidApprover",
      "type": "error"
    },
    {
      "inputs": [
        {
          "internalType": "address",
          "name": "operator",
          "type": "address"
        }
      ],
      "name": "ERC721InvalidOperator",
      "type": "error"
    },
    {
      "inputs": [
        {
          "internalType": "address",
          "name": "owner",
          "type": "address"
        }
      ],
      "name": "ERC721InvalidOwner",
      "type": "error"
    },
    {
      "inputs": [
        {
          "internalType": "address",
          "name": "receiver",
          "type": "address"
        }
      ],
      "name": "ERC721InvalidReceiver",
      "type": "error"
    },
    {
      "inputs": [
        {
          "internalType": "address",
          "name": "sender",
          "type": "address"
        }
      ],
      "name": "ERC721InvalidSender",
      "type": "error"
    },
    {
      "inputs": [
        {
          "internalType": "uint256",
          "name": "tokenId",
          "type": "uint256"
        }
      ],
      "name": "ERC721NonexistentToken",
      "type": "error"
    },
    {
      "inputs": [],
      "name": "EventMustBeInFuture",
      "type": "error"
    },
    {
      "inputs": [
        {
          "internalType": "uint256",
          "name": "price",
          "type": "uint256"
        },
        {
          "internalType": "uint256",
          "name": "max",
          "type": "uint256"
        }
      ],
      "name": "ExceedsResalePriceCap",
      "type": "error"
    },
    {
      "inputs": [
        {
          "internalType": "uint256",
          "name": "required",
          "type": "uint256"
        },
        {
          "internalType": "uint256",
          "name": "provided",
          "type": "uint256"
        }
      ],
      "name": "IncorrectPayment",
      "type": "error"
    },
    {
      "inputs": [],
      "name": "InvalidEventTimestamp",
      "type": "error"
    },
    {
      "inputs": [],
      "name": "MaxTransfersReached",
      "type": "error"
    },
    {
      "inputs": [],
      "name": "NoExpirySet",
      "type": "error"
    },
    {
      "inputs": [],
      "name": "NotFranchiseAdmin",
      "type": "error"
    },
    {
      "inputs": [],
      "name": "NotTokenOwner",
      "type": "error"
    },
    {
      "inputs": [],
      "name": "NotYetExpired",
      "type": "error"
    },
    {
      "inputs": [],
      "name": "OnlyProtocolMintsBadges",
      "type": "error"
    },
    {
      "inputs": [
        {
          "internalType": "address",
          "name": "owner",
          "type": "address"
        }
      ],
      "name": "OwnableInvalidOwner",
      "type": "error"
    },
    {
      "inputs": [
        {
          "internalType": "address",
          "name": "account",
          "type": "address"
        }
      ],
      "name": "OwnableUnauthorizedAccount",
      "type": "error"
    },
    {
      "inputs": [],
      "name": "ReentrancyGuardReentrantCall",
      "type": "error"
    },
    {
      "inputs": [],
      "name": "SoulboundToken",
      "type": "error"
    },
    {
      "inputs": [],
      "name": "TokenExpired",
      "type": "error"
    },
    {
      "inputs": [],
      "name": "TokenNotValid",
      "type": "error"
    },
    {
      "inputs": [],
      "name": "TransferFailed",
      "type": "error"
    },
    {
      "inputs": [],
      "name": "UseTransferWithPrice",
      "type": "error"
    },
    {
      "inputs": [],
      "name": "ZeroAddress",
      "type": "error"
    },
    {
      "anonymous": false,
      "inputs": [
        {
          "indexed": true,
          "internalType": "address",
          "name": "owner",
          "type": "address"
        },
        {
          "indexed": true,
          "internalType": "address",
          "name": "approved",
          "type": "address"
        },
        {
          "indexed": true,
          "internalType": "uint256",
          "name": "tokenId",
          "type": "uint256"
        }
      ],
      "name": "Approval",
      "type": "event"
    },
    {
      "anonymous": false,
      "inputs": [
        {
          "indexed": true,
          "internalType": "address",
          "name": "owner",
          "type": "address"
        },
        {
          "indexed": true,
          "internalType": "address",
          "name": "operator",
          "type": "address"
        },
        {
          "indexed": false,
          "internalType": "bool",
          "name": "approved",
          "type": "bool"
        }
      ],
      "name": "ApprovalForAll",
      "type": "event"
    },
    {
      "anonymous": false,
      "inputs": [
        {
          "indexed": true,
          "internalType": "uint256",
          "name": "tokenId",
          "type": "uint256"
        },
        {
          "indexed": false,
          "internalType": "string",
          "name": "reason",
          "type": "string"
        }
      ],
      "name": "NFTBurned",
      "type": "event"
    },
    {
      "anonymous": false,
      "inputs": [
        {
          "indexed": true,
          "internalType": "uint256",
          "name": "tokenId",
          "type": "uint256"
        },
        {
          "indexed": true,
          "internalType": "uint256",
          "name": "franchiseId",
          "type": "uint256"
        }
      ],
      "name": "NFTCancelled",
      "type": "event"
    },
    {
      "anonymous": false,
      "inputs": [
        {
          "indexed": true,
          "internalType": "uint256",
          "name": "tokenId",
          "type": "uint256"
        },
        {
          "indexed": true,
          "internalType": "uint256",
          "name": "franchiseId",
          "type": "uint256"
        },
        {
          "indexed": false,
          "internalType": "enum WireTrustNFT.NFTCategory",
          "name": "category",
          "type": "uint8"
        },
        {
          "indexed": false,
          "internalType": "address",
          "name": "to",
          "type": "address"
        },
        {
          "indexed": false,
          "internalType": "uint256",
          "name": "facePrice",
          "type": "uint256"
        }
      ],
      "name": "NFTMinted",
      "type": "event"
    },
    {
      "anonymous": false,
      "inputs": [
        {
          "indexed": true,
          "internalType": "uint256",
          "name": "tokenId",
          "type": "uint256"
        },
        {
          "indexed": false,
          "internalType": "address",
          "name": "from",
          "type": "address"
        },
        {
          "indexed": false,
          "internalType": "address",
          "name": "to",
          "type": "address"
        },
        {
          "indexed": false,
          "internalType": "uint256",
          "name": "price",
          "type": "uint256"
        },
        {
          "indexed": false,
          "internalType": "uint8",
          "name": "transferCount",
          "type": "uint8"
        }
      ],
      "name": "NFTTransferred",
      "type": "event"
    },
    {
      "anonymous": false,
      "inputs": [
        {
          "indexed": true,
          "internalType": "uint256",
          "name": "tokenId",
          "type": "uint256"
        },
        {
          "indexed": false,
          "internalType": "address",
          "name": "verifiedBy",
          "type": "address"
        }
      ],
      "name": "NFTVerified",
      "type": "event"
    },
    {
      "anonymous": false,
      "inputs": [
        {
          "indexed": true,
          "internalType": "address",
          "name": "previousOwner",
          "type": "address"
        },
        {
          "indexed": true,
          "internalType": "address",
          "name": "newOwner",
          "type": "address"
        }
      ],
      "name": "OwnershipTransferred",
      "type": "event"
    },
    {
      "anonymous": false,
      "inputs": [
        {
          "indexed": true,
          "internalType": "address",
          "name": "from",
          "type": "address"
        },
        {
          "indexed": true,
          "internalType": "address",
          "name": "to",
          "type": "address"
        },
        {
          "indexed": true,
          "internalType": "uint256",
          "name": "tokenId",
          "type": "uint256"
        }
      ],
      "name": "Transfer",
      "type": "event"
    },
    {
      "inputs": [],
      "name": "BPS_DENOMINATOR",
      "outputs": [
        {
          "internalType": "uint256",
          "name": "",
          "type": "uint256"
        }
      ],
      "stateMutability": "view",
      "type": "function"
    },
    {
      "inputs": [],
      "name": "MAX_BATCH_SIZE",
      "outputs": [
        {
          "internalType": "uint256",
          "name": "",
          "type": "uint256"
        }
      ],
      "stateMutability": "view",
      "type": "function"
    },
    {
      "inputs": [],
      "name": "PROTOCOL_FEE_BPS",
      "outputs": [
        {
          "internalType": "uint256",
          "name": "",
          "type": "uint256"
        }
      ],
      "stateMutability": "view",
      "type": "function"
    },
    {
      "inputs": [],
      "name": "RESALE_CAP_PERCENT",
      "outputs": [
        {
          "internalType": "uint256",
          "name": "",
          "type": "uint256"
        }
      ],
      "stateMutability": "view",
      "type": "function"
    },
    {
      "inputs": [],
      "name": "UNLIMITED_TRANSFERS",
      "outputs": [
        {
          "internalType": "uint8",
          "name": "",
          "type": "uint8"
        }
      ],
      "stateMutability": "view",
      "type": "function"
    },
    {
      "inputs": [
        {
          "internalType": "address",
          "name": "to",
          "type": "address"
        },
        {
          "internalType": "uint256",
          "name": "tokenId",
          "type": "uint256"
        }
      ],
      "name": "approve",
      "outputs": [],
      "stateMutability": "nonpayable",
      "type": "function"
    },
    {
      "inputs": [
        {
          "internalType": "address",
          "name": "owner",
          "type": "address"
        }
      ],
      "name": "balanceOf",
      "outputs": [
        {
          "internalType": "uint256",
          "name": "",
          "type": "uint256"
        }
      ],
      "stateMutability": "view",
      "type": "function"
    },
    {
      "inputs": [
        {
          "internalType": "uint256",
          "name": "tokenId",
          "type": "uint256"
        }
      ],
      "name": "burnExpired",
      "outputs": [],
      "stateMutability": "nonpayable",
      "type": "function"
    },
    {
      "inputs": [
        {
          "internalType": "uint256",
          "name": "tokenId",
          "type": "uint256"
        }
      ],
      "name": "cancelToken",
      "outputs": [],
      "stateMutability": "nonpayable",
      "type": "function"
    },
    {
      "inputs": [],
      "name": "franchiseRegistry",
      "outputs": [
        {
          "internalType": "contract IFranchiseRegistry",
          "name": "",
          "type": "address"
        }
      ],
      "stateMutability": "view",
      "type": "function"
    },
    {
      "inputs": [
        {
          "internalType": "uint256",
          "name": "tokenId",
          "type": "uint256"
        }
      ],
      "name": "getApproved",
      "outputs": [
        {
          "internalType": "address",
          "name": "",
          "type": "address"
        }
      ],
      "stateMutability": "view",
      "type": "function"
    },
    {
      "inputs": [
        {
          "internalType": "uint256",
          "name": "tokenId",
          "type": "uint256"
        }
      ],
      "name": "getFullMetadata",
      "outputs": [
        {
          "components": [
            {
              "internalType": "uint256",
              "name": "tokenId",
              "type": "uint256"
            },
            {
              "internalType": "uint256",
              "name": "franchiseId",
              "type": "uint256"
            },
            {
              "internalType": "string",
              "name": "name",
              "type": "string"
            },
            {
              "internalType": "string",
              "name": "description",
              "type": "string"
            },
            {
              "internalType": "string",
              "name": "metadataURI",
              "type": "string"
            },
            {
              "internalType": "uint256",
              "name": "facePrice",
              "type": "uint256"
            },
            {
              "internalType": "uint256",
              "name": "maxResalePrice",
              "type": "uint256"
            },
            {
              "internalType": "uint256",
              "name": "eventTimestamp",
              "type": "uint256"
            },
            {
              "internalType": "uint256",
              "name": "mintedAt",
              "type": "uint256"
            },
            {
              "internalType": "enum WireTrustNFT.NFTCategory",
              "name": "category",
              "type": "uint8"
            },
            {
              "internalType": "enum WireTrustNFT.TokenStatus",
              "name": "status",
              "type": "uint8"
            },
            {
              "internalType": "uint8",
              "name": "maxTransfers",
              "type": "uint8"
            },
            {
              "internalType": "uint8",
              "name": "transferCount",
              "type": "uint8"
            },
            {
              "internalType": "bool",
              "name": "soulbound",
              "type": "bool"
            }
          ],
          "internalType": "struct WireTrustNFT.NFTMetadata",
          "name": "",
          "type": "tuple"
        }
      ],
      "stateMutability": "view",
      "type": "function"
    },
    {
      "inputs": [
        {
          "internalType": "uint256",
          "name": "franchiseId",
          "type": "uint256"
        },
        {
          "internalType": "enum WireTrustNFT.NFTCategory",
          "name": "category",
          "type": "uint8"
        }
      ],
      "name": "getTokensByCategory",
      "outputs": [
        {
          "internalType": "uint256[]",
          "name": "",
          "type": "uint256[]"
        }
      ],
      "stateMutability": "view",
      "type": "function"
    },
    {
      "inputs": [
        {
          "internalType": "address",
          "name": "owner_",
          "type": "address"
        }
      ],
      "name": "getTokensByOwner",
      "outputs": [
        {
          "internalType": "uint256[]",
          "name": "",
          "type": "uint256[]"
        }
      ],
      "stateMutability": "view",
      "type": "function"
    },
    {
      "inputs": [
        {
          "internalType": "address",
          "name": "owner",
          "type": "address"
        },
        {
          "internalType": "address",
          "name": "operator",
          "type": "address"
        }
      ],
      "name": "isApprovedForAll",
      "outputs": [
        {
          "internalType": "bool",
          "name": "",
          "type": "bool"
        }
      ],
      "stateMutability": "view",
      "type": "function"
    },
    {
      "inputs": [
        {
          "internalType": "uint256",
          "name": "tokenId",
          "type": "uint256"
        }
      ],
      "name": "isAuthentic",
      "outputs": [
        {
          "internalType": "bool",
          "name": "",
          "type": "bool"
        }
      ],
      "stateMutability": "view",
      "type": "function"
    },
    {
      "inputs": [
        {
          "internalType": "address",
          "name": "to",
          "type": "address"
        },
        {
          "internalType": "uint256",
          "name": "franchiseId",
          "type": "uint256"
        },
        {
          "internalType": "enum WireTrustNFT.NFTCategory",
          "name": "category",
          "type": "uint8"
        },
        {
          "internalType": "string",
          "name": "name",
          "type": "string"
        },
        {
          "internalType": "string",
          "name": "description",
          "type": "string"
        },
        {
          "internalType": "string",
          "name": "metadataURI",
          "type": "string"
        },
        {
          "internalType": "uint256",
          "name": "facePrice",
          "type": "uint256"
        },
        {
          "internalType": "uint256",
          "name": "eventTimestamp",
          "type": "uint256"
        }
      ],
      "name": "mint",
      "outputs": [
        {
          "internalType": "uint256",
          "name": "",
          "type": "uint256"
        }
      ],
      "stateMutability": "nonpayable",
      "type": "function"
    },
    {
      "inputs": [
        {
          "internalType": "address[]",
          "name": "recipients",
          "type": "address[]"
        },
        {
          "internalType": "uint256",
          "name": "franchiseId",
          "type": "uint256"
        },
        {
          "internalType": "enum WireTrustNFT.NFTCategory",
          "name": "category",
          "type": "uint8"
        },
        {
          "internalType": "string",
          "name": "name",
          "type": "string"
        },
        {
          "internalType": "string",
          "name": "description",
          "type": "string"
        },
        {
          "internalType": "string",
          "name": "metadataURI",
          "type": "string"
        },
        {
          "internalType": "uint256",
          "name": "facePrice",
          "type": "uint256"
        },
        {
          "internalType": "uint256",
          "name": "eventTimestamp",
          "type": "uint256"
        }
      ],
      "name": "mintBatch",
      "outputs": [
        {
          "internalType": "uint256[]",
          "name": "ids",
          "type": "uint256[]"
        }
      ],
      "stateMutability": "nonpayable",
      "type": "function"
    },
    {
      "inputs": [],
      "name": "name",
      "outputs": [
        {
          "internalType": "string",
          "name": "",
          "type": "string"
        }
      ],
      "stateMutability": "view",
      "type": "function"
    },
    {
      "inputs": [
        {
          "internalType": "uint256",
          "name": "",
          "type": "uint256"
        }
      ],
      "name": "nftData",
      "outputs": [
        {
          "internalType": "uint256",
          "name": "tokenId",
          "type": "uint256"
        },
        {
          "internalType": "uint256",
          "name": "franchiseId",
          "type": "uint256"
        },
        {
          "internalType": "string",
          "name": "name",
          "type": "string"
        },
        {
          "internalType": "string",
          "name": "description",
          "type": "string"
        },
        {
          "internalType": "string",
          "name": "metadataURI",
          "type": "string"
        },
        {
          "internalType": "uint256",
          "name": "facePrice",
          "type": "uint256"
        },
        {
          "internalType": "uint256",
          "name": "maxResalePrice",
          "type": "uint256"
        },
        {
          "internalType": "uint256",
          "name": "eventTimestamp",
          "type": "uint256"
        },
        {
          "internalType": "uint256",
          "name": "mintedAt",
          "type": "uint256"
        },
        {
          "internalType": "enum WireTrustNFT.NFTCategory",
          "name": "category",
          "type": "uint8"
        },
        {
          "internalType": "enum WireTrustNFT.TokenStatus",
          "name": "status",
          "type": "uint8"
        },
        {
          "internalType": "uint8",
          "name": "maxTransfers",
          "type": "uint8"
        },
        {
          "internalType": "uint8",
          "name": "transferCount",
          "type": "uint8"
        },
        {
          "internalType": "bool",
          "name": "soulbound",
          "type": "bool"
        }
      ],
      "stateMutability": "view",
      "type": "function"
    },
    {
      "inputs": [],
      "name": "owner",
      "outputs": [
        {
          "internalType": "address",
          "name": "",
          "type": "address"
        }
      ],
      "stateMutability": "view",
      "type": "function"
    },
    {
      "inputs": [
        {
          "internalType": "uint256",
          "name": "tokenId",
          "type": "uint256"
        }
      ],
      "name": "ownerOf",
      "outputs": [
        {
          "internalType": "address",
          "name": "",
          "type": "address"
        }
      ],
      "stateMutability": "view",
      "type": "function"
    },
    {
      "inputs": [],
      "name": "protocolTreasury",
      "outputs": [
        {
          "internalType": "address",
          "name": "",
          "type": "address"
        }
      ],
      "stateMutability": "view",
      "type": "function"
    },
    {
      "inputs": [],
      "name": "renounceOwnership",
      "outputs": [],
      "stateMutability": "nonpayable",
      "type": "function"
    },
    {
      "inputs": [
        {
          "internalType": "address",
          "name": "from",
          "type": "address"
        },
        {
          "internalType": "address",
          "name": "to",
          "type": "address"
        },
        {
          "internalType": "uint256",
          "name": "tokenId",
          "type": "uint256"
        }
      ],
      "name": "safeTransferFrom",
      "outputs": [],
      "stateMutability": "nonpayable",
      "type": "function"
    },
    {
      "inputs": [
        {
          "internalType": "address",
          "name": "from",
          "type": "address"
        },
        {
          "internalType": "address",
          "name": "to",
          "type": "address"
        },
        {
          "internalType": "uint256",
          "name": "tokenId",
          "type": "uint256"
        },
        {
          "internalType": "bytes",
          "name": "data",
          "type": "bytes"
        }
      ],
      "name": "safeTransferFrom",
      "outputs": [],
      "stateMutability": "nonpayable",
      "type": "function"
    },
    {
      "inputs": [
        {
          "internalType": "address",
          "name": "operator",
          "type": "address"
        },
        {
          "internalType": "bool",
          "name": "approved",
          "type": "bool"
        }
      ],
      "name": "setApprovalForAll",
      "outputs": [],
      "stateMutability": "nonpayable",
      "type": "function"
    },
    {
      "inputs": [
        {
          "internalType": "bytes4",
          "name": "interfaceId",
          "type": "bytes4"
        }
      ],
      "name": "supportsInterface",
      "outputs": [
        {
          "internalType": "bool",
          "name": "",
          "type": "bool"
        }
      ],
      "stateMutability": "view",
      "type": "function"
    },
    {
      "inputs": [],
      "name": "symbol",
      "outputs": [
        {
          "internalType": "string",
          "name": "",
          "type": "string"
        }
      ],
      "stateMutability": "view",
      "type": "function"
    },
    {
      "inputs": [],
      "name": "tokenCount",
      "outputs": [
        {
          "internalType": "uint256",
          "name": "",
          "type": "uint256"
        }
      ],
      "stateMutability": "view",
      "type": "function"
    },
    {
      "inputs": [
        {
          "internalType": "uint256",
          "name": "tokenId",
          "type": "uint256"
        }
      ],
      "name": "tokenURI",
      "outputs": [
        {
          "internalType": "string",
          "name": "",
          "type": "string"
        }
      ],
      "stateMutability": "view",
      "type": "function"
    },
    {
      "inputs": [
        {
          "internalType": "address",
          "name": "from",
          "type": "address"
        },
        {
          "internalType": "address",
          "name": "to",
          "type": "address"
        },
        {
          "internalType": "uint256",
          "name": "tokenId",
          "type": "uint256"
        }
      ],
      "name": "transferFrom",
      "outputs": [],
      "stateMutability": "nonpayable",
      "type": "function"
    },
    {
      "inputs": [
        {
          "internalType": "address",
          "name": "newOwner",
          "type": "address"
        }
      ],
      "name": "transferOwnership",
      "outputs": [],
      "stateMutability": "nonpayable",
      "type": "function"
    },
    {
      "inputs": [
        {
          "internalType": "uint256",
          "name": "tokenId",
          "type": "uint256"
        },
        {
          "internalType": "address",
          "name": "to",
          "type": "address"
        },
        {
          "internalType": "uint256",
          "name": "price",
          "type": "uint256"
        }
      ],
      "name": "transferWithPrice",
      "outputs": [],
      "stateMutability": "payable",
      "type": "function"
    },
    {
      "inputs": [
        {
          "internalType": "uint256",
          "name": "tokenId",
          "type": "uint256"
        }
      ],
      "name": "verifyAtVenue",
      "outputs": [],
      "stateMutability": "nonpayable",
      "type": "function"
    }
  ],
  "bytecode": "0x60c060405234610419576137766040813803918261001c8161041d565b9384928339810103126104195761003e602061003783610442565b9201610442565b610048604061041d565b91600d83526c15da5c99551c9d5cdd08139195609a1b602084015261006d604061041d565b600581526415d513919560da1b602082015283519092906001600160401b03811161032d575f54600181811c9116801561040f575b602082101461030f57601f81116103ad575b50602094601f821160011461034c579481929394955f92610341575b50508160011b915f199060031b1c1916175f555b82516001600160401b03811161032d57600154600181811c91168015610323575b602082101461030f57601f81116102ac575b506020601f821160011461024957819293945f9261023e575b50508160011b915f199060031b1c1916176001555b331561022b5760068054336001600160a01b0319821681179092556040519391906001600160a01b03167f8be0079c531659141344cd1fd0a4f28419497f9722a3daafe3b4186f6b6457e05f80a360017f9b779b17422d0df92223018b32b4d1fa46e071723d6817e2486d003becc55f00556001600160a01b0316801561021c576001600160a01b0382161561021c5760805260a05261331f9081610457823960805181818161029801528181610c7b0152818161146701528181611ad1015261224c015260a05181818161155501526118030152f35b63d92e233d60e01b5f5260045ffd5b631e4fbdf760e01b5f525f60045260245ffd5b015190505f80610130565b601f1982169060015f52805f20915f5b8181106102945750958360019596971061027c575b505050811b01600155610145565b01515f1960f88460031b161c191690555f808061026e565b9192602060018192868b015181550194019201610259565b60015f527fb10e2d527612073b26eecdfd717e6a320cf44b4afac2b0732d9fcbe2b7fa0cf6601f830160051c81019160208410610305575b601f0160051c01905b8181106102fa5750610117565b5f81556001016102ed565b90915081906102e4565b634e487b7160e01b5f52602260045260245ffd5b90607f1690610105565b634e487b7160e01b5f52604160045260245ffd5b015190505f806100d0565b601f198216955f8052805f20915f5b8881106103955750836001959697981061037d575b505050811b015f556100e4565b01515f1960f88460031b161c191690555f8080610370565b9192602060018192868501518155019401920161035b565b5f80527f290decd9548b62a8d60345a988386fc84ba6bc95484008f6362f93160ef3e563601f830160051c81019160208410610405575b601f0160051c01905b8181106103fa57506100b4565b5f81556001016103ed565b90915081906103e4565b90607f16906100a2565b5f80fd5b6040519190601f01601f191682016001600160401b0381118382101761032d57604052565b51906001600160a01b03821682036104195756fe6080806040526004361015610012575f80fd5b5f905f3560e01c90816301ffc9a71461250f5750806306fdde031461246d578063081812fc14612431578063095ea7b3146123475780630d1c103f1461232c57806323b872dd14612315578063382faa6a146121f757806339d3dff0146119d85780633f065ba21461195e57806340398d67146118e057806342842e0e146118b157806346e5ff67146116605780636352211e1461163057806370a08231146115df578063715018a614611584578063803db96d1461154057806380b9e5ed146114255780638c2109751461130a5780638da5cb5b146112e25780638fdda4f514610bbb578063948d9b0814610b9357806395d89b4114610ab55780639f181b5e14610a98578063a22cb465146109e4578063b88d4fde14610977578063bbed8ed31461074f578063be37822814610734578063c214d03f14610719578063c87b56dd146106bc578063cfdbf254146106a0578063d098769b146102e4578063e1a45218146102c7578063e82e143714610282578063e985e9c51461022a5763f2fde38b1461019f575f80fd5b34610227576020366003190112610227576101b861259e565b6101c06131a5565b6001600160a01b0316801561021357600680546001600160a01b0319811683179091556001600160a01b03167f8be0079c531659141344cd1fd0a4f28419497f9722a3daafe3b4186f6b6457e05f80a380f35b631e4fbdf760e01b82526004829052602482fd5b80fd5b503461022757604036600319011261022757604061024661259e565b9161024f6125b4565b9260018060a01b031681526005602052209060018060a01b03165f52602052602060ff60405f2054166040519015158152f35b50346102275780600319360112610227576040517f00000000000000000000000000000000000000000000000000000000000000006001600160a01b03168152602090f35b503461022757806003193601126102275760206040516127108152f35b503461022757602036600319011261022757600435808252600760205260408220600781015480156106915742106106825760090160ff815460081c16600481101561066e5761065f57805461ff0019166102001790555f818152600260205260409020546001600160a01b03168015158080610658575b61051c575b610459575b505f818152600260205260409020546001600160a01b03168015908115610426575b5f83815260026020526040812080546001600160a01b03191690558390827fddf252ad1be2c89b69c2b068fc378daa952ba7f163c4a11628f55a4df523b3ef8280a450610414577fa64f8ff5f436647cf80aef0a68568d59178ae856dfd7d622cbc5cd5cff1ebb116060604051602081526007602082015266195e1c1a5c995960ca1b6040820152a280f35b637e27328960e01b8252600452602490fd5b5f83815260046020526040902080546001600160a01b0319169055805f52600360205260405f205f198154019055610388565b5f52600960205260405f20815f52600a60205260405f20545f198254018082036104d2575b5050805480156104be575f1901906104a96104998383612bd3565b8154905f199060031b1b19169055565b55805f52600a6020525f60408120555f610366565b634e487b7160e01b5f52603160045260245ffd5b6104dc9083612bd3565b90549060031b1c610509816104f18486612bd3565b90919082549060031b91821b915f19901b1916179055565b5f52600a60205260405f20555f8061047e565b825f52600760205260405f206009810180549160ff8360201c166106495760ff8360081c1660048110156106265761063a5760ff8316600581101561062657801590811561061b575b506105f8575b60ff8360101c1660ff81036105d6575b506007015480151590816105cb575b506105bc5760ff6001816105b79460181c16011663ff00000082549160181b169063ff0000001916179055565b610361565b633c091c3360e01b5f5260045ffd5b90504210155f61058a565b60ff8460181c1610156105e9575f61057b565b63252fb4b960e11b5f5260045ffd5b855f52600c60205260ff60405f20541661056b576353c613f160e01b5f5260045ffd5b60019150145f610565565b634e487b7160e01b5f52602160045260245ffd5b6358700a0160e11b5f5260045ffd5b636e10574960e01b5f5260045ffd5b505f61035c565b634689a2b560e11b8352600483fd5b634e487b7160e01b84526021600452602484fd5b632cc8960360e11b8352600483fd5b631964a37360e11b8452600484fd5b5034610227578060031936011261022757602060405160648152f35b34610715576020366003190112610715576106d8600435612ca7565b505f6040516106e86020826126be565b526107116040516106fa6020826126be565b5f815260405191829160208352602083019061257a565b0390f35b5f80fd5b34610715575f366003190112610715576020604051606e8152f35b34610715575f36600319011261071557602060405160fa8152f35b34610715576020366003190112610715575f6101a0604051610770816126a2565b82815282602082015260606040820152606080820152606060808201528260a08201528260c08201528260e0820152826101008201528261012082015282610140820152826101608201528261018082015201526004355f52600760205260405f206040516107de816126a2565b81548152600182015491602082019283526107fb600282016126df565b906040830191825261080f600382016126df565b9160608401928352610823600483016126df565b926080850193845260058301549360a08601948552600684015460c0870190815260078501549460e0880195865260096008820154916101008a0192835201549561012089019261087760ff891685612ba3565b60ff8860081c16946101408b019560048110156106265786526101608b01968960101c60ff1688526101808c01988a60181c60ff168a526101a08d019a60201c60ff1615158b52604051809e819e602083525160208301525190604001525160608d016101c090526101e08d016108ed9161257a565b90518c8203601f190160808e0152610905919061257a565b90518b8203601f190160a08d015261091d919061257a565b985160c08b01525160e08a015251610100890152516101208801525161014087016109479161277f565b5161016086016109569161278c565b5160ff166101808501525160ff166101a08401525115156101c08301520390f35b346107155760803660031901126107155761099061259e565b6109986125b4565b90604435606435926001600160401b0384116107155736602385011215610715576109d06109e29436906024816004013591016127b4565b926109dc8383836127ea565b336131cc565b005b34610715576040366003190112610715576109fd61259e565b60243590811515809203610715573315610a85576001600160a01b0316908115610a7257335f52600560205260405f20825f5260205260405f2060ff1981541660ff83161790556040519081527f17307eab39ab6107e8899845ad3d59bd9653f200f220920489ca2b5937696c3160203392a3005b50630b61174360e31b5f5260045260245ffd5b63a9fbf51f60e01b5f525f60045260245ffd5b34610715575f366003190112610715576020600854604051908152f35b34610715575f366003190112610715576040515f600154610ad58161266a565b8084529060018116908115610b6f5750600114610b11575b61071183610afd818503826126be565b60405191829160208352602083019061257a565b60015f9081527fb10e2d527612073b26eecdfd717e6a320cf44b4afac2b0732d9fcbe2b7fa0cf6939250905b808210610b5557509091508101602001610afd610aed565b919260018160209254838588010152019101909291610b3d565b60ff191660208086019190915291151560051b84019091019150610afd9050610aed565b34610715576020366003190112610715576020610bb1600435612c65565b6040519015158152f35b346107155761010036600319011261071557610bd561259e565b604435906024356005831015610715576064356001600160401b03811161071557610c04903690600401612604565b92906084356001600160401b03811161071557610c25903690600401612604565b92909460a4356001600160401b03811161071557610c47903690600401612604565b9360c4359460e43596610c58612f8d565b60038b146112b85760408051631bfa094160e31b815233600482015290816024817f00000000000000000000000000000000000000000000000000000000000000006001600160a01b03165afa80156112ad578a905f925f91611278575b508261126e575b50501580611259575b61124a578a9489915b5f998715801561123d575b611219575b6008546001019c8d9586600855610cf68c8b612fc5565b9a9193909960405197610d08896126a2565b8a895260208901998a523690610d1d926127b4565b95604088019687523690610d30926127b4565b91606087019283523690610d43926127b4565b6080860190815260a08601918d835260c0870193845260e0870194855261010087019542875261012088019c610d79908e612ba3565b6101408801985f8a5261016089019b60ff168c5261018089019a5f8c526101a08a01809e151590525f52600760205260405f20985189555160018901556002880190518051906001600160401b038211611089578190610dd9845461266a565b601f81116111c9575b50602090601f8311600114611166575f9261115b575b50508160011b915f199060031b1c19161790555b51805160038801916001600160401b038211611089578190610e2e845461266a565b601f811161110b575b50602090601f83116001146110a8575f9261109d575b50508160011b915f199060031b1c19161790555b51805160048701916001600160401b03821161108957610e81835461266a565b601f8111611044575b50602090601f8311600114610fd957600998979695949392915f9183610fce575b50508160011b915f199060031b1c19161790555b51600585015551600684015551600783015551600882015501945160058110156106265760ff801987541691161785555190600482101561062657610f3492610f0a60ff9387612b6d565b518554915163ffff00001990921660109190911b62ff00001617911660181b63ff00000016178355565b51815464ff00000000191690151560201b64ff0000000016179055610f598582613059565b835f52600b60205260405f20926106265785610fb27ff9137561cf493fd3f8172914c3af76a10911f0da086b8d0a0f8043d50a25a3a49387956020995f528952610fa68660405f20612be8565b60405193849384612c10565b0390a360015f5160206132ca5f395f51905f5255604051908152f35b015190505f80610eab565b90601f19831691845f52815f20925f5b81811061102c575091600193918560099c9b9a999897969410611014575b505050811b019055610ebf565b01515f1960f88460031b161c191690555f8080611007565b92936020600181928786015181550195019301610fe9565b835f5260205f20601f840160051c8101916020851061107f575b601f0160051c01905b8181106110745750610e8a565b5f8155600101611067565b909150819061105e565b634e487b7160e01b5f52604160045260245ffd5b015190505f80610e4d565b5f8581528281209350601f198516905b8181106110f357509084600195949392106110db575b505050811b019055610e61565b01515f1960f88460031b161c191690555f80806110ce565b929360206001819287860151815501950193016110b8565b909150835f5260205f20601f840160051c81019160208510611151575b90601f859493920160051c01905b8181106111435750610e37565b5f8155849350600101611136565b9091508190611128565b015190505f80610df8565b5f8581528281209350601f198516905b8181106111b15750908460019594939210611199575b505050811b019055610e0c565b01515f1960f88460031b161c191690555f808061118c565b92936020600181928786015181550195019301611176565b909150835f5260205f20601f840160051c8101916020851061120f575b90601f859493920160051c01905b8181106112015750610de2565b5f81558493506001016111f4565b90915081906111e6565b925095504282111561122e578b958a92610cdf565b63f89cc76560e01b5f5260045ffd5b505f9a5060018814610cda565b63ba74eebb60e01b5f5260045ffd5b506006546001600160a01b0316331415610cc6565b149050898d610cbd565b905061129d91925060403d6040116112a6575b61129581836126be565b810190612b4d565b9190918e610cb6565b503d61128b565b6040513d5f823e3d90fd5b6006546001600160a01b031633036112d3578a948991610ccf565b63b2bd4baf60e01b5f5260045ffd5b34610715575f366003190112610715576006546040516001600160a01b039091168152602090f35b34610715576020366003190112610715576004355f52600760205260405f2080546001820154916002810161133e906126df565b61134a600383016126df565b91611357600482016126df565b926005820154936006830154906007840154926008850154946009015495604051998a998a5260208a0152604089016101c090526101c089016113999161257a565b88810360608a01526113aa9161257a565b87810360808901526113bb9161257a565b9460a087015260c086015260e0850152610100840152610120830160ff8216906113e49161277f565b6113f9610140840160ff600884901c1661278c565b8060101c60ff166101608401528060181c60ff1661018084015260201c60ff1615156101a08301520390f35b3461071557602036600319011261071557600435805f52600760205260405f20604051631bfa094160e31b815233600482015260408160248160018060a01b037f0000000000000000000000000000000000000000000000000000000000000000165afa80156112ad575f915f9161151f575b5081611511575b5015806114fc575b61124a5760090160ff815460081c1660048110156106265761063a5761010061ff00198254161790557f94cea318c6e1a5093dd435e08a8d4c1b8eaca421199b03ca2b7c7b67071cb68f6020604051338152a2005b506006546001600160a01b03163314156114a7565b90506001820154148361149f565b905061153a915060403d6040116112a65761129581836126be565b84611498565b34610715575f366003190112610715576040517f00000000000000000000000000000000000000000000000000000000000000006001600160a01b03168152602090f35b34610715575f3660031901126107155761159c6131a5565b600680546001600160a01b031981169091555f906001600160a01b03167f8be0079c531659141344cd1fd0a4f28419497f9722a3daafe3b4186f6b6457e08280a3005b34610715576020366003190112610715576001600160a01b0361160061259e565b16801561161d575f526003602052602060405f2054604051908152f35b6322718ad960e21b5f525f60045260245ffd5b3461071557602036600319011261071557602061164e600435612ca7565b6040516001600160a01b039091168152f35b6060366003190112610715576004356116776125b4565b60443590611683612f8d565b61168c83612ca7565b336001600160a01b03909116036118a25781340361188b57825f52600760205260405f2060068101548061186d575b505f848152600c60205260409020805460ff191660011790556001600160a01b03821691821561185a576001600160a01b03906116f9908690612cdb565b16806117125784637e27328960e01b5f5260045260245ffd5b3381036118405750835f52600c60205260405f2060ff19815416905560fa830283810460fa14841517156117e8576127109004806117fc575b808403908482116117e85784036117b9575b50907f7bb207808fb5899b4cef94bccdede1c59b076a0907079ed5b5ac51f93f36fe649260ff6009608094015460181c169060405192338452602084015260408301526060820152a260015f5160206132ca5f395f51905f5255005b5f80808093959495335af16117cc612c36565b50156117d957908461175d565b6312171d8360e31b5f5260045ffd5b634e487b7160e01b5f52601160045260245ffd5b5f808080847f00000000000000000000000000000000000000000000000000000000000000005af161182c612c36565b5061174b576312171d8360e31b5f5260045ffd5b846364283d7b60e01b5f523360045260245260445260645ffd5b633250574960e11b5f525f60045260245ffd5b808411156116bb57836305c746bf60e11b5f5260045260245260445ffd5b50630d35e92160e01b5f526004523460245260445ffd5b6359dc379f60e01b5f5260045ffd5b34610715576109e26118c2366125ca565b90604051926118d26020856126be565b5f84526109dc8383836127ea565b34610715576020366003190112610715576001600160a01b0361190161259e565b165f52600960205260405f206040519081602082549182815201915f5260205f20905f5b818110611948576107118561193c818703826126be565b60405191829182612631565b8254845260209093019260019283019201611925565b34610715576040366003190112610715576024356005811015610715576004355f52600b60205260405f20905f5260205260405f206040519081602082549182815201915f5260205f20905f5b8181106119c2576107118561193c818703826126be565b82548452602090930192600192830192016119ab565b3461071557610100366003190112610715576004356001600160401b0381116107155736602382011215610715576001600160401b0381600401351161071557366024826004013560051b830101116107155760056044351015610715576064356001600160401b03811161071557611a55903690600401612604565b906084356001600160401b03811161071557611a75903690600401612604565b909160a4356001600160401b03811161071557611a96903690600401612604565b9490611aa0612f8d565b60648760040135116121db576044356003146121ba5760408051631bfa094160e31b815233600482015290816024817f00000000000000000000000000000000000000000000000000000000000000006001600160a01b03165afa80156112ad575f915f91612199575b508161218d575b501580612178575b61124a575b5f60443515801561216a575b612152575b611b3d60c435604435612fc5565b939092610626579796959493929190611b598a60040135612b8c565b98611b676040519a8b6126be565b60048b0135808b52601f1990611b7c90612b8c565b013660208c0137600854985f985b8c600401358a10611bb95760088b905560015f5160206132ca5f395f51905f5255604051806107118e82612631565b9091929394959697989960010199604051611bd3816126a2565b8b81526024356020820152611be9368a8c6127b4565b6040820152611bf9368c856127b4565b6060820152611c093685876127b4565b608082015260c43560a08201528560c082015260e43560e082015242610100820152611c3b6044356101208301612ba3565b5f61014082015260ff87166101608201525f6101808201528715156101a08201528b5f52600760205260405f2081518155602082015160018201556002810160408301518051906001600160401b038211611089578190611c9c845461266a565b601f8111612102575b50602090601f831160011461209f575f92612094575b50508160011b915f199060031b1c19161790555b6003810160608301518051906001600160401b038211611089578190611cf5845461266a565b601f8111612044575b50602090601f8311600114611fe1575f92611fd6575b50508160011b915f199060031b1c19161790555b60808201518051906001600160401b03821161108957611d4b600484015461266a565b601f8111611f8e575b50602090601f8311600114611f205760099392915f9183611f15575b50508160011b915f199060031b1c19161760048201555b60a0830151600582015560c0830151600682015560e083015160078201556101008301516008820155019061012081015160058110156106265760ff80198454169116178255610140810151916004831015610626578f848f9391836101a0611e5994611dfa611e6399611e5e98612b6d565b610160810151835461018083015163ffff00001990911660109290921b62ff0000169190911760189190911b63ff000000161783550151815464ff00000000191690151560201b64ff0000000016179055600481013590602401612baf565b612bbf565b613059565b6024355f52600b60205260405f206044355f52602052611e868b60405f20612be8565b8b51811015611f015780611eb5611e598f938f948f60206001978460051b010152602481600401359101612baf565b8c7ff9137561cf493fd3f8172914c3af76a10911f0da086b8d0a0f8043d50a25a3a460405180611eef6024359560c4359060443584612c10565b0390a301989796959493929190611b8a565b634e487b7160e01b5f52603260045260245ffd5b015190505f80611d70565b90600484015f52805f20915f5b601f1985168110611f76575091839160019360099695601f19811610611f5e575b505050811b016004820155611d87565b01515f1960f88460031b161c191690555f8080611f4e565b91926020600181928685015181550194019201611f2d565b600484015f5260205f20601f840160051c81019160208510611fcc575b601f0160051c01905b818110611fc15750611d54565b5f8155600101611fb4565b9091508190611fab565b015190505f80611d14565b5f8581528281209350601f198516905b81811061202c5750908460019594939210612014575b505050811b019055611d28565b01515f1960f88460031b161c191690555f8080612007565b92936020600181928786015181550195019301611ff1565b909150835f5260205f20601f840160051c8101916020851061208a575b90601f859493920160051c01905b81811061207c5750611cfe565b5f815584935060010161206f565b9091508190612061565b015190505f80611cbb565b5f8581528281209350601f198516905b8181106120ea57509084600195949392106120d2575b505050811b019055611ccf565b01515f1960f88460031b161c191690555f80806120c5565b929360206001819287860151815501950193016120af565b909150835f5260205f20601f840160051c81019160208510612148575b90601f859493920160051c01905b81811061213a5750611ca5565b5f815584935060010161212d565b909150819061211f565b4260e43511611b2f5763f89cc76560e01b5f5260045ffd5b50505f600160443514611b2a565b506006546001600160a01b0316331415611b19565b90506024351488611b11565b90506121b4915060403d6040116112a65761129581836126be565b89611b0a565b6006546001600160a01b03163314611b1e5763b2bd4baf60e01b5f5260045ffd5b8663bb1cb70b60e01b5f5260040135600452606460245260445ffd5b3461071557602036600319011261071557600435805f52600760205260405f20600981019060ff825460081c1660048110156106265761063a5760408051631bfa094160e31b815233600482015290816024817f00000000000000000000000000000000000000000000000000000000000000006001600160a01b03165afa80156112ad575f915f916122f4575b50816122e6575b5015806122d1575b61124a57815461ff0019166103001790915560010154907f11257108d66fc1af89a11de4ae3c765093b4f69f26686c1bda74cc9cc7f31bf15f80a3005b506006546001600160a01b0316331415612294565b90506001820154148461228c565b905061230f915060403d6040116112a65761129581836126be565b85612285565b34610715576109e2612326366125ca565b916127ea565b34610715575f36600319011261071557602060405160ff8152f35b346107155760403660031901126107155761236061259e565b60243561236c81612ca7565b3315158061241e575b806123f1575b6123de5781906001600160a01b0384811691167f8c5be1e5ebec7d5bd14f71427d1e84f3dd0314c0f7b2291e5b200ac8c7c3b9255f80a45f90815260046020526040902080546001600160a01b0319166001600160a01b03909216919091179055005b63a9fbf51f60e01b5f523360045260245ffd5b506001600160a01b0381165f90815260056020908152604080832033845290915290205460ff161561237b565b506001600160a01b038116331415612375565b346107155760203660031901126107155760043561244e81612ca7565b505f526004602052602060018060a01b0360405f205416604051908152f35b34610715575f366003190112610715576040515f5f5461248c8161266a565b8084529060018116908115610b6f57506001146124b35761071183610afd818503826126be565b5f8080527f290decd9548b62a8d60345a988386fc84ba6bc95484008f6362f93160ef3e563939250905b8082106124f557509091508101602001610afd610aed565b9192600181602092548385880101520191019092916124dd565b34610715576020366003190112610715576004359063ffffffff60e01b8216809203610715576020916380ac58cd60e01b8114908115612569575b8115612558575b5015158152f35b6301ffc9a760e01b14905083612551565b635b5e139f60e01b8114915061254a565b805180835260209291819084018484015e5f828201840152601f01601f1916010190565b600435906001600160a01b038216820361071557565b602435906001600160a01b038216820361071557565b6060906003190112610715576004356001600160a01b038116810361071557906024356001600160a01b0381168103610715579060443590565b9181601f84011215610715578235916001600160401b038311610715576020838186019501011161071557565b60206040818301928281528451809452019201905f5b8181106126545750505090565b8251845260209384019390920191600101612647565b90600182811c92168015612698575b602083101461268457565b634e487b7160e01b5f52602260045260245ffd5b91607f1691612679565b6101c081019081106001600160401b0382111761108957604052565b90601f801991011681019081106001600160401b0382111761108957604052565b9060405191825f8254926126f28461266a565b808452936001811690811561275d5750600114612719575b50612717925003836126be565b565b90505f9291925260205f20905f915b818310612741575050906020612717928201015f61270a565b6020919350806001915483858901015201910190918492612728565b90506020925061271794915060ff191682840152151560051b8201015f61270a565b9060058210156106265752565b9060048210156106265752565b6001600160401b03811161108957601f01601f191660200190565b9291926127c082612799565b916127ce60405193846126be565b829481845281830111610715578281602093845f960137010152565b6001600160a01b039091169190821561185a575f828152600260205260409020546001600160a01b03168015158080612b45575b612a59575b6129d2575b50825f52600960205260405f2054825f52600a60205260405f2055825f5260096020526128588260405f20612be8565b5f828152600260205260409020546001600160a01b03169282903315158061293d575b508461290a575b805f52600360205260405f2060018154019055815f52600260205260405f20816bffffffffffffffffffffffff60a01b825416179055847fddf252ad1be2c89b69c2b068fc378daa952ba7f163c4a11628f55a4df523b3ef5f80a46001600160a01b03168083036128f257505050565b6364283d7b60e01b5f5260045260245260445260645ffd5b5f82815260046020526040902080546001600160a01b0319169055845f52600360205260405f205f198154019055612882565b90915080612981575b156129535782905f61287b565b828461296b57637e27328960e01b5f5260045260245ffd5b63177e802f60e01b5f523360045260245260445ffd5b5033841480156129b0575b8061294657505f838152600460205260409020546001600160a01b03163314612946565b505f84815260056020908152604080832033845290915290205460ff1661298c565b5f52600960205260405f20825f52600a60205260405f20545f19825401808203612a27575b5050805480156104be575f190190612a126104998383612bd3565b55815f52600a6020525f60408120555f612828565b612a319083612bd3565b90549060031b1c612a46816104f18486612bd3565b5f52600a60205260405f20555f806129f7565b835f52600760205260405f206009810180549160ff8360201c166106495760ff8360081c1660048110156106265761063a5760ff83166005811015610626578015908115612b3a575b50612b17575b60ff8360101c1660ff8103612b04575b50600701548015159081612af9575b506105bc5760ff600181612af49460181c16011663ff00000082549160181b169063ff0000001916179055565b612823565b90504210155f612ac7565b60ff8460181c1610156105e9575f612ab8565b865f52600c60205260ff60405f205416612aa8576353c613f160e01b5f5260045ffd5b60019150145f612aa2565b50600161281e565b919082604091031261071557815180151581036107155760209092015190565b9060048110156106265761ff0082549160081b169061ff001916179055565b6001600160401b0381116110895760051b60200190565b60058210156106265752565b9190811015611f015760051b0190565b356001600160a01b03811681036107155790565b8054821015611f01575f5260205f2001905f90565b908154916801000000000000000083101561108957826104f191600161271795018155612bd3565b604091949392612c2482606081019761277f565b6001600160a01b031660208201520152565b3d15612c60573d90612c4782612799565b91612c5560405193846126be565b82523d5f602084013e565b606090565b80158015612c9c575b612c97575f52600760205260ff600960405f20015460081c166004811015610626576003141590565b505f90565b506008548111612c6e565b5f818152600260205260409020546001600160a01b0316908115612cc9575090565b637e27328960e01b5f5260045260245ffd5b5f828152600260205260409020546001600160a01b03168015158080612f7b575b612e8f575b612e08575b506001600160a01b0316801515919082612dd4575b5f828152600260205260409020546001600160a01b03169283612da1575b612d89575b815f52600260205260405f20816bffffffffffffffffffffffff60a01b825416179055827fddf252ad1be2c89b69c2b068fc378daa952ba7f163c4a11628f55a4df523b3ef5f80a490565b805f52600360205260405f2060018154019055612d3e565b5f83815260046020526040902080546001600160a01b0319169055835f52600360205260405f205f198154019055612d39565b805f52600960205260405f2054825f52600a60205260405f2055805f526009602052612e038260405f20612be8565b612d1b565b5f52600960205260405f20825f52600a60205260405f20545f19825401808203612e5d575b5050805480156104be575f190190612e486104998383612bd3565b55815f52600a6020525f60408120555f612d06565b612e679083612bd3565b90549060031b1c612e7c816104f18486612bd3565b5f52600a60205260405f20555f80612e2d565b835f52600760205260405f206009810180549160ff8360201c166106495760ff8360081c1660048110156106265761063a5760ff83166005811015610626578015908115612f70575b50612f4d575b60ff8360101c1660ff8103612f3a575b50600701548015159081612f2f575b506105bc5760ff600181612f2a9460181c16011663ff00000082549160181b169063ff0000001916179055565b612d01565b90504210155f612efd565b60ff8460181c1610156105e9575f612eee565b865f52600c60205260ff60405f205416612ede576353c613f160e01b5f5260045ffd5b60019150145f612ed8565b506001600160a01b0383161515612cfc565b60025f5160206132ca5f395f51905f525414612fb65760025f5160206132ca5f395f51905f5255565b633ee5aeb560e01b5f5260045ffd5b60058110156106265780612ff35750606e810290808204606e14901517156117e85760649004906001905f90565b6001810361301b5750606e810290808204606e14901517156117e85760649004906001905f90565b90506002810361302f57505f9060ff905f90565b6003810361304157505f905f90600190565b600414613050575f905f905f90565b5f9060ff905f90565b906020906040519061306b83836126be565b5f82526001600160a01b03841693841561185a576001600160a01b036130918383612cdb565b16613192573b6130a2575b50505050565b916130df91819495936040519384928392630a85bd0160e11b84523360048501525f6024850152604484015260806064840152608483019061257a565b03815f885af15f9181613152575b5061311b5750506130fc612c36565b80519190826131185783633250574960e11b5f5260045260245ffd5b01fd5b909291506001600160e01b03191663757a42ff60e11b0161314057505f80808061309c565b633250574960e11b5f5260045260245ffd5b9091508381813d831161318b575b61316a81836126be565b8101031261071557516001600160e01b03198116810361071557905f6130ed565b503d613160565b6339e3563760e11b5f525f60045260245ffd5b6006546001600160a01b031633036131b957565b63118cdaa760e01b5f523360045260245ffd5b823b6131da575b5050505050565b604051630a85bd0160e11b81526001600160a01b03918216600482015291811660248301526044820193909352608060648201529116916020908290819061322690608483019061257a565b03815f865af15f9181613284575b506132625750613242612c36565b8051908161325d5782633250574960e11b5f5260045260245ffd5b602001fd5b6001600160e01b03191663757a42ff60e11b0161314057505f808080806131d3565b9091506020813d6020116132c1575b816132a0602093836126be565b8101031261071557516001600160e01b03198116810361071557905f613234565b3d915061329356fe9b779b17422d0df92223018b32b4d1fa46e071723d6817e2486d003becc55f00a2646970667358221220cef769ec4c9504307c6d1650e8943edc3995e163bc04d8acd6a94689453f008164736f6c634300081b0033",
  "linkReferences": {},
  "deployedLinkReferences": {}
}