{
  "_format": "hh-sol-artifact-1",
  "contractName": "WireTrustNFT",
  "sourceName": "contracts/modules/WireTrustNFT.sol",
  "abi": [
    {
      "inputs": [
        {
          "internalType": "address",
          "name": "_franchiseRegistry",
          "type": "address"
        },
        {
          "internalType": "address",
          "name": "_protocolTreasury",
          "type": "address"
        }
      ],
      "stateMutability": "nonpayable",
      "type": "constructor"
    },
    {
      "inputs": [],
      "name": "AlreadyBurnedOrUsed",
      "type": "error"
    },
    {
      "inputs": [
        {
          "internalType": "uint256",
          "name": "provided",
          "type": "uint256"
        },
        {
          "internalType": "uint256",
          "name": "max",
          "type": "uint256"
        }
      ],
      "name": "BatchTooLarge",
      "type": "error"
    },
    {
      "inputs": [
        {
          "internalType": "address",
          "name": "sender",
          "type": "address"
        },
        {
          "internalType": "uint256",
          "name": "tokenId",
          "type": "uint256"
        },
        {
          "internalType": "address",
          "name": "owner",
          "type": "address"
        }
      ],
      "name": "ERC721IncorrectOwner",
      "type": "error"
    },
    {
      "inputs": [
        {
          "internalType": "address",
          "name": "operator",
          "type": "address"
        },
        {
          "internalType": "uint256",
          "name": "tokenId",
          "type": "uint256"
        }
      ],
      "name": "ERC721InsufficientApproval",
      "type": "error"
    },
    {
      "inputs": [
        {
          "internalType": "address",
          "name": "approver",
          "type": "address"
        }
      ],
      "name": "ERC721InvalidApprover",
      "type": "error"
    },
    {
      "inputs": [
        {
          "internalType": "address",
          "name": "operator",
          "type": "address"
        }
      ],
      "name": "ERC721InvalidOperator",
      "type": "error"
    },
    {
      "inputs": [
        {
          "internalType": "address",
          "name": "owner",
          "type": "address"
        }
      ],
      "name": "ERC721InvalidOwner",
      "type": "error"
    },
    {
      "inputs": [
        {
          "internalType": "address",
          "name": "receiver",
          "type": "address"
        }
      ],
      "name": "ERC721InvalidReceiver",
      "type": "error"
    },
    {
      "inputs": [
        {
          "internalType": "address",
          "name": "sender",
          "type": "address"
        }
      ],
      "name": "ERC721InvalidSender",
      "type": "error"
    },
    {
      "inputs": [
        {
          "internalType": "uint256",
          "name": "tokenId",
          "type": "uint256"
        }
      ],
      "name": "ERC721NonexistentToken",
      "type": "error"
    },
    {
      "inputs": [],
      "name": "EventMustBeInFuture",
      "type": "error"
    },
    {
      "inputs": [],
      "name": "EventTimestampTooFar",
      "type": "error"
    },
    {
      "inputs": [
        {
          "internalType": "uint256",
          "name": "price",
          "type": "uint256"
        },
        {
          "internalType": "uint256",
          "name": "max",
          "type": "uint256"
        }
      ],
      "name": "ExceedsResalePriceCap",
      "type": "error"
    },
    {
      "inputs": [
        {
          "internalType": "uint256",
          "name": "required",
          "type": "uint256"
        },
        {
          "internalType": "uint256",
          "name": "provided",
          "type": "uint256"
        }
      ],
      "name": "IncorrectPayment",
      "type": "error"
    },
    {
      "inputs": [],
      "name": "InvalidEventTimestamp",
      "type": "error"
    },
    {
      "inputs": [],
      "name": "MaxTransfersReached",
      "type": "error"
    },
    {
      "inputs": [],
      "name": "NoExpirySet",
      "type": "error"
    },
    {
      "inputs": [],
      "name": "NotFranchiseAdmin",
      "type": "error"
    },
    {
      "inputs": [],
      "name": "NotListedForSale",
      "type": "error"
    },
    {
      "inputs": [],
      "name": "NotTokenOwner",
      "type": "error"
    },
    {
      "inputs": [],
      "name": "NotYetExpired",
      "type": "error"
    },
    {
      "inputs": [],
      "name": "OnlyProtocolMintsBadges",
      "type": "error"
    },
    {
      "inputs": [
        {
          "internalType": "address",
          "name": "owner",
          "type": "address"
        }
      ],
      "name": "OwnableInvalidOwner",
      "type": "error"
    },
    {
      "inputs": [
        {
          "internalType": "address",
          "name": "account",
          "type": "address"
        }
      ],
      "name": "OwnableUnauthorizedAccount",
      "type": "error"
    },
    {
      "inputs": [],
      "name": "ReentrancyGuardReentrantCall",
      "type": "error"
    },
    {
      "inputs": [],
      "name": "SoulboundToken",
      "type": "error"
    },
    {
      "inputs": [],
      "name": "TokenExpired",
      "type": "error"
    },
    {
      "inputs": [],
      "name": "TokenNotValid",
      "type": "error"
    },
    {
      "inputs": [],
      "name": "TransferFailed",
      "type": "error"
    },
    {
      "inputs": [],
      "name": "UseTransferWithPrice",
      "type": "error"
    },
    {
      "inputs": [],
      "name": "ZeroAddress",
      "type": "error"
    },
    {
      "anonymous": false,
      "inputs": [
        {
          "indexed": true,
          "internalType": "address",
          "name": "owner",
          "type": "address"
        },
        {
          "indexed": true,
          "internalType": "address",
          "name": "approved",
          "type": "address"
        },
        {
          "indexed": true,
          "internalType": "uint256",
          "name": "tokenId",
          "type": "uint256"
        }
      ],
      "name": "Approval",
      "type": "event"
    },
    {
      "anonymous": false,
      "inputs": [
        {
          "indexed": true,
          "internalType": "address",
          "name": "owner",
          "type": "address"
        },
        {
          "indexed": true,
          "internalType": "address",
          "name": "operator",
          "type": "address"
        },
        {
          "indexed": false,
          "internalType": "bool",
          "name": "approved",
          "type": "bool"
        }
      ],
      "name": "ApprovalForAll",
      "type": "event"
    },
    {
      "anonymous": false,
      "inputs": [
        {
          "indexed": true,
          "internalType": "uint256",
          "name": "tokenId",
          "type": "uint256"
        },
        {
          "indexed": false,
          "internalType": "string",
          "name": "reason",
          "type": "string"
        }
      ],
      "name": "NFTBurned",
      "type": "event"
    },
    {
      "anonymous": false,
      "inputs": [
        {
          "indexed": true,
          "internalType": "uint256",
          "name": "tokenId",
          "type": "uint256"
        },
        {
          "indexed": true,
          "internalType": "uint256",
          "name": "franchiseId",
          "type": "uint256"
        }
      ],
      "name": "NFTCancelled",
      "type": "event"
    },
    {
      "anonymous": false,
      "inputs": [
        {
          "indexed": true,
          "internalType": "uint256",
          "name": "tokenId",
          "type": "uint256"
        },
        {
          "indexed": true,
          "internalType": "uint256",
          "name": "franchiseId",
          "type": "uint256"
        },
        {
          "indexed": false,
          "internalType": "enum WireTrustNFT.NFTCategory",
          "name": "category",
          "type": "uint8"
        },
        {
          "indexed": false,
          "internalType": "address",
          "name": "to",
          "type": "address"
        },
        {
          "indexed": false,
          "internalType": "uint256",
          "name": "facePrice",
          "type": "uint256"
        }
      ],
      "name": "NFTMinted",
      "type": "event"
    },
    {
      "anonymous": false,
      "inputs": [
        {
          "indexed": true,
          "internalType": "uint256",
          "name": "tokenId",
          "type": "uint256"
        },
        {
          "indexed": true,
          "internalType": "address",
          "name": "from",
          "type": "address"
        },
        {
          "indexed": true,
          "internalType": "address",
          "name": "to",
          "type": "address"
        },
        {
          "indexed": false,
          "internalType": "uint256",
          "name": "price",
          "type": "uint256"
        },
        {
          "indexed": false,
          "internalType": "uint8",
          "name": "transferCount",
          "type": "uint8"
        }
      ],
      "name": "NFTTransferred",
      "type": "event"
    },
    {
      "anonymous": false,
      "inputs": [
        {
          "indexed": true,
          "internalType": "uint256",
          "name": "tokenId",
          "type": "uint256"
        },
        {
          "indexed": false,
          "internalType": "address",
          "name": "verifiedBy",
          "type": "address"
        }
      ],
      "name": "NFTVerified",
      "type": "event"
    },
    {
      "anonymous": false,
      "inputs": [
        {
          "indexed": true,
          "internalType": "address",
          "name": "previousOwner",
          "type": "address"
        },
        {
          "indexed": true,
          "internalType": "address",
          "name": "newOwner",
          "type": "address"
        }
      ],
      "name": "OwnershipTransferred",
      "type": "event"
    },
    {
      "anonymous": false,
      "inputs": [
        {
          "indexed": true,
          "internalType": "address",
          "name": "from",
          "type": "address"
        },
        {
          "indexed": true,
          "internalType": "address",
          "name": "to",
          "type": "address"
        },
        {
          "indexed": true,
          "internalType": "uint256",
          "name": "tokenId",
          "type": "uint256"
        }
      ],
      "name": "Transfer",
      "type": "event"
    },
    {
      "inputs": [],
      "name": "BPS_DENOMINATOR",
      "outputs": [
        {
          "internalType": "uint256",
          "name": "",
          "type": "uint256"
        }
      ],
      "stateMutability": "view",
      "type": "function"
    },
    {
      "inputs": [],
      "name": "MAX_BATCH_SIZE",
      "outputs": [
        {
          "internalType": "uint256",
          "name": "",
          "type": "uint256"
        }
      ],
      "stateMutability": "view",
      "type": "function"
    },
    {
      "inputs": [],
      "name": "MAX_EVENT_HORIZON",
      "outputs": [
        {
          "internalType": "uint256",
          "name": "",
          "type": "uint256"
        }
      ],
      "stateMutability": "view",
      "type": "function"
    },
    {
      "inputs": [],
      "name": "PROTOCOL_FEE_BPS",
      "outputs": [
        {
          "internalType": "uint256",
          "name": "",
          "type": "uint256"
        }
      ],
      "stateMutability": "view",
      "type": "function"
    },
    {
      "inputs": [],
      "name": "RESALE_CAP_PERCENT",
      "outputs": [
        {
          "internalType": "uint256",
          "name": "",
          "type": "uint256"
        }
      ],
      "stateMutability": "view",
      "type": "function"
    },
    {
      "inputs": [],
      "name": "UNLIMITED_TRANSFERS",
      "outputs": [
        {
          "internalType": "uint8",
          "name": "",
          "type": "uint8"
        }
      ],
      "stateMutability": "view",
      "type": "function"
    },
    {
      "inputs": [
        {
          "internalType": "address",
          "name": "to",
          "type": "address"
        },
        {
          "internalType": "uint256",
          "name": "tokenId",
          "type": "uint256"
        }
      ],
      "name": "approve",
      "outputs": [],
      "stateMutability": "nonpayable",
      "type": "function"
    },
    {
      "inputs": [
        {
          "internalType": "address",
          "name": "owner",
          "type": "address"
        }
      ],
      "name": "balanceOf",
      "outputs": [
        {
          "internalType": "uint256",
          "name": "",
          "type": "uint256"
        }
      ],
      "stateMutability": "view",
      "type": "function"
    },
    {
      "inputs": [
        {
          "internalType": "uint256",
          "name": "tokenId",
          "type": "uint256"
        }
      ],
      "name": "burnExpired",
      "outputs": [],
      "stateMutability": "nonpayable",
      "type": "function"
    },
    {
      "inputs": [
        {
          "internalType": "uint256",
          "name": "tokenId",
          "type": "uint256"
        }
      ],
      "name": "buyToken",
      "outputs": [],
      "stateMutability": "payable",
      "type": "function"
    },
    {
      "inputs": [
        {
          "internalType": "uint256",
          "name": "tokenId",
          "type": "uint256"
        }
      ],
      "name": "cancelListing",
      "outputs": [],
      "stateMutability": "nonpayable",
      "type": "function"
    },
    {
      "inputs": [
        {
          "internalType": "uint256",
          "name": "tokenId",
          "type": "uint256"
        }
      ],
      "name": "cancelToken",
      "outputs": [],
      "stateMutability": "nonpayable",
      "type": "function"
    },
    {
      "inputs": [],
      "name": "franchiseRegistry",
      "outputs": [
        {
          "internalType": "contract IFranchiseRegistry",
          "name": "",
          "type": "address"
        }
      ],
      "stateMutability": "view",
      "type": "function"
    },
    {
      "inputs": [
        {
          "internalType": "uint256",
          "name": "tokenId",
          "type": "uint256"
        }
      ],
      "name": "getApproved",
      "outputs": [
        {
          "internalType": "address",
          "name": "",
          "type": "address"
        }
      ],
      "stateMutability": "view",
      "type": "function"
    },
    {
      "inputs": [
        {
          "internalType": "uint256",
          "name": "tokenId",
          "type": "uint256"
        }
      ],
      "name": "getFullMetadata",
      "outputs": [
        {
          "components": [
            {
              "internalType": "uint256",
              "name": "tokenId",
              "type": "uint256"
            },
            {
              "internalType": "uint256",
              "name": "franchiseId",
              "type": "uint256"
            },
            {
              "internalType": "string",
              "name": "name",
              "type": "string"
            },
            {
              "internalType": "string",
              "name": "description",
              "type": "string"
            },
            {
              "internalType": "string",
              "name": "metadataURI",
              "type": "string"
            },
            {
              "internalType": "uint256",
              "name": "facePrice",
              "type": "uint256"
            },
            {
              "internalType": "uint256",
              "name": "maxResalePrice",
              "type": "uint256"
            },
            {
              "internalType": "uint256",
              "name": "eventTimestamp",
              "type": "uint256"
            },
            {
              "internalType": "uint256",
              "name": "mintedAt",
              "type": "uint256"
            },
            {
              "internalType": "enum WireTrustNFT.NFTCategory",
              "name": "category",
              "type": "uint8"
            },
            {
              "internalType": "enum WireTrustNFT.TokenStatus",
              "name": "status",
              "type": "uint8"
            },
            {
              "internalType": "uint8",
              "name": "maxTransfers",
              "type": "uint8"
            },
            {
              "internalType": "uint8",
              "name": "transferCount",
              "type": "uint8"
            },
            {
              "internalType": "bool",
              "name": "soulbound",
              "type": "bool"
            }
          ],
          "internalType": "struct WireTrustNFT.NFTMetadata",
          "name": "",
          "type": "tuple"
        }
      ],
      "stateMutability": "view",
      "type": "function"
    },
    {
      "inputs": [
        {
          "internalType": "uint256",
          "name": "franchiseId",
          "type": "uint256"
        },
        {
          "internalType": "enum WireTrustNFT.NFTCategory",
          "name": "category",
          "type": "uint8"
        }
      ],
      "name": "getTokensByCategory",
      "outputs": [
        {
          "internalType": "uint256[]",
          "name": "",
          "type": "uint256[]"
        }
      ],
      "stateMutability": "view",
      "type": "function"
    },
    {
      "inputs": [
        {
          "internalType": "address",
          "name": "owner_",
          "type": "address"
        }
      ],
      "name": "getTokensByOwner",
      "outputs": [
        {
          "internalType": "uint256[]",
          "name": "",
          "type": "uint256[]"
        }
      ],
      "stateMutability": "view",
      "type": "function"
    },
    {
      "inputs": [
        {
          "internalType": "address",
          "name": "owner",
          "type": "address"
        },
        {
          "internalType": "address",
          "name": "operator",
          "type": "address"
        }
      ],
      "name": "isApprovedForAll",
      "outputs": [
        {
          "internalType": "bool",
          "name": "",
          "type": "bool"
        }
      ],
      "stateMutability": "view",
      "type": "function"
    },
    {
      "inputs": [
        {
          "internalType": "uint256",
          "name": "tokenId",
          "type": "uint256"
        }
      ],
      "name": "isAuthentic",
      "outputs": [
        {
          "internalType": "bool",
          "name": "",
          "type": "bool"
        }
      ],
      "stateMutability": "view",
      "type": "function"
    },
    {
      "inputs": [
        {
          "internalType": "uint256",
          "name": "tokenId",
          "type": "uint256"
        },
        {
          "internalType": "uint256",
          "name": "price",
          "type": "uint256"
        }
      ],
      "name": "listForSale",
      "outputs": [],
      "stateMutability": "nonpayable",
      "type": "function"
    },
    {
      "inputs": [
        {
          "internalType": "uint256",
          "name": "",
          "type": "uint256"
        }
      ],
      "name": "listingPrice",
      "outputs": [
        {
          "internalType": "uint256",
          "name": "",
          "type": "uint256"
        }
      ],
      "stateMutability": "view",
      "type": "function"
    },
    {
      "inputs": [
        {
          "internalType": "address",
          "name": "to",
          "type": "address"
        },
        {
          "internalType": "uint256",
          "name": "franchiseId",
          "type": "uint256"
        },
        {
          "internalType": "enum WireTrustNFT.NFTCategory",
          "name": "category",
          "type": "uint8"
        },
        {
          "internalType": "string",
          "name": "name",
          "type": "string"
        },
        {
          "internalType": "string",
          "name": "description",
          "type": "string"
        },
        {
          "internalType": "string",
          "name": "metadataURI",
          "type": "string"
        },
        {
          "internalType": "uint256",
          "name": "facePrice",
          "type": "uint256"
        },
        {
          "internalType": "uint256",
          "name": "eventTimestamp",
          "type": "uint256"
        }
      ],
      "name": "mint",
      "outputs": [
        {
          "internalType": "uint256",
          "name": "",
          "type": "uint256"
        }
      ],
      "stateMutability": "nonpayable",
      "type": "function"
    },
    {
      "inputs": [
        {
          "internalType": "address[]",
          "name": "recipients",
          "type": "address[]"
        },
        {
          "internalType": "uint256",
          "name": "franchiseId",
          "type": "uint256"
        },
        {
          "internalType": "enum WireTrustNFT.NFTCategory",
          "name": "category",
          "type": "uint8"
        },
        {
          "internalType": "string",
          "name": "name",
          "type": "string"
        },
        {
          "internalType": "string",
          "name": "description",
          "type": "string"
        },
        {
          "internalType": "string",
          "name": "metadataURI",
          "type": "string"
        },
        {
          "internalType": "uint256",
          "name": "facePrice",
          "type": "uint256"
        },
        {
          "internalType": "uint256",
          "name": "eventTimestamp",
          "type": "uint256"
        }
      ],
      "name": "mintBatch",
      "outputs": [
        {
          "internalType": "uint256[]",
          "name": "ids",
          "type": "uint256[]"
        }
      ],
      "stateMutability": "nonpayable",
      "type": "function"
    },
    {
      "inputs": [],
      "name": "name",
      "outputs": [
        {
          "internalType": "string",
          "name": "",
          "type": "string"
        }
      ],
      "stateMutability": "view",
      "type": "function"
    },
    {
      "inputs": [
        {
          "internalType": "uint256",
          "name": "",
          "type": "uint256"
        }
      ],
      "name": "nftData",
      "outputs": [
        {
          "internalType": "uint256",
          "name": "tokenId",
          "type": "uint256"
        },
        {
          "internalType": "uint256",
          "name": "franchiseId",
          "type": "uint256"
        },
        {
          "internalType": "string",
          "name": "name",
          "type": "string"
        },
        {
          "internalType": "string",
          "name": "description",
          "type": "string"
        },
        {
          "internalType": "string",
          "name": "metadataURI",
          "type": "string"
        },
        {
          "internalType": "uint256",
          "name": "facePrice",
          "type": "uint256"
        },
        {
          "internalType": "uint256",
          "name": "maxResalePrice",
          "type": "uint256"
        },
        {
          "internalType": "uint256",
          "name": "eventTimestamp",
          "type": "uint256"
        },
        {
          "internalType": "uint256",
          "name": "mintedAt",
          "type": "uint256"
        },
        {
          "internalType": "enum WireTrustNFT.NFTCategory",
          "name": "category",
          "type": "uint8"
        },
        {
          "internalType": "enum WireTrustNFT.TokenStatus",
          "name": "status",
          "type": "uint8"
        },
        {
          "internalType": "uint8",
          "name": "maxTransfers",
          "type": "uint8"
        },
        {
          "internalType": "uint8",
          "name": "transferCount",
          "type": "uint8"
        },
        {
          "internalType": "bool",
          "name": "soulbound",
          "type": "bool"
        }
      ],
      "stateMutability": "view",
      "type": "function"
    },
    {
      "inputs": [],
      "name": "owner",
      "outputs": [
        {
          "internalType": "address",
          "name": "",
          "type": "address"
        }
      ],
      "stateMutability": "view",
      "type": "function"
    },
    {
      "inputs": [
        {
          "internalType": "uint256",
          "name": "tokenId",
          "type": "uint256"
        }
      ],
      "name": "ownerOf",
      "outputs": [
        {
          "internalType": "address",
          "name": "",
          "type": "address"
        }
      ],
      "stateMutability": "view",
      "type": "function"
    },
    {
      "inputs": [],
      "name": "protocolTreasury",
      "outputs": [
        {
          "internalType": "address",
          "name": "",
          "type": "address"
        }
      ],
      "stateMutability": "view",
      "type": "function"
    },
    {
      "inputs": [],
      "name": "renounceOwnership",
      "outputs": [],
      "stateMutability": "nonpayable",
      "type": "function"
    },
    {
      "inputs": [
        {
          "internalType": "address",
          "name": "from",
          "type": "address"
        },
        {
          "internalType": "address",
          "name": "to",
          "type": "address"
        },
        {
          "internalType": "uint256",
          "name": "tokenId",
          "type": "uint256"
        }
      ],
      "name": "safeTransferFrom",
      "outputs": [],
      "stateMutability": "nonpayable",
      "type": "function"
    },
    {
      "inputs": [
        {
          "internalType": "address",
          "name": "from",
          "type": "address"
        },
        {
          "internalType": "address",
          "name": "to",
          "type": "address"
        },
        {
          "internalType": "uint256",
          "name": "tokenId",
          "type": "uint256"
        },
        {
          "internalType": "bytes",
          "name": "data",
          "type": "bytes"
        }
      ],
      "name": "safeTransferFrom",
      "outputs": [],
      "stateMutability": "nonpayable",
      "type": "function"
    },
    {
      "inputs": [
        {
          "internalType": "address",
          "name": "operator",
          "type": "address"
        },
        {
          "internalType": "bool",
          "name": "approved",
          "type": "bool"
        }
      ],
      "name": "setApprovalForAll",
      "outputs": [],
      "stateMutability": "nonpayable",
      "type": "function"
    },
    {
      "inputs": [
        {
          "internalType": "bytes4",
          "name": "interfaceId",
          "type": "bytes4"
        }
      ],
      "name": "supportsInterface",
      "outputs": [
        {
          "internalType": "bool",
          "name": "",
          "type": "bool"
        }
      ],
      "stateMutability": "view",
      "type": "function"
    },
    {
      "inputs": [],
      "name": "symbol",
      "outputs": [
        {
          "internalType": "string",
          "name": "",
          "type": "string"
        }
      ],
      "stateMutability": "view",
      "type": "function"
    },
    {
      "inputs": [],
      "name": "tokenCount",
      "outputs": [
        {
          "internalType": "uint256",
          "name": "",
          "type": "uint256"
        }
      ],
      "stateMutability": "view",
      "type": "function"
    },
    {
      "inputs": [
        {
          "internalType": "uint256",
          "name": "tokenId",
          "type": "uint256"
        }
      ],
      "name": "tokenURI",
      "outputs": [
        {
          "internalType": "string",
          "name": "",
          "type": "string"
        }
      ],
      "stateMutability": "view",
      "type": "function"
    },
    {
      "inputs": [
        {
          "internalType": "address",
          "name": "from",
          "type": "address"
        },
        {
          "internalType": "address",
          "name": "to",
          "type": "address"
        },
        {
          "internalType": "uint256",
          "name": "tokenId",
          "type": "uint256"
        }
      ],
      "name": "transferFrom",
      "outputs": [],
      "stateMutability": "nonpayable",
      "type": "function"
    },
    {
      "inputs": [
        {
          "internalType": "address",
          "name": "newOwner",
          "type": "address"
        }
      ],
      "name": "transferOwnership",
      "outputs": [],
      "stateMutability": "nonpayable",
      "type": "function"
    },
    {
      "inputs": [
        {
          "internalType": "uint256",
          "name": "tokenId",
          "type": "uint256"
        }
      ],
      "name": "verifyAtVenue",
      "outputs": [],
      "stateMutability": "nonpayable",
      "type": "function"
    }
  ],
  "bytecode": "0x60c0604052346104195761393a6040813803918261001c8161041d565b9384928339810103126104195761003e602061003783610442565b9201610442565b610048604061041d565b91600d83526c15da5c99551c9d5cdd08139195609a1b602084015261006d604061041d565b600581526415d513919560da1b602082015283519092906001600160401b03811161032d575f54600181811c9116801561040f575b602082101461030f57601f81116103ad575b50602094601f821160011461034c579481929394955f92610341575b50508160011b915f199060031b1c1916175f555b82516001600160401b03811161032d57600154600181811c91168015610323575b602082101461030f57601f81116102ac575b506020601f821160011461024957819293945f9261023e575b50508160011b915f199060031b1c1916176001555b331561022b5760068054336001600160a01b0319821681179092556040519391906001600160a01b03167f8be0079c531659141344cd1fd0a4f28419497f9722a3daafe3b4186f6b6457e05f80a360017f9b779b17422d0df92223018b32b4d1fa46e071723d6817e2486d003becc55f00556001600160a01b0316801561021c576001600160a01b0382161561021c5760805260a0526134e3908161045782396080518181816102c401528181610dd4015281816115ef01528181611a080152612183015260a0518181816116dd01526124200152f35b63d92e233d60e01b5f5260045ffd5b631e4fbdf760e01b5f525f60045260245ffd5b015190505f80610130565b601f1982169060015f52805f20915f5b8181106102945750958360019596971061027c575b505050811b01600155610145565b01515f1960f88460031b161c191690555f808061026e565b9192602060018192868b015181550194019201610259565b60015f527fb10e2d527612073b26eecdfd717e6a320cf44b4afac2b0732d9fcbe2b7fa0cf6601f830160051c81019160208410610305575b601f0160051c01905b8181106102fa5750610117565b5f81556001016102ed565b90915081906102e4565b634e487b7160e01b5f52602260045260245ffd5b90607f1690610105565b634e487b7160e01b5f52604160045260245ffd5b015190505f806100d0565b601f198216955f8052805f20915f5b8881106103955750836001959697981061037d575b505050811b015f556100e4565b01515f1960f88460031b161c191690555f8080610370565b9192602060018192868501518155019401920161035b565b5f80527f290decd9548b62a8d60345a988386fc84ba6bc95484008f6362f93160ef3e563601f830160051c81019160208410610405575b601f0160051c01905b8181106103fa57506100b4565b5f81556001016103ed565b90915081906103e4565b90607f16906100a2565b5f80fd5b6040519190601f01601f191682016001600160401b0381118382101761032d57604052565b51906001600160a01b03821682036104195756fe6080806040526004361015610012575f80fd5b5f905f3560e01c90816301ffc9a7146126d35750806306fdde0314612631578063081812fc146125f5578063095ea7b31461250b5780630d1c103f146124f0578063115bc936146124c657806323b872dd146124af5780632d296bf114612299578063305a67a81461224c578063382faa6a1461212e57806339d3dff01461190f5780633f065ba21461189557806340398d671461181757806342842e0e146117e85780636352211e146117b857806370a0823114611767578063715018a61461170c578063803db96d146116c857806380b9e5ed146115ad5780638c210975146114925780638da5cb5b1461146a5780638fdda4f514610d16578063948d9b0814610cee57806395d89b4114610c105780639f181b5e14610bf3578063a22cb46514610b3f578063b88d4fde14610ad2578063bbed8ed3146108aa578063be3782281461088f578063c1e2caa014610871578063c214d03f14610856578063c87b56dd146107f9578063cfdbf254146107dd578063d098769b14610421578063e1a4521814610404578063e80d7fec146102f3578063e82e1437146102ae578063e985e9c5146102565763f2fde38b146101cb575f80fd5b34610253576020366003190112610253576101e4612762565b6101ec613369565b6001600160a01b0316801561023f57600680546001600160a01b0319811683179091556001600160a01b03167f8be0079c531659141344cd1fd0a4f28419497f9722a3daafe3b4186f6b6457e05f80a380f35b631e4fbdf760e01b82526004829052602482fd5b80fd5b5034610253576040366003190112610253576040610272612762565b9161027b612778565b9260018060a01b031681526005602052209060018060a01b03165f52602052602060ff60405f2054166040519015158152f35b50346102535780600319360112610253576040517f00000000000000000000000000000000000000000000000000000000000000006001600160a01b03168152602090f35b50346102535760403660031901126102535760243560043561031481612e6b565b336001600160a01b03909116036103f557808352600760205260408320600981015460ff8160201c166103e65760081c60ff1660048110156103d2576103c357600781015480151590816103b8575b506103a95760060154801515806103a0575b61038957508252600d602052604082205580f35b6305c746bf60e11b84526004839052602452604483fd5b50808311610375565b633c091c3360e01b8452600484fd5b90504210155f610363565b6358700a0160e11b8452600484fd5b634e487b7160e01b85526021600452602485fd5b636e10574960e01b8552600485fd5b6359dc379f60e01b8352600483fd5b503461025357806003193601126102535760206040516127108152f35b503461025357602036600319011261025357600435808252600760205260408220600781015480156107ce5742106107bf5760090160ff815460081c1660048110156107ab5761079c57805461ff0019166102001790555f818152600260205260409020546001600160a01b03168015158080610795575b610659575b610596575b505f818152600260205260409020546001600160a01b03168015908115610563575b5f83815260026020526040812080546001600160a01b03191690558390827fddf252ad1be2c89b69c2b068fc378daa952ba7f163c4a11628f55a4df523b3ef8280a450610551577fa64f8ff5f436647cf80aef0a68568d59178ae856dfd7d622cbc5cd5cff1ebb116060604051602081526007602082015266195e1c1a5c995960ca1b6040820152a280f35b637e27328960e01b8252600452602490fd5b5f83815260046020526040902080546001600160a01b0319169055805f52600360205260405f205f1981540190556104c5565b5f52600960205260405f20815f52600a60205260405f20545f1982540180820361060f575b5050805480156105fb575f1901906105e66105d68383612dc6565b8154905f199060031b1b19169055565b55805f52600a6020525f60408120555f6104a3565b634e487b7160e01b5f52603160045260245ffd5b6106199083612dc6565b90549060031b1c6106468161062e8486612dc6565b90919082549060031b91821b915f19901b1916179055565b5f52600a60205260405f20555f806105bb565b825f52600760205260405f206009810180549160ff8360201c166107865760ff8360081c166004811015610763576107775760ff83166005811015610763578015908115610758575b50610735575b60ff8360101c1660ff8103610713575b50600701548015159081610708575b506106f95760ff6001816106f49460181c16011663ff00000082549160181b169063ff0000001916179055565b61049e565b633c091c3360e01b5f5260045ffd5b90504210155f6106c7565b60ff8460181c161015610726575f6106b8565b63252fb4b960e11b5f5260045ffd5b855f52600c60205260ff60405f2054166106a8576353c613f160e01b5f5260045ffd5b60019150145f6106a2565b634e487b7160e01b5f52602160045260245ffd5b6358700a0160e11b5f5260045ffd5b636e10574960e01b5f5260045ffd5b505f610499565b634689a2b560e11b8352600483fd5b634e487b7160e01b84526021600452602484fd5b632cc8960360e11b8352600483fd5b631964a37360e11b8452600484fd5b5034610253578060031936011261025357602060405160648152f35b3461085257602036600319011261085257610815600435612e6b565b505f604051610825602082612882565b5261084e604051610837602082612882565b5f815260405191829160208352602083019061273e565b0390f35b5f80fd5b34610852575f366003190112610852576020604051606e8152f35b34610852575f3660031901126108525760206040516303c267008152f35b34610852575f36600319011261085257602060405160fa8152f35b34610852576020366003190112610852575f6101a06040516108cb81612866565b82815282602082015260606040820152606080820152606060808201528260a08201528260c08201528260e0820152826101008201528261012082015282610140820152826101608201528261018082015201526004355f52600760205260405f2060405161093981612866565b8154815260018201549160208201928352610956600282016128a3565b906040830191825261096a600382016128a3565b916060840192835261097e600483016128a3565b926080850193845260058301549360a08601948552600684015460c0870190815260078501549460e0880195865260096008820154916101008a019283520154956101208901926109d260ff891685612d96565b60ff8860081c16946101408b019560048110156107635786526101608b01968960101c60ff1688526101808c01988a60181c60ff168a526101a08d019a60201c60ff1615158b52604051809e819e602083525160208301525190604001525160608d016101c090526101e08d01610a489161273e565b90518c8203601f190160808e0152610a60919061273e565b90518b8203601f190160a08d0152610a78919061273e565b985160c08b01525160e08a01525161010089015251610120880152516101408701610aa291612943565b516101608601610ab191612950565b5160ff166101808501525160ff166101a08401525115156101c08301520390f35b3461085257608036600319011261085257610aeb612762565b610af3612778565b90604435606435926001600160401b038411610852573660238501121561085257610b2b610b3d943690602481600401359101612978565b92610b378383836129ae565b33613390565b005b3461085257604036600319011261085257610b58612762565b60243590811515809203610852573315610be0576001600160a01b0316908115610bcd57335f52600560205260405f20825f5260205260405f2060ff1981541660ff83161790556040519081527f17307eab39ab6107e8899845ad3d59bd9653f200f220920489ca2b5937696c3160203392a3005b50630b61174360e31b5f5260045260245ffd5b63a9fbf51f60e01b5f525f60045260245ffd5b34610852575f366003190112610852576020600854604051908152f35b34610852575f366003190112610852576040515f600154610c308161282e565b8084529060018116908115610cca5750600114610c6c575b61084e83610c5881850382612882565b60405191829160208352602083019061273e565b60015f9081527fb10e2d527612073b26eecdfd717e6a320cf44b4afac2b0732d9fcbe2b7fa0cf6939250905b808210610cb057509091508101602001610c58610c48565b919260018160209254838588010152019101909291610c98565b60ff191660208086019190915291151560051b84019091019150610c589050610c48565b34610852576020366003190112610852576020610d0c600435612e29565b6040519015158152f35b346108525761010036600319011261085257610d30612762565b604435906024356005831015610852576064356001600160401b03811161085257610d5f9036906004016127c8565b906084356001600160401b03811161085257610d7f9036906004016127c8565b60a4959195356001600160401b03811161085257610da19036906004016127c8565b9360c4359460e435610db1613151565b60038b146114495760408051631bfa094160e31b815233600482015290816024817f00000000000000000000000000000000000000000000000000000000000000006001600160a01b03165afa801561143e578a905f925f91611409575b50826113ff575b505015806113ea575b6113db575b5f978b1580156113ce575b6113b8575b8115158061138e575b61137f578b958a926008546001019c8d9586600855610e5c8c8b613189565b9a9193909960405197610e6e89612866565b8a895260208901998a523690610e8392612978565b95604088019687523690610e9692612978565b91606087019283523690610ea992612978565b6080860190815260a08601918d835260c0870193845260e0870194855261010087019542875261012088019c610edf908e612d96565b6101408801985f8a5261016089019b60ff168c5261018089019a5f8c526101a08a01809e151590525f52600760205260405f20985189555160018901556002880190518051906001600160401b0382116111ef578190610f3f845461282e565b601f811161132f575b50602090601f83116001146112cc575f926112c1575b50508160011b915f199060031b1c19161790555b51805160038801916001600160401b0382116111ef578190610f94845461282e565b601f8111611271575b50602090601f831160011461120e575f92611203575b50508160011b915f199060031b1c19161790555b51805160048701916001600160401b0382116111ef57610fe7835461282e565b601f81116111aa575b50602090601f831160011461113f57600998979695949392915f9183611134575b50508160011b915f199060031b1c19161790555b51600585015551600684015551600783015551600882015501945160058110156107635760ff80198754169116178555519060048210156107635761109a9261107060ff9387612d60565b518554915163ffff00001990921660109190911b62ff00001617911660181b63ff00000016178355565b51815464ff00000000191690151560201b64ff00000000161790556110bf858261321d565b835f52600b60205260405f209261076357856111187ff9137561cf493fd3f8172914c3af76a10911f0da086b8d0a0f8043d50a25a3a49387956020995f52895261110c8660405f20612ddb565b60405193849384612e03565b0390a360015f51602061348e5f395f51905f5255604051908152f35b015190505f80611011565b90601f19831691845f52815f20925f5b818110611192575091600193918560099c9b9a99989796941061117a575b505050811b019055611025565b01515f1960f88460031b161c191690555f808061116d565b9293602060018192878601518155019501930161114f565b835f5260205f20601f840160051c810191602085106111e5575b601f0160051c01905b8181106111da5750610ff0565b5f81556001016111cd565b90915081906111c4565b634e487b7160e01b5f52604160045260245ffd5b015190505f80610fb3565b5f8581528281209350601f198516905b8181106112595750908460019594939210611241575b505050811b019055610fc7565b01515f1960f88460031b161c191690555f8080611234565b9293602060018192878601518155019501930161121e565b909150835f5260205f20601f840160051c810191602085106112b7575b90601f859493920160051c01905b8181106112a95750610f9d565b5f815584935060010161129c565b909150819061128e565b015190505f80610f5e565b5f8581528281209350601f198516905b81811061131757509084600195949392106112ff575b505050811b019055610f72565b01515f1960f88460031b161c191690555f80806112f2565b929360206001819287860151815501950193016112dc565b909150835f5260205f20601f840160051c81019160208510611375575b90601f859493920160051c01905b8181106113675750610f48565b5f815584935060010161135a565b909150819061134c565b630e22272960e21b5f5260045ffd5b506303c2670042018042116113a4578211610e3d565b634e487b7160e01b5f52601160045260245ffd5b428211610e345763f89cc76560e01b5f5260045ffd5b505f985060018c14610e2f565b63ba74eebb60e01b5f5260045ffd5b506006546001600160a01b0316331415610e1f565b149050898d610e16565b905061142e91925060403d604011611437575b6114268183612882565b810190612d40565b9190918e610e0f565b503d61141c565b6040513d5f823e3d90fd5b6006546001600160a01b03163314610e245763b2bd4baf60e01b5f5260045ffd5b34610852575f366003190112610852576006546040516001600160a01b039091168152602090f35b34610852576020366003190112610852576004355f52600760205260405f208054600182015491600281016114c6906128a3565b6114d2600383016128a3565b916114df600482016128a3565b926005820154936006830154906007840154926008850154946009015495604051998a998a5260208a0152604089016101c090526101c089016115219161273e565b88810360608a01526115329161273e565b87810360808901526115439161273e565b9460a087015260c086015260e0850152610100840152610120830160ff82169061156c91612943565b611581610140840160ff600884901c16612950565b8060101c60ff166101608401528060181c60ff1661018084015260201c60ff1615156101a08301520390f35b3461085257602036600319011261085257600435805f52600760205260405f20604051631bfa094160e31b815233600482015260408160248160018060a01b037f0000000000000000000000000000000000000000000000000000000000000000165afa801561143e575f915f916116a7575b5081611699575b501580611684575b6113db5760090160ff815460081c166004811015610763576107775761010061ff00198254161790557f94cea318c6e1a5093dd435e08a8d4c1b8eaca421199b03ca2b7c7b67071cb68f6020604051338152a2005b506006546001600160a01b031633141561162f565b905060018201541483611627565b90506116c2915060403d604011611437576114268183612882565b84611620565b34610852575f366003190112610852576040517f00000000000000000000000000000000000000000000000000000000000000006001600160a01b03168152602090f35b34610852575f36600319011261085257611724613369565b600680546001600160a01b031981169091555f906001600160a01b03167f8be0079c531659141344cd1fd0a4f28419497f9722a3daafe3b4186f6b6457e08280a3005b34610852576020366003190112610852576001600160a01b03611788612762565b1680156117a5575f526003602052602060405f2054604051908152f35b6322718ad960e21b5f525f60045260245ffd5b346108525760203660031901126108525760206117d6600435612e6b565b6040516001600160a01b039091168152f35b3461085257610b3d6117f93661278e565b9060405192611809602085612882565b5f8452610b378383836129ae565b34610852576020366003190112610852576001600160a01b03611838612762565b165f52600960205260405f206040519081602082549182815201915f5260205f20905f5b81811061187f5761084e8561187381870382612882565b604051918291826127f5565b825484526020909301926001928301920161185c565b34610852576040366003190112610852576024356005811015610852576004355f52600b60205260405f20905f5260205260405f206040519081602082549182815201915f5260205f20905f5b8181106118f95761084e8561187381870382612882565b82548452602090930192600192830192016118e2565b3461085257610100366003190112610852576004356001600160401b0381116108525736602382011215610852576001600160401b0381600401351161085257366024826004013560051b830101116108525760056044351015610852576064356001600160401b0381116108525761198c9036906004016127c8565b906084356001600160401b038111610852576119ac9036906004016127c8565b909160a4356001600160401b038111610852576119cd9036906004016127c8565b94906119d7613151565b6064876004013511612112576044356003146120f15760408051631bfa094160e31b815233600482015290816024817f00000000000000000000000000000000000000000000000000000000000000006001600160a01b03165afa801561143e575f915f916120d0575b50816120c4575b5015806120af575b6113db575b5f6044351580156120a1575b612089575b611a7460c435604435613189565b939092610763579796959493929190611a908a60040135612d7f565b98611a9e6040519a8b612882565b60048b0135808b52601f1990611ab390612d7f565b013660208c0137600854985f985b8c600401358a10611af05760088b905560015f51602061348e5f395f51905f52556040518061084e8e826127f5565b9091929394959697989960010199604051611b0a81612866565b8b81526024356020820152611b20368a8c612978565b6040820152611b30368c85612978565b6060820152611b40368587612978565b608082015260c43560a08201528560c082015260e43560e082015242610100820152611b726044356101208301612d96565b5f61014082015260ff87166101608201525f6101808201528715156101a08201528b5f52600760205260405f2081518155602082015160018201556002810160408301518051906001600160401b0382116111ef578190611bd3845461282e565b601f8111612039575b50602090601f8311600114611fd6575f92611fcb575b50508160011b915f199060031b1c19161790555b6003810160608301518051906001600160401b0382116111ef578190611c2c845461282e565b601f8111611f7b575b50602090601f8311600114611f18575f92611f0d575b50508160011b915f199060031b1c19161790555b60808201518051906001600160401b0382116111ef57611c82600484015461282e565b601f8111611ec5575b50602090601f8311600114611e575760099392915f9183611e4c575b50508160011b915f199060031b1c19161760048201555b60a0830151600582015560c0830151600682015560e083015160078201556101008301516008820155019061012081015160058110156107635760ff80198454169116178255610140810151916004831015610763578f848f9391836101a0611d9094611d31611d9a99611d9598612d60565b610160810151835461018083015163ffff00001990911660109290921b62ff0000169190911760189190911b63ff000000161783550151815464ff00000000191690151560201b64ff0000000016179055600481013590602401612da2565b612db2565b61321d565b6024355f52600b60205260405f206044355f52602052611dbd8b60405f20612ddb565b8b51811015611e385780611dec611d908f938f948f60206001978460051b010152602481600401359101612da2565b8c7ff9137561cf493fd3f8172914c3af76a10911f0da086b8d0a0f8043d50a25a3a460405180611e266024359560c4359060443584612e03565b0390a301989796959493929190611ac1565b634e487b7160e01b5f52603260045260245ffd5b015190505f80611ca7565b90600484015f52805f20915f5b601f1985168110611ead575091839160019360099695601f19811610611e95575b505050811b016004820155611cbe565b01515f1960f88460031b161c191690555f8080611e85565b91926020600181928685015181550194019201611e64565b600484015f5260205f20601f840160051c81019160208510611f03575b601f0160051c01905b818110611ef85750611c8b565b5f8155600101611eeb565b9091508190611ee2565b015190505f80611c4b565b5f8581528281209350601f198516905b818110611f635750908460019594939210611f4b575b505050811b019055611c5f565b01515f1960f88460031b161c191690555f8080611f3e565b92936020600181928786015181550195019301611f28565b909150835f5260205f20601f840160051c81019160208510611fc1575b90601f859493920160051c01905b818110611fb35750611c35565b5f8155849350600101611fa6565b9091508190611f98565b015190505f80611bf2565b5f8581528281209350601f198516905b8181106120215750908460019594939210612009575b505050811b019055611c06565b01515f1960f88460031b161c191690555f8080611ffc565b92936020600181928786015181550195019301611fe6565b909150835f5260205f20601f840160051c8101916020851061207f575b90601f859493920160051c01905b8181106120715750611bdc565b5f8155849350600101612064565b9091508190612056565b4260e43511611a665763f89cc76560e01b5f5260045ffd5b50505f600160443514611a61565b506006546001600160a01b0316331415611a50565b90506024351488611a48565b90506120eb915060403d604011611437576114268183612882565b89611a41565b6006546001600160a01b03163314611a555763b2bd4baf60e01b5f5260045ffd5b8663bb1cb70b60e01b5f5260040135600452606460245260445ffd5b3461085257602036600319011261085257600435805f52600760205260405f20600981019060ff825460081c166004811015610763576107775760408051631bfa094160e31b815233600482015290816024817f00000000000000000000000000000000000000000000000000000000000000006001600160a01b03165afa801561143e575f915f9161222b575b508161221d575b501580612208575b6113db57815461ff0019166103001790915560010154907f11257108d66fc1af89a11de4ae3c765093b4f69f26686c1bda74cc9cc7f31bf15f80a3005b506006546001600160a01b03163314156121cb565b9050600182015414846121c3565b9050612246915060403d604011611437576114268183612882565b856121bc565b346108525760203660031901126108525760043561226981612e6b565b336001600160a01b039091160361228a575f908152600d6020526040812055005b6359dc379f60e01b5f5260045ffd5b6020366003190112610852576004356122b0613151565b805f52600d60205260405f205480156124a05780340361248a576122d382612e6b565b90825f52600d6020525f6040812055825f52600c60205260405f20600160ff198254161790553315612477576001600160a01b036123118433612e9f565b168061232a5783637e27328960e01b5f5260045260245ffd5b83906001600160a01b03841680820361245d575050805f52600c60205260405f2060ff19815416905560fa820282810460fa036113a457612710900480612419575b808303908382116113a45783036123e2575b50805f52600760205260ff600960405f20015460181c1660405192835260208301527f7bb207808fb5899b4cef94bccdede1c59b076a0907079ed5b5ac51f93f36fe646040339460018060a01b031693a460015f51602061348e5f395f51905f5255005b5f908190819081906001600160a01b0388165af16123fe612d11565b501561240a578361237e565b6312171d8360e31b5f5260045ffd5b5f808080847f00000000000000000000000000000000000000000000000000000000000000005af1612449612d11565b5061236c576312171d8360e31b5f5260045ffd5b82906364283d7b60e01b5f5260045260245260445260645ffd5b633250574960e11b5f525f60045260245ffd5b630d35e92160e01b5f526004523460245260445ffd5b6388d95a6760e01b5f5260045ffd5b3461085257610b3d6124c03661278e565b916129ae565b34610852576020366003190112610852576004355f52600d602052602060405f2054604051908152f35b34610852575f36600319011261085257602060405160ff8152f35b3461085257604036600319011261085257612524612762565b60243561253081612e6b565b331515806125e2575b806125b5575b6125a25781906001600160a01b0384811691167f8c5be1e5ebec7d5bd14f71427d1e84f3dd0314c0f7b2291e5b200ac8c7c3b9255f80a45f90815260046020526040902080546001600160a01b0319166001600160a01b03909216919091179055005b63a9fbf51f60e01b5f523360045260245ffd5b506001600160a01b0381165f90815260056020908152604080832033845290915290205460ff161561253f565b506001600160a01b038116331415612539565b346108525760203660031901126108525760043561261281612e6b565b505f526004602052602060018060a01b0360405f205416604051908152f35b34610852575f366003190112610852576040515f5f546126508161282e565b8084529060018116908115610cca57506001146126775761084e83610c5881850382612882565b5f8080527f290decd9548b62a8d60345a988386fc84ba6bc95484008f6362f93160ef3e563939250905b8082106126b957509091508101602001610c58610c48565b9192600181602092548385880101520191019092916126a1565b34610852576020366003190112610852576004359063ffffffff60e01b8216809203610852576020916380ac58cd60e01b811490811561272d575b811561271c575b5015158152f35b6301ffc9a760e01b14905083612715565b635b5e139f60e01b8114915061270e565b805180835260209291819084018484015e5f828201840152601f01601f1916010190565b600435906001600160a01b038216820361085257565b602435906001600160a01b038216820361085257565b6060906003190112610852576004356001600160a01b038116810361085257906024356001600160a01b0381168103610852579060443590565b9181601f84011215610852578235916001600160401b038311610852576020838186019501011161085257565b60206040818301928281528451809452019201905f5b8181106128185750505090565b825184526020938401939092019160010161280b565b90600182811c9216801561285c575b602083101461284857565b634e487b7160e01b5f52602260045260245ffd5b91607f169161283d565b6101c081019081106001600160401b038211176111ef57604052565b90601f801991011681019081106001600160401b038211176111ef57604052565b9060405191825f8254926128b68461282e565b808452936001811690811561292157506001146128dd575b506128db92500383612882565b565b90505f9291925260205f20905f915b8183106129055750509060206128db928201015f6128ce565b60209193508060019154838589010152019101909184926128ec565b9050602092506128db94915060ff191682840152151560051b8201015f6128ce565b9060058210156107635752565b9060048210156107635752565b6001600160401b0381116111ef57601f01601f191660200190565b9291926129848261295d565b916129926040519384612882565b829481845281830111610852578281602093845f960137010152565b6001600160a01b0390911691908215612477575f828152600260205260409020546001600160a01b03168015158080612d09575b612c1d575b612b96575b50825f52600960205260405f2054825f52600a60205260405f2055825f526009602052612a1c8260405f20612ddb565b5f828152600260205260409020546001600160a01b031692829033151580612b01575b5084612ace575b805f52600360205260405f2060018154019055815f52600260205260405f20816bffffffffffffffffffffffff60a01b825416179055847fddf252ad1be2c89b69c2b068fc378daa952ba7f163c4a11628f55a4df523b3ef5f80a46001600160a01b0316808303612ab657505050565b6364283d7b60e01b5f5260045260245260445260645ffd5b5f82815260046020526040902080546001600160a01b0319169055845f52600360205260405f205f198154019055612a46565b90915080612b45575b15612b175782905f612a3f565b8284612b2f57637e27328960e01b5f5260045260245ffd5b63177e802f60e01b5f523360045260245260445ffd5b503384148015612b74575b80612b0a57505f838152600460205260409020546001600160a01b03163314612b0a565b505f84815260056020908152604080832033845290915290205460ff16612b50565b5f52600960205260405f20825f52600a60205260405f20545f19825401808203612beb575b5050805480156105fb575f190190612bd66105d68383612dc6565b55815f52600a6020525f60408120555f6129ec565b612bf59083612dc6565b90549060031b1c612c0a8161062e8486612dc6565b5f52600a60205260405f20555f80612bbb565b835f52600760205260405f206009810180549160ff8360201c166107865760ff8360081c166004811015610763576107775760ff83166005811015610763578015908115612cfe575b50612cdb575b60ff8360101c1660ff8103612cc8575b50600701548015159081612cbd575b506106f95760ff600181612cb89460181c16011663ff00000082549160181b169063ff0000001916179055565b6129e7565b90504210155f612c8b565b60ff8460181c161015610726575f612c7c565b865f52600c60205260ff60405f205416612c6c576353c613f160e01b5f5260045ffd5b60019150145f612c66565b5060016129e2565b3d15612d3b573d90612d228261295d565b91612d306040519384612882565b82523d5f602084013e565b606090565b919082604091031261085257815180151581036108525760209092015190565b9060048110156107635761ff0082549160081b169061ff001916179055565b6001600160401b0381116111ef5760051b60200190565b60058210156107635752565b9190811015611e385760051b0190565b356001600160a01b03811681036108525790565b8054821015611e38575f5260205f2001905f90565b90815491680100000000000000008310156111ef578261062e9160016128db95018155612dc6565b604091949392612e17826060810197612943565b6001600160a01b031660208201520152565b80158015612e60575b612e5b575f52600760205260ff600960405f20015460081c166004811015610763576003141590565b505f90565b506008548111612e32565b5f818152600260205260409020546001600160a01b0316908115612e8d575090565b637e27328960e01b5f5260045260245ffd5b5f828152600260205260409020546001600160a01b0316801515808061313f575b613053575b612fcc575b506001600160a01b0316801515919082612f98575b5f828152600260205260409020546001600160a01b03169283612f65575b612f4d575b815f52600260205260405f20816bffffffffffffffffffffffff60a01b825416179055827fddf252ad1be2c89b69c2b068fc378daa952ba7f163c4a11628f55a4df523b3ef5f80a490565b805f52600360205260405f2060018154019055612f02565b5f83815260046020526040902080546001600160a01b0319169055835f52600360205260405f205f198154019055612efd565b805f52600960205260405f2054825f52600a60205260405f2055805f526009602052612fc78260405f20612ddb565b612edf565b5f52600960205260405f20825f52600a60205260405f20545f19825401808203613021575b5050805480156105fb575f19019061300c6105d68383612dc6565b55815f52600a6020525f60408120555f612eca565b61302b9083612dc6565b90549060031b1c6130408161062e8486612dc6565b5f52600a60205260405f20555f80612ff1565b835f52600760205260405f206009810180549160ff8360201c166107865760ff8360081c166004811015610763576107775760ff83166005811015610763578015908115613134575b50613111575b60ff8360101c1660ff81036130fe575b506007015480151590816130f3575b506106f95760ff6001816130ee9460181c16011663ff00000082549160181b169063ff0000001916179055565b612ec5565b90504210155f6130c1565b60ff8460181c161015610726575f6130b2565b865f52600c60205260ff60405f2054166130a2576353c613f160e01b5f5260045ffd5b60019150145f61309c565b506001600160a01b0383161515612ec0565b60025f51602061348e5f395f51905f52541461317a5760025f51602061348e5f395f51905f5255565b633ee5aeb560e01b5f5260045ffd5b600581101561076357806131b75750606e810290808204606e14901517156113a45760649004906001905f90565b600181036131df5750606e810290808204606e14901517156113a45760649004906001905f90565b9050600281036131f357505f9060ff905f90565b6003810361320557505f905f90600190565b600414613214575f905f905f90565b5f9060ff905f90565b906020906040519061322f8383612882565b5f82526001600160a01b038416938415612477576001600160a01b036132558383612e9f565b16613356573b613266575b50505050565b916132a391819495936040519384928392630a85bd0160e11b84523360048501525f6024850152604484015260806064840152608483019061273e565b03815f885af15f9181613316575b506132df5750506132c0612d11565b80519190826132dc5783633250574960e11b5f5260045260245ffd5b01fd5b909291506001600160e01b03191663757a42ff60e11b0161330457505f808080613260565b633250574960e11b5f5260045260245ffd5b9091508381813d831161334f575b61332e8183612882565b8101031261085257516001600160e01b03198116810361085257905f6132b1565b503d613324565b6339e3563760e11b5f525f60045260245ffd5b6006546001600160a01b0316330361337d57565b63118cdaa760e01b5f523360045260245ffd5b823b61339e575b5050505050565b604051630a85bd0160e11b81526001600160a01b0391821660048201529181166024830152604482019390935260806064820152911691602090829081906133ea90608483019061273e565b03815f865af15f9181613448575b506134265750613406612d11565b805190816134215782633250574960e11b5f5260045260245ffd5b602001fd5b6001600160e01b03191663757a42ff60e11b0161330457505f80808080613397565b9091506020813d602011613485575b8161346460209383612882565b8101031261085257516001600160e01b03198116810361085257905f6133f8565b3d915061345756fe9b779b17422d0df92223018b32b4d1fa46e071723d6817e2486d003becc55f00a26469706673582212203f9a5cd615fad904f2f4746dc998aa9409d8ca1c12d6b345fc35d07972fe809564736f6c634300081b0033",
  "linkReferences": {},
  "deployedLinkReferences": {}
}